:020000040000FA
:10000000181720208D0100009101000093010000CD
:1000100000000000000000000000000000000000E0
:10002000000000000000000000000000950100003A
:10003000000000000000000097010000990100008E
:100040009B010000010800009B0100009B010000D3
:100050009B0100009B0100009B0100009B01000030
:10006000000000009B0100009B0100000000000058
:10007000000000009B010000C51800009B0100006B
:100080009D0E00009B010000850E00009B010000FA
:100090009B0100009B010000000000000000000028
:1000A0009B0100009B010000000000000000000018
:1000B0009B010000000000009B0100009B0100006C
:1000C00000F002F800F052F812A030C808382418E6
:1000D0002D18AC4201D100F049F80FCCA246AB4636
:1000E0000CA730CF2D1B083F3F197C427F1E544484
:1000F0002D090426F441641EAC4201D300F036F809
:100100000126334200D0FB1A3343984754465D46DC
:10011000DFE7000094210000B4210000000000008F
:10012000103A02D378C878C1FAD8520701D330C840
:1001300030C101D504680C60704700000000000069
:100140007047000000000000002300240025002666
:10015000103A01D378C1FBD8520700D330C100D583
:100160000B6070471FB51FBD10B510BD00F07AF9C8
:100170001146FFF7F7FF01F049FD00F092F903B4D3
:10018000FFF7F2FF03BC01F0CBFB0000064800477D
:10019000FEE7FEE7FEE7FEE7FEE7FEE70348044969
:1001A000044A054B70470000C100000018032020DE
:1001B000181720201813202018132020704770478C
:1001C00070470000F0B5FF252D04C609C209FF27BE
:1001D00004462E400137CB093E4348402A402B407D
:1001E0000746002A6BD0002B69D0AA4267D0AB42E9
:1001F00065D0002800DA32460125ED0529432C435D
:1002000009022002090AD21A4B0C7F24E31A434C3C
:10021000000A7C44E35C7D242404121914145B005E
:10022000A218884201D3521C00E0400049420C460B
:100230005C4324115C43DB016415E318040A5C434E
:10024000C502200D0C4644436419250A5D4323036F
:10025000EC0C0D46654300030019EB184C42A34219
:1002600001D35B18401CD4052018002B07D05B007D
:10027000C91804D3401C002901D1400840003F2187
:1002800089048A4209D3002A08DC1106090F04D028
:10029000032149074018C00FC007F0BD01224100EB
:1002A000120689187F2252069142F6D2052149078B
:1002B000C84201D59010F0BDFF20C005F0BD002F51
:1002C00000DA32461648AA4207D2AB4205D21902DA
:1002D000090E17D0F80FC007F0BDFF2563002D06EB
:1002E000AB42F9D84900A942F6D8AB4201D1A942A4
:1002F000F2D0A94201D1002101E061004908D005F6
:100300000843F0BD1102090EFBD0FF200243D005C7
:10031000F0BD0A460146104654E700000A200000DE
:100320000000C07F10B501469E240002CA15A30735
:10033000002A02D01843002A04DBA21A002A0CDD8E
:10034000D04010BD1206120E01D140004008A21A82
:1003500003D4D04040420028F3DDFF2248001206BB
:10036000904201D9002010BDC817C043584010BDAD
:100370000102C21504D00123DB071943002A0ADB5E
:100380009E239A1A02D40846D0407047FF224100AB
:100390001206914201D900207047C017C043704730
:1003A0001F22030C02D10F2200041CD0030E01D126
:1003B0000002083A030F01D10001121F830F01D17F
:1003C0008000921E002801DB4000521ED205511809
:1003D000021251181922904004D3491C002801D15F
:1003E0004908490008467047C10FC90700D040427C
:1003F000012292071143D3E701218907D0E70000CA
:1004000010B5FF231B0644009C421DD84C009C42A3
:100410001AD80346124A0B4307D4401A02D3EFF30B
:10042000008010BDEFF3008010BD081A03D3EFF376
:100430000080904305E0EFF3008001219043C9075D
:10044000084380F3008810BD0D231B041A4204D01A
:100450001146002000F02DF810BD00F041F810BD4D
:1004600000000090754600F043F8AE46050069466E
:100470005346C008C000854618B020B5FFF78EFE71
:1004800060BCB64600260027C0C5C0C5C0C5C0C5F3
:10049000C0C5C0C5C0C5C0C5403D490849008D465E
:1004A000704710B50446C046C0462046FFF767FEB9
:1004B00010BDC80212D54803400F002804D0C8035D
:1004C000C043012188407047EFF30080000100091C
:1004D00003210907084380F3008870470020704714
:1004E00010B5024800F008F810BD00000000C07F01
:1004F000004870472800202010B50C461107090F4E
:10050000092904D00A290AD008290CD104E011468F
:100510000820FFF7CEFF06E0510606D501E05106A0
:1005200001D50120C007214610BDD10607D5010124
:100530000909CC084907000E0006044309E0410FF1
:1005400020024907000A0143200E00061D22D14166
:1005500001430846E7E700000120C00501490860A3
:100560007047C04690120A400120C005014908604A
:100570007047C046A0120A40811E091F00BFFCD26E
:1005800070470000F0B584B06B4A82180292734B3A
:10059000C618784BC21800922A4BC4180A790191E8
:1005A0000D68294F202A03920AD0254BC018002A33
:1005B00017D16B1E029A536023683B40882517E0D1
:1005C000681E029A506020683840204B1843206013
:1005D0006068384018436060012045071C4F104692
:1005E00008E06B08029A536023683B400525ED0143
:1005F0002B432360009903683B402B430360306822
:100600004F4B1840306070681840706000200860E0
:1006100048608F20C043236903402361636903401E
:1006200063610198807903990843BD2101401068F6
:10063000084B0340C818801C106004B0F0BDC046D1
:10064000741800007018000024F93FF00104000045
:10065000FFFFFFCF4000FFCF70B5374A82184B68CD
:1006600053603E4BC3180878222857D8840001A550
:100670002C59A746130700001D07000013070000B0
:100680001D0700001D0700001D0700001D070000DA
:100690001D0700001D0700001D0700001D070000CA
:1006A0001D0700001D0700001D0700001D070000BA
:1006B0001D070000010700001D07000001070000E2
:1006C0001D0700001D0700001D0700001D0700009A
:1006D0001D0700001D0700001D0700001D0700008A
:1006E0001D0700001D0700001D0700001D0700007A
:1006F0001D070000010700001D07000001070000A2
:10070000032424071568A543012464072C191460E9
:1007100004E0032424071568A54315600C69D46020
:10072000CC68064D25401C68054E264074191C6097
:10073000097A0143116070BD041800007777020048
:100740008888FDFF10B507239B041940920080188C
:10075000024A84589C436118815010BD3018000033
:1007600010B5029CA400001911431943014A81509D
:1007700010BDC0465018000092008018014A8150F8
:100780007047C0461018000010B5012212038318EC
:100790000C789C604B7883508978014A815010BD59
:1007A0000C110000B0B51122120283580124A3439A
:1007B00083508B780C881C438B882343094C1C4046
:1007C0008358094D1D402B1983508B79CC791C43DC
:1007D000097A21437E231940801842689A435118B0
:1007E0004160B0BD18670000E798FDFF10B5012219
:1007F000120383180C789C604978815010BD00006A
:10080000F0B581B0032001022A4D28461038006857
:100810000840410A01246702274A103A1668002955
:1008200007D100281ED08648006838420ED02349E0
:100830000EE083480068C00502D57F20C10500E0B6
:100840001E491F48006801F091FB06E07F20C105AA
:100850001B48006801F08AFB2702194908602868D4
:1008600038432860300607D4700620D55648006803
:1008700000060FD511490FE053480068400602D525
:100880007F20C10500E00D490E48006801F06EFBB5
:10089000802106E07F20C1050A48006801F066FB60
:1008A0004021084A1060044A10680843106001B0F3
:1008B000F0BDC04648100A4048300A40000080BFE2
:1008C000880020208C00202010B522480188491C77
:1008D0000180384A1278521E53425341344A1278EA
:1008E000521E544254411C43334A1278521E534202
:1008F00053412343314A1278521E544254411C43FF
:100900002F4A1278521E5342534123432D4A1278E4
:10091000521E544254411C432C4A1278521E5342D8
:1009200053412343DA070BD00B4A13885B1C138017
:100930001BB2062B04DB094801210180054905E0B3
:1009400009B2074A914204DB0449024600201080A4
:10095000088010BDFC002020960020209800202058
:100960003011000036480168C904C90F104A1170DF
:1009700001688904C90F0F4A117001680904C90F81
:100980000D4A11700168C903C90F0C4A1170016842
:100990008903C90F0A4A117000684003C00F094952
:1009A000087009480068C005C00F08490870704702
:1009B000A2002020A1002020A00020209A002020BA
:1009C000920020209300202080330A4094002020B1
:1009D00010B51B4C2068400713D4282001F018F8EC
:1009E0002068400708D42068400705D420684007E5
:1009F00002D420684007F3D5282001F009F801202F
:100A000010BD002010BDC04610B50D4C2068002858
:100A100013D4282000F0FCFF2068002808D42068A8
:100A2000002805D42068002802D420680028F3D5C7
:100A3000282000F0EDFF012010BD002010BDC046B1
:100A400080130A4001208006074908607047C046AD
:100A5000012080065C4908607047C0460120C0063E
:100A6000014908607047C046A0120A400120C00634
:100A7000554908607047C04670B50D490B781C4950
:100A80000A461032012B154600D00D460124A6045B
:100A90002E60012B00D01146E2040A60FFF768FCCB
:100AA000014620316B480022FFF766FE70BDC0464C
:100AB0001C00202070B50D490B780D490A461032F4
:100AC000012B154600D00D46012426052E60012B72
:100AD00000D0114622060A60FFF74AFC0146203189
:100AE0005C482246FFF748FE70BDC0461D0020202E
:100AF00090320A40B0B52D4987224A622C4804231F
:100B000003608A62082202602A4A822313622A4B07
:100B100053628124D463294BCB64294D5565946578
:100B2000284D4D600D609461D461946294638B6331
:100B30004B638B644B640B674B67CB6713605360ED
:100B4000936003229106204B19610121C9051960A8
:100B50001921C905196405210B041C4C25681D4386
:100B600025601B4B1C68302525431D6094075D687C
:100B700025435D601202174B1C6A14431C621C68FB
:100B800014431C600246403A47239B0413600360F1
:100B9000080311490A6802430A601048016AC0222A
:100BA00011430162016811430160B0BD18804240E9
:100BB000D0320A40988042408200040081000C003C
:100BC0008100010081000E0090120A4090130A403B
:100BD00008150A4028100A4090330A4028300A407D
:100BE00070B582B01B4C1C492046FFF7CDFD1B4958
:100BF0002046FFF7C7FC1A4801681A4A0A400260FB
:100C000000250095204629462A462B46FFF7A8FDD9
:100C1000204629462A46FFF795FD204629462A46C2
:100C2000FFF7AAFD01260096204629462A462B46B4
:100C3000FFF796FD204629463246FFF783FD204602
:100C400029463246FFF798FD074886600321016078
:100C500002B070BD00808640602200006422000067
:100C6000049886407F00FFFF009186400F480021D6
:100C700001600320C1430E480246083A13680B4046
:100C800013600168012291430160110203688B43E4
:100C900003601103001F02680A430260FF20000284
:100CA00004490A6882430A607047C04608030B4043
:100CB00008010B4000E400E00548042101601F2109
:100CC000416000218160016805220A43026070478B
:100CD00010E000E010B50B4C0B492046FFF754FD27
:100CE0000A492046FFF7B8FC094801680122114370
:100CF0000160FF20000419490B6883430B6005481D
:100D0000026010BD000086406C22000070220000CE
:100D1000281086400811864010B50C4C0C4920461E
:100D2000FFF732FD0B492046FFF796FC0A480168A1
:100D300002220A4302600948016840220A43BF2197
:100D40008A43026006480121016010BD004008404E
:100D500084220000882200002850084010E400E0AF
:100D60000851084010B5154C15492046FFF73EFDC7
:100D700014492046FFF716FD0320C10312480268FC
:100D80008A4302600169114A0A40113202614169D5
:100D900017220A4328218A434261416801221140F7
:100DA00043689343591841609102094B1C680C43F6
:100DB0001C6001681143016010BDC0460020104056
:100DC0009C2200009E220000003110400000FFFF26
:100DD0002830104080B500F01BF8FFF78BFEFFF7BE
:100DE00045FFFFF7FDFEFFF775FFFFF795FFFFF7E4
:100DF000B9FFFFF761FFB820034900220A549C2085
:100E000002490A5480BDC046B001202010012020B4
:100E100070B50C480C4941600C4A51600C4B59604C
:100E20000C4C61600C4D69600C4E71600C490160A6
:100E3000116019602160296031601020FFF79CFB70
:100E400070BDC04600080A40030000B100280A40F7
:100E5000008886400008864000480840002810406E
:100E60000100002610B5064C2078002800D010BDE7
:100E7000FFF77AFBFFF7ECFD0120207010BDC046A4
:100E8000B500202080B504480068000603D0FFF7B5
:100E900069FD00F087FF80BD2010864080B50848BE
:100EA000006800060BD098480078012805D19548C5
:100EB0000078002801D100F0F7FD00F019FD80BD99
:100EC0002050084070B582B0834C2078022828D08A
:100ED000012808D000283ED1012020707F48002141
:100EE000018002B070BD7F20C00500907E487F4A1F
:100EF00000210B4600F0F0FE7A4818490160774D5A
:100F00002888002808D1834EFFF7DEFC306800F007
:100F100009FD28880028F7D02078401C207002B0F6
:100F200070BDFFF79FFF00F0C9FE642000F070FD68
:100F30006A48018800290ED0724900220A7070495F
:100F40000A7071490A700280664802602270192096
:100F5000000100F05DFD02B070BDC0460000AF436F
:100F6000F0B581B05C480078052800D99CE0C04607
:100F70007844007940008744024C192C076957488F
:100F8000002101800124A2E0FFF76CFF7D2080009A
:100F900000F03EFD53485D490160504C2088002818
:100FA00050D0FFF791FC00F01FFFF7E7FFF75AFF63
:100FB0007D208000643800F02BFD4A4853490160D1
:100FC000464C208800283DD0FFF77EFC00F00CFF47
:100FD000F7E7FFF747FF7F20C00500904248434AEC
:100FE00000210B4600F078FE7D20800000F010FD0F
:100FF0003C4847490160394C2088002822D1454DA2
:10100000FFF762FC286800F08DFC20880028F7D0EC
:1010100018E07F20C00500903348344A00210B4679
:1010200000F05AFE2F483A4901602C4C20880028D5
:1010300008D1384DFFF748FC286800F073FC208881
:101040000028F7D024490878441C41E0FFF70AFF44
:1010500000F034FE642000F0DBFC2048008800280B
:1010600002D11F48012101701E48002404607F2026
:10107000C00500901C481D4A2146234600F02CFE66
:101080001748007800280FD0194D1A4F1A4E2868BB
:1010900000F048FC3888401C388000B2B04205DAC5
:1010A0000F4800780028F2D101B0F0BD00F006FE34
:1010B0003C80124804800A480470114804701148AA
:1010C0000470114804700548048006480460024911
:1010D0000C7001B0F0BDC046140320209800202001
:1010E0001003202000012020C40020200000204107
:1010F0000C00202012032020A92F0000FC0020203B
:10110000B80020200C012020D502202000009143AF
:101110000000A543F8002020F0B583B0ED4800782A
:10112000052800D9FEE0C046784400794000874495
:1011300002782A5A0FCA012080070090E448E34A47
:1011400000242146234600F0C7FDE34804809BE1CC
:10115000FFF788FE00F0B2FD642000F059FCE04883
:1011600000210160DF480090DF48E04A02910B4611
:1011700000F0B2FDD8480088002800D1D4E0D7485C
:1011800001210170D4E0FFF76DFE00F097FD6420AF
:1011900000F03EFCD0480088002802D0CF48012152
:1011A0000170D0480090D048D04A00242146234600
:1011B00000F092FDCA4802940460C84F38780028B5
:1011C00000D14FE1CA4ECB4DCB4C286800F0AAFBB2
:1011D0002088401C208000B2B04200DD3DE138781C
:1011E0000028F2D13EE1FFF73DFE00F067FD6420EC
:1011F00000F00EFCBB480090BB48BC4A00242146CE
:10120000234600F069FDB448008800280294B448E1
:1012100000D1B4E00460B1480078002800D0B2E00A
:10122000C7E07F20C0050090AF48BA4A002421469D
:10123000234600F051FDB2480460A949B648086051
:10124000AE480460AF480460AF480460B74D2868FA
:10125000214600F080FE002817D1B54EB14F30680E
:1012600000F060FB00F0F8FBA548006838402C68EF
:10127000214600F058FE002807D1A04800683840F9
:10128000214600F05BFE0028E9D100F017FD4B205D
:10129000800000F0BDFBA44891490860FF20800554
:1012A000009091489B4A00210B4600F015FD8A4CA6
:1012B0002088002800D0E5E0FFF706FB0320800728
:1012C00000F030FBF4E7FFF7CDFD00F0F7FC642001
:1012D00000F09EFB80480088002802D17F48012151
:1012E00001707F48002404607E4800907E487F4A59
:1012F0002146234600F0F0FC78480078002811D001
:101300007B4F7C4E7C4D9637306800F00BFB288875
:10131000401C288000B2B84200DDBBE06F48007876
:101320000028F1D103B0F0BD6C480078002815D03A
:101330006F4F704D704C694E286800F0F3FA2088AA
:10134000401C208000B2B84203DC30780028F3D182
:1013500004E0029921806D48018031704B208000AB
:1013600000F056FB6A485E4908605B4C2088002804
:1013700000D187E0FFF7A8FA00F036FDF6E7046039
:101380005648012101705A4E5A4C5B4F534D20680C
:1013900000F0C8FA3888401C388000B2B04203DC44
:1013A00028780028F3D104E0029939805748018059
:1013B00029704B208000019000F02AFB7F20C0059F
:1013C00000904948534A029C2146234600F084FC81
:1013D0004B48046042495048086048480460494806
:1013E0000460494804604D4F3868214600F0B3FD61
:1013F000002817D14A4E4B4D306800F093FA00F0A8
:101400002BFB3F48006828403C68214600F08BFDDC
:10141000002807D1394800682840214600F08EFD99
:101420000028E9D100F04AFC019800F0F1FA3E48AA
:101430002B4908600120840700942B48354A00217D
:101440000B4600F049FC244D288800281AD1FFF7EC
:101450003BFA204600F066FAF6E7029921802B4815
:10146000018039704B20800000F0D2FA28481C49D6
:101470000860194C2088002804D0FFF725FA00F0F6
:10148000B3FCF7E700F01AFCF5490878441C0C702F
:1014900003B0F0BD00F012FC184804601848046066
:1014A0001848046018480460184804802C80F648E6
:1014B0000470EE480470EE480470EE480470EE4884
:1014C0000480E9480460E649E1E7C0466666C64034
:1014D000DC0220201403202098002020100320206C
:1014E0000001202000004040C40020200000E04017
:1014F000E02E0000F8002020120320200801202008
:1015000004012020880020208C002020FC002020C6
:10151000000082430000A0400000AF4318002020DC
:1015200008002020FFFFFF7F00003E431400202022
:1015300004002020F0B583B0C94D2878052800D9D3
:101540008BE1C046784400794000874402611F491E
:101550000B83CD4801210170C74800220280297009
:1015600003B0F0BDC04800210160CF480090C848DA
:10157000C84A02910B4600F0AFFBBF480088002824
:1015800000D183E0C0480121017083E0BA4D288872
:10159000002802D0BC4801210170C3480090BC481B
:1015A000BC4A00242146234600F096FBAE48029434
:1015B0000460B5480078002800D101E1B64FBB4E69
:1015C000B64C306800F0AEF92088401C208000B294
:1015D000B84200DDEEE0AC4800780028F1D1EFE041
:1015E000642000F015FAB0480090A948A94A0024E8
:1015F0002146234600F070FB9F4800880028029493
:1016000099486DD00460A048007800286CD181E032
:10161000A5480090F2489F4A00242146234600F046
:101620005BFBF54802940460974E3078002800D1A7
:10163000D9E0994FA04D994C284600F073F92088C5
:10164000401C208000B2B84200DDC7E0307800289E
:10165000F2D1C8E0642000F0DBF9824C2178481C0C
:101660002070002973D0C0B203287DD900F026FB7A
:10167000E1480021016021702970DB4801707C483D
:1016800001707C4801707C480180E3E07E4800786E
:10169000002815D0804F854D804C7B4E286800F087
:1016A00041F92088401C208000B2B84203DC307829
:1016B0000028F3D104E0029921807948018031703B
:1016C000C82000F0A5F97A48CB4908606A4C208808
:1016D000002800D19FE0FFF7F7F800F085FBF6E760
:1016E00004606948012101706B4F664C6B4D664E7A
:1016F000206800F017F92888401C288000B2B84202
:1017000003DC30780028F3D104E002992980644892
:1017100001803170C82000F07BF97F20C005009067
:10172000AF48644A00210B4600F0D6FAB2485D4942
:101730000160514D288800286DD1524CFFF7C4F844
:10174000206800F0EFF828880028F7D063E04B4DC0
:1017500028684B4C214600F009FC2860494D286858
:10176000214600F003FC286043480088002802D18D
:10177000454801210170A0480021016043480090C4
:101780009748444A02910B4600F0A6FA3E4F38783B
:10179000002859D0404E394C404D206800F0C2F826
:1017A0002888401C288000B2B0423EDC38780028EF
:1017B000F3D149E002992180394801803248017013
:1017C000C82000F025F93A488B490860288800288D
:1017D00021D0FFF779F800F007FBF7E702992180A5
:1017E0002F48018031702F488349086033480090AA
:1017F0007B48334A00210B4600F06EFA1E4C2088CD
:10180000002808D11D4DFFF75FF8286800F08AF81E
:1018100020880028F7D0FFF725FB00F04FFA734926
:101820000878401C087003B0F0BD00F047FA9948F2
:1018300002990160954801609348016094480160F5
:10184000174801802980397016486B4908600120CB
:1018500066490870962000F0DBF803B0F0BDC04682
:1018600014032020B900202000012020B8002020EF
:101870000C012020D5022020980020200C002020E0
:10188000000080BF10002020100320200000204016
:10189000C40020200000E040E02E000012032020C1
:1018A000FC0020200080C54300004040F8002020BC
:1018B000000091430000A040000010C29A99993F97
:1018C0006666A64080B507480068C0B20B2807D1FD
:1018D00005480068C0B200F017F904480121017002
:1018E00080BDC0462030104024311040D40220205A
:1018F000B0B5094C207800280DD0084D2888401C30
:10190000288080B20F2806D3FEF726FEFFF79AF84C
:10191000002020702880B0BDB5002020B600202017
:101920007047000070B52E4C2060B7480068FEF785
:10193000F9FC2C490860DF4A1278022A04D1782881
:101940000EDDB322D24310E0D21E012A0FD8274A5F
:101950001278531E012B38D87D28F2DC7C2200E05F
:101960007722D243904202DAB42210180860FEF7C0
:101970003BFD6060204600F0B6F9E56A1C4E284643
:10198000314600F0C5FA002800D12E46002805D1C6
:101990001849304600F0C7FA002808D1154D3046E6
:1019A000294600F0CBFA002800D13546E562124EF8
:1019B0003068294600F0CCFBFFF75EF83068E16A3A
:1019C00000F0D4FAFFF776F870BDD21E012ACED807
:1019D0004628B6DC4622D2439042C5DDC7E7C04662
:1019E000C4002020C0002020B800202014032020A4
:1019F0000000C8430000C8C30001202080B5FFF7E5
:101A0000E9F901208003F6490860F649086080BDC5
:101A1000B0B57D21090241430E480368262206E045
:101A2000E41A051F2D686419A2188A4210D21C46B8
:101A30000368A34208D10368A34205D10368A34207
:101A400002D10368A342F3D09C42E9D9E41AEBE740
:101A5000B0BDC04618E000E010B50A4804680A4866
:101A60000168204600F01CFB084908600120C007FF
:101A7000074909684140204600F012FB054908600B
:101A800010BDC04600002020880020200401202036
:101A90008C00202008012020D14802210160016033
:101AA000D048016001607047F0B581B0FEF7D0FF0B
:101AB00032242046FFF7ACFFFEF7C4FFFEF7D6FF47
:101AC000514F3D682046FFF7A3FF3E682046FFF7D1
:101AD0009FFF7948012101702846314600F046FAFF
:101AE000396800F043FA0649FEF76CFB05490860C7
:101AF000FEF7B4FF2046FFF78BFF01B0F0BDC046F4
:101B000000004040F8002020F0B583B0384E317816
:101B100000290BD03178012914D1532866D13548DA
:101B20000078354953220A54022707E055285DD131
:101B300030480078304955220A5401272D48077053
:101B4000377053E03178022950D12A4A13782A4954
:101B5000C854581C1070C0B20B2847D108784A7876
:101B600010188D782818CC782218087983184A79AB
:101B7000D3188F790297FB18CF790197FB180F7A4A
:101B8000FB184F7AFB18DBB2897A00278B42D5D13C
:101B90001102081800B2FEF727FC0721C9060091C0
:101BA00000F07EFA154900F07BFA15490860200222
:101BB000401900B2FEF718FC009C214600F070FAB4
:101BC0000E4D294600F06CFA0E490860019800029B
:101BD0000299401800B2FEF707FC214600F060FAB7
:101BE000294600F05DFA08490860A7E703B0F0BD98
:101BF000B4002020B3002020A8002020000034439F
:101C00009C002020A4002020BC002020FFF7F6FE2E
:101C1000FFF742FF00F0D4F800F0DAF8224C234D31
:101C2000234E244FFEF7D4FE2070FEF7EDFE287001
:101C30003178002908D0012818D1FEF717FF0120BC
:101C40003070012815D0EDE72078012805D1FEF786
:101C5000FFFE3878401C387000E03878C0B20528A4
:101C600001D30020387028780128E6D03078012888
:101C7000D8D1114800780128D4D13878401E0328E3
:101C8000D0D8C0467844007940008744040A010750
:101C9000FFF742FAC6E7FFF715F9C3E7FFF74AFC7B
:101CA000C0E7FFF75DF9BDE79000202091002020FC
:101CB000D5022020B80020200C0120200120810422
:101CC000044A1160C1041160010511600006106032
:101CD0007047C04690320A4010B5029C4261836151
:101CE000C461016310BDF0B583B00446006861684B
:101CF00000F02EFA0546A060206B00282DD00128A8
:101D00004BD1A169284600F0CBF90290A062E668A9
:101D10002846314600F01CFA0146606900F0C0F91F
:101D2000019020623046314600F020F901462846F5
:101D300000F00EFA216900F019F90146E06900F09F
:101D4000AFF9074660620198029900F00FF9394631
:101D500000F00CF90146E06A1BE06169284600F0DA
:101D60009FF902902062A169284600F099F901903C
:101D7000A062E6682846314600F0EAF90146E069CB
:101D800000F08EF9074660620298019900F0EEF8C3
:101D9000394600F0EBF8E06200E0E668E5602661B5
:101DA00003B0F0BD80B50448C06AFEF765FE034885
:101DB000C06AFEF77FFE80BD6C022020A0022020BA
:101DC0000120800406490860064908607047C04643
:101DD0000120000402490860024908607047C046BB
:101DE00080E200E000E100E0F0B581B03848007822
:101DF000012801D1374C24E037480078012802D16E
:101E0000032084071DE035480078012801D1344CB7
:101E100017E034480078012801D1002411E032484D
:101E20000078012801D1314C0BE0314800780128BD
:101E300002D10120840704E02E4800780128ECD16B
:101E40002D4C2E4801680460204600F081F90146BF
:101E50002B48006800F024F905462A48006821460E
:101E600000F01EF9294600F081F80146264807686F
:101E70003846009100F06CF905460026314600F026
:101E80006AF80028344600D12C46204D20462946C9
:101E900000F049F80028284600D12046FEF7ECFD66
:101EA0003846009900F062F80446314600F053F8D5
:101EB000002800D126463046294600F034F8002894
:101EC00000D135462846FEF7F5FD01B0F0BDC0460D
:101ED000A2002020CDCC2CC0A1002020A0002020DA
:101EE0006666E6BF9A002020920020206666E63FE4
:101EF0009300202094002020CDCC2C40D80220201C
:101F000020002020240020200001202000007A440E
:101F100010B500F071F8EFF30080800001D50120CA
:101F200010BD002010BD10B500F066F8EFF3008082
:101F30004000800F012800D0002010BD10B500F037
:101F400085F8EFF300804000800F012801D00120C8
:101F500010BD002010BD10B500F078F8EFF3008040
:101F6000800001D4012010BD002010BD70B50125F6
:101F7000ED0704004C4020D4441A01D2001B09197B
:101F8000C60D4B00F2B2FF2A29D01B0E2CD0000246
:101F90000C0228432C43D31ADC40051910D2280A1E
:101FA00002D3401C6D0611D0761EF6058019FF2A5B
:101FB00000DA70BDC00DC00570BD694000F0CEF8FC
:101FC00001200543C541521C761CE8E764089C408B
:101FD000C90161408900E7D10124A043E4E71B0E59
:101FE000440200D0034870BD002AFCD1C00FC007D6
:101FF00070BD00BF0000C07F0123DB0502000A4363
:102000000DD4DA4203D49A4207D488427047D842AA
:1020100014D4D94212D48842704780427047DA42C1
:1020200003D59A42F9D5814270475B004200DA42FB
:1020300004D24A00DA4201D28142704710B5024A06
:10204000FEF7DEF910BD00BF090013040123DB0514
:1020500002000A430DD4DA4203D49A4207D48842DC
:102060007047D84214D4D94212D488427047804273
:102070007047DA4203D59A42F9D5814270475B0036
:102080004200DA4204D24A00DA4201D28142704769
:1020900010B5024AFEF7B4F910BD00BF09001604DE
:1020A00070B5420064414B005C41120E39D01B0EEA
:1020B00038D0FF2A3CD0FF2B3AD0D2187F3A4002CA
:1020C0004902400A490A4518ED0106004E43000A3C
:1020D000090A48430104731A4019190C4318990F4F
:1020E00004D05B08012149075B1A521CD80904D3AC
:1020F000401CF50301D19D0607D0FF2A08D2D50563
:1021000006D0E4072043401970BD0125A843F4E739
:10211000002A01DCE00770BD2402FF202043C00537
:1021200070BD1B0EFF2A03D0FF2B01D0E00770BD4E
:10213000FF2636064500B54206D84D00B54203D805
:10214000D218FF2A00D0E7E7004870BD0000C07F2A
:1021500070B50125ED0704004C4022D4441A02D288
:102160006C40001B0919C60D4B00F2B2FF2A4BD080
:102170001B0E50D000020C02A8432C43D31ADC40A3
:10218000051B05D5AD0019D36D08761E521E37D03C
:10219000F605280A01D2801970BD70416D0603D082
:1021A00070BD6940FFF7E8FE9C40090261404900AC
:1021B00001D0401E70BD0124A04370BD6D081DD02C
:1021C00001202B0C01D12D0410302B0E01D12D023A
:1021D00008302B0F01D12D01001DAB0F01D1AD0037
:1021E000801CEB0F01D16D00401C361A121A6D00D5
:1021F000680AF5054019012A02DB70BD002070BD98
:10220000C036300AC00770BD1B0E440201D1FF2B3F
:1022100000D1024870BD002AF0D070BD0000C07F20
:102220008182838485868788898B8C8D8E8F91921D
:1022300093959697999A9C9D9FA0A2A3A5A7A8AABB
:10224000ACAEB0B2B3B5B7B9BCBEC0C2C5C7C9CCDD
:10225000CED1D4D7D9DCDFE2E6E9ECF0F3F7FAFE31
:1022600008070300E80300002000010008076300DE
:102270000200000017010000010000000000000043
:1022800000000000080763000200000017010000C2
:102290000100000000000000000000000800000035
:1022A0001800000000300000C822000000002020BC
:1022B0002800000020010000F0220000280020205B
:1022C000F016000048010000840D8F3E000024C27B
:1022D00000003442000010C20000244200E0984494
:1022E00000209444010100000000803E00004042B4
:04000005000000C136
:00000001FF
