:020000040000FA
:10000000181720208D0100009101000093010000CD
:1000100000000000000000000000000000000000E0
:10002000000000000000000000000000950100003A
:10003000000000000000000097010000990100008E
:100040009B010000010800009B0100009B010000D3
:100050009B0100009B0100009B0100009B01000030
:10006000000000009B0100009B0100000000000058
:10007000000000009B010000F91800009B01000037
:10008000DD0E00009B010000C50E00009B0100007A
:100090009B0100009B010000000000000000000028
:1000A0009B0100009B010000000000000000000018
:1000B0009B010000000000009B0100009B0100006C
:1000C00000F002F800F052F812A030C808382418E6
:1000D0002D18AC4201D100F049F80FCCA246AB4636
:1000E0000CA730CF2D1B083F3F197C427F1E544484
:1000F0002D090426F441641EAC4201D300F036F809
:100100000126334200D0FB1A3343984754465D46DC
:10011000DFE70000042500002425000000000000A7
:10012000103A02D378C878C1FAD8520701D330C840
:1001300030C101D504680C60704700000000000069
:100140007047000000000000002300240025002666
:10015000103A01D378C1FBD8520700D330C100D583
:100160000B6070471FB51FBD10B510BD00F07AF9C8
:100170001146FFF7F7FF01F063FD00F092F903B4B9
:10018000FFF7F2FF03BC01F0E5FB00000648004763
:10019000FEE7FEE7FEE7FEE7FEE7FEE70348044969
:1001A000044A054B70470000C100000018032020DE
:1001B000181720201813202018132020704770478C
:1001C00070470000F0B5FF252D04C609C209FF27BE
:1001D00004462E400137CB093E4348402A402B407D
:1001E0000746002A6BD0002B69D0AA4267D0AB42E9
:1001F00065D0002800DA32460125ED0529432C435D
:1002000009022002090AD21A4B0C7F24E31A434C3C
:10021000000A7C44E35C7D242404121914145B005E
:10022000A218884201D3521C00E0400049420C460B
:100230005C4324115C43DB016415E318040A5C434E
:10024000C502200D0C4644436419250A5D4323036F
:10025000EC0C0D46654300030019EB184C42A34219
:1002600001D35B18401CD4052018002B07D05B007D
:10027000C91804D3401C002901D1400840003F2187
:1002800089048A4209D3002A08DC1106090F04D028
:10029000032149074018C00FC007F0BD01224100EB
:1002A000120689187F2252069142F6D2052149078B
:1002B000C84201D59010F0BDFF20C005F0BD002F51
:1002C00000DA32461648AA4207D2AB4205D21902DA
:1002D000090E17D0F80FC007F0BDFF2563002D06EB
:1002E000AB42F9D84900A942F6D8AB4201D1A942A4
:1002F000F2D0A94201D1002101E061004908D005F6
:100300000843F0BD1102090EFBD0FF200243D005C7
:10031000F0BD0A460146104654E700007A2300006B
:100320000000C07F10B501469E240002CA15A30735
:10033000002A02D01843002A04DBA21A002A0CDD8E
:10034000D04010BD1206120E01D140004008A21A82
:1003500003D4D04040420028F3DDFF2248001206BB
:10036000904201D9002010BDC817C043584010BDAD
:100370000102C21504D00123DB071943002A0ADB5E
:100380009E239A1A02D40846D0407047FF224100AB
:100390001206914201D900207047C017C043704730
:1003A0001F22030C02D10F2200041CD0030E01D126
:1003B0000002083A030F01D10001121F830F01D17F
:1003C0008000921E002801DB4000521ED205511809
:1003D000021251181922904004D3491C002801D15F
:1003E0004908490008467047C10FC90700D040427C
:1003F000012292071143D3E701218907D0E70000CA
:1004000010B5FF231B0644009C421DD84C009C42A3
:100410001AD80346124A0B4307D4401A02D3EFF30B
:10042000008010BDEFF3008010BD081A03D3EFF376
:100430000080904305E0EFF3008001219043C9075D
:10044000084380F3008810BD0D231B041A4204D01A
:100450001146002000F02DF810BD00F041F810BD4D
:1004600000000090754600F043F8AE46050069466E
:100470005346C008C000854618B020B5FFF78EFE71
:1004800060BCB64600260027C0C5C0C5C0C5C0C5F3
:10049000C0C5C0C5C0C5C0C5403D490849008D465E
:1004A000704710B50446C046C0462046FFF767FEB9
:1004B00010BDC80212D54803400F002804D0C8035D
:1004C000C043012188407047EFF30080000100091C
:1004D00003210907084380F3008870470020704714
:1004E00010B5024800F008F810BD00000000C07F01
:1004F000004870472800202010B50C461107090F4E
:10050000092904D00A290AD008290CD104E011468F
:100510000820FFF7CEFF06E0510606D501E05106A0
:1005200001D50120C007214610BDD10607D5010124
:100530000909CC084907000E0006044309E0410FF1
:1005400020024907000A0143200E00061D22D14166
:1005500001430846E7E700000120C00501490860A3
:100560007047C04690120A400120C005014908604A
:100570007047C046A0120A40811E091F00BFFCD26E
:1005800070470000F0B584B06B4A82180292734B3A
:10059000C618784BC21800922A4BC4180A790191E8
:1005A0000D68294F202A03920AD0254BC018002A33
:1005B00017D16B1E029A536023683B40882517E0D1
:1005C000681E029A506020683840204B1843206013
:1005D0006068384018436060012045071C4F104692
:1005E00008E06B08029A536023683B400525ED0143
:1005F0002B432360009903683B402B430360306822
:100600004F4B1840306070681840706000200860E0
:1006100048608F20C043236903402361636903401E
:1006200063610198807903990843BD2101401068F6
:10063000084B0340C818801C106004B0F0BDC046D1
:10064000741800007018000024F93FF00104000045
:10065000FFFFFFCF4000FFCF70B5374A82184B68CD
:1006600053603E4BC3180878222857D8840001A550
:100670002C59A746130700001D07000013070000B0
:100680001D0700001D0700001D0700001D070000DA
:100690001D0700001D0700001D0700001D070000CA
:1006A0001D0700001D0700001D0700001D070000BA
:1006B0001D070000010700001D07000001070000E2
:1006C0001D0700001D0700001D0700001D0700009A
:1006D0001D0700001D0700001D0700001D0700008A
:1006E0001D0700001D0700001D0700001D0700007A
:1006F0001D070000010700001D07000001070000A2
:10070000032424071568A543012464072C191460E9
:1007100004E0032424071568A54315600C69D46020
:10072000CC68064D25401C68054E264074191C6097
:10073000097A0143116070BD041800007777020048
:100740008888FDFF10B507239B041940920080188C
:10075000024A84589C436118815010BD3018000033
:1007600010B5029CA400001911431943014A81509D
:1007700010BDC0465018000092008018014A8150F8
:100780007047C0461018000010B5012212038318EC
:100790000C789C604B7883508978014A815010BD59
:1007A0000C110000B0B51122120283580124A3439A
:1007B00083508B780C881C438B882343094C1C4046
:1007C0008358094D1D402B1983508B79CC791C43DC
:1007D000097A21437E231940801842689A435118B0
:1007E0004160B0BD18670000E798FDFF10B5012219
:1007F000120383180C789C604978815010BD00006A
:10080000F0B581B0032001022A4D28461038006857
:100810000840410A01246702274A103A1668002955
:1008200007D100281ED09548006838420ED02349D1
:100830000EE092480068C00502D57F20C10500E0A7
:100840001E491F48006801F049FD06E07F20C105F0
:100850001B48006801F042FD27021949086028681A
:1008600038432860300607D4700620D55F480068FA
:1008700000060FD511490FE05C480068400602D51C
:100880007F20C10500E00D490E48006801F026FDFB
:10089000802106E07F20C1050A48006801F01EFDA6
:1008A0004021084A1060044A10680843106001B0F3
:1008B000F0BDC04648100A4048300A40000080BFE2
:1008C000880020208C00202010B525480188491C74
:1008D0000180474A1278521E53425341424A1278CD
:1008E000521E544254411C43424A1278521E5342F3
:1008F00053412343404A1278521E544254411C43F0
:100900003E4A1278521E5342534123433C4A1278C6
:10091000521E544254411C433A4A1278521E5342CA
:1009200053412343384A1278521E544254411C43C7
:10093000E2070BD00B4A13885B1C13801BB2062BFB
:1009400004DB094801210180054905E009B2074A95
:10095000914204DB0449024600201080088010BD4B
:10096000FC0020209600202098002020301100005C
:100970000120820341490B6813405A425A411A4BE5
:100980001A700202194B1B6813405A425A41184B05
:100990001A7082040B6813405A425A41154B1A7060
:1009A00042040B6813405A425A41134B1A70C20357
:1009B0000B6813405A425A41104B1A7042030B689D
:1009C00013405A425A410E4B1A7002030B681340EF
:1009D0005A425A410B4B1A700004096801404842C0
:1009E0004841094908707047A300202080330A401D
:1009F000A2002020A1002020A00020209200202082
:100A000093002020940020209500202010B51B4C3E
:100A10002068400713D4282001F014F8206840070C
:100A200008D42068400705D42068400702D4206815
:100A30004007F3D5282001F005F8012010BD002063
:100A400010BDC04610B50D4C2068002813D42820D6
:100A500000F0F8FF2068002808D42068002805D49A
:100A60002068002802D420680028F3D5282000F050
:100A7000E9FF012010BD002010BDC04680130A40D0
:100A800001208006074908607047C04601208006A3
:100A90005D4908607047C0460120C00601490860F2
:100AA0007047C046A0120A400120C006564908609F
:100AB0007047C04670B50D490B781C490A46103284
:100AC000012B154600D00D460124A6042E60012BF3
:100AD00000D01146E2040A60FFF74AFC01462031CB
:100AE0006C480022FFF748FE70BDC0461C00202065
:100AF00070B50D490B780D490A461032012B154689
:100B000000D00D46012426052E60012B00D0114691
:100B100022060A60FFF72CFC014620315D48224680
:100B2000FFF72AFE70BDC0461D00202090320A400B
:100B3000B0B52E4987224A622D48042303608A6299
:100B4000082202602B4A822313622B4B53628124BA
:100B5000D4632A4BCB642A4D55659465294D4D606D
:100B60000D609461D461946294638B634B638B6476
:100B70004B6413600B674B67CB67536093608B6765
:100B800003229106204B19610121C9051960192121
:100B9000C905196405210B041C4C25681D432560FB
:100BA0001B4B1C68302525431D6094075D68254359
:100BB0005D601202174B1C6A14431C621C681443CC
:100BC0001C600246403A47239B04136003600803FD
:100BD00011490A6802430A601048016AC0221143A1
:100BE0000162016811430160B0BDC04618804240F7
:100BF000D0320A40988042408200040081000C00FC
:100C00008100010081000E0090120A4090130A40FA
:100C100008150A4028100A4090330A4028300A403C
:100C200070B582B01B4C1C492046FFF7ADFD1B4937
:100C30002046FFF7A7FC1A4801681A4A0A400260DA
:100C400000250095204629462A462B46FFF788FDB9
:100C5000204629462A46FFF775FD204629462A46A2
:100C6000FFF78AFD01260096204629462A462B4694
:100C7000FFF776FD204629463246FFF763FD204602
:100C800029463246FFF778FD074886600321016058
:100C900002B070BD00808640D0250000D425000041
:100CA000049886407F00FFFF009186400F48002196
:100CB00001600320C1430E480246083A13680B4006
:100CC00013600168012291430160110203688B43A4
:100CD00003601103001F02680A430260FF20000244
:100CE00004490A6882430A607047C04608030B4003
:100CF00008010B4000E400E00548042101601F21C9
:100D0000416000218160016805220A43026070474A
:100D100010E000E010B50B4C0B492046FFF734FD06
:100D20000A492046FFF798FC09480168012211434F
:100D30000160FF20000419490B6883430B600548DC
:100D4000026010BD00008640DC250000E0250000A8
:100D5000281086400811864010B50C4C0C492046DE
:100D6000FFF712FD0B492046FFF776FC0A480168A1
:100D700002220A4302600948016840220A43BF2157
:100D80008A43026006480121016010BD004008400E
:100D9000F4250000F82500002850084010E400E089
:100DA0000851084010B5154C15492046FFF71EFDA7
:100DB00014492046FFF7F6FC0320C10312480268DD
:100DC0008A4302600169114A0A4011320261416995
:100DD00017220A4328218A434261416801221140B7
:100DE00043689343591841609102094B1C680C43B6
:100DF0001C6001681143016010BDC0460020104016
:100E00000C2600000E260000003110400000FFFFFD
:100E10002830104080B500F01BF8FFF789FEFFF77F
:100E200045FFFFF7FDFEFFF775FFFFF795FFFFF7A3
:100E3000B9FFFFF761FFB820034900220A549C2044
:100E400002490A5480BDC046B00120201001202074
:100E500070B50C480C4941600C4A51600C4B59600C
:100E60000C4C61600C4D69600C4E71600C49016066
:100E7000116019602160296031601020FFF77CFB50
:100E800070BDC04600080A40030000B100280A40B7
:100E9000008886400008864000480840002810402E
:100EA0000100002610B5064C2078002800D010BDA7
:100EB000FFF75AFBFFF7EAFD0120207010BDC04686
:100EC000B500202080B504480068000603D0FFF775
:100ED0004FFD00F08FFF80BD2010864080B5084890
:100EE000006800060BD098480078012805D1954885
:100EF0000078002801D100F0F1FD00F013FD80BD65
:100F00002050084070B582B0834C2078022828D049
:100F1000012808D000283ED1012020707F48002100
:100F2000018002B070BD7F20C00500907E487F4ADE
:100F300000210B4600F0F8FE7A4818490160774D11
:100F40002888002808D17A4EFFF7BEFC306800F0F0
:100F500003FD28880028F7D02078401C207002B0BC
:100F600070BDFFF79FFF00F0D1FE642000F06AFD26
:100F70006A48018800290ED0724900220A7070491F
:100F80000A7071490A700280664802602270192056
:100F9000000100F057FD02B070BDC0460000AF4335
:100FA000F0B581B05C480078052800D99CE0C046C7
:100FB0007844007940008744024C192C076957484F
:100FC000002101800124A2E0FFF76CFF7D2080005A
:100FD00000F038FD53485D490160504C20880028DE
:100FE00050D0FFF771FC00F02BFFF7E7FFF75AFF37
:100FF0007D208000643800F025FD4A485349016097
:10100000464C208800283DD0FFF75EFC00F018FF1A
:10101000F7E7FFF747FF7F20C00500904248434AAB
:1010200000210B4600F080FE7D20800000F00AFDCC
:101030003C4847490160394C2088002822D13C4D6A
:10104000FFF742FC286800F087FC20880028F7D0D2
:1010500018E07F20C00500903348344A00210B4639
:1010600000F062FE2F483A4901602C4C208800288D
:1010700008D12F4DFFF728FC286800F06DFC208870
:101080000028F7D024490878441C41E0FFF70AFF04
:1010900000F03CFE642000F0D5FC204800880028C9
:1010A00002D11F48012101701E48002404607F20E6
:1010B000C00500901C481D4A2146234600F034FE1E
:1010C0001748007800280FD0194D1A4F1A4E28687B
:1010D00000F042FC3888401C388000B2B04205DA8B
:1010E0000F4800780028F2D101B0F0BD00F00EFEEC
:1010F0003C80124804800A4804701148047011486A
:1011000004701148047005480480064804600249D0
:101110000C7001B0F0BDC0461403202098002020C0
:101120001003202000012020C400202000002041C6
:10113000F800202012032020A92F0000FC0020200E
:10114000B80020200D012020D5022020000091436E
:101150000000A543F0B583B0ED480078052800D91C
:10116000FEE0C046784400794000874402782A5A5D
:101170000FCA012080070090E448E34A002421467A
:10118000234600F0D1FDE34804809BE1FFF78AFE8F
:1011900000F0BCFD642000F055FCE0480021016037
:1011A000DF480090DF48E04A02910B4600F0BCFDAA
:1011B000D8480088002800D1D4E0D7480121017028
:1011C000D4E0FFF76FFE00F0A1FD642000F03AFCD0
:1011D000D0480088002802D0CF4801210170D048B3
:1011E0000090D048D04A00242146234600F09CFDC0
:1011F000CA4802940460C84F3878002800D14FE1F3
:10120000CA4ECB4DCB4C286800F0A6FB2088401C72
:10121000208000B2B04200DD3DE138780028F2D1F4
:101220003EE1FFF73FFE00F071FD642000F00AFC94
:10123000BB480090BB48BC4A00242146234600F02E
:1012400073FDB448008800280294B44800D1B4E08B
:101250000460B1480078002800D0B2E0C7E07F20E9
:10126000C0050090AF48BA4A00242146234600F04A
:101270005BFDB2480460A949B6480860AE48046006
:10128000AF480460AF480460B74D2868214601F0BC
:1012900019F8002817D1B54EB14F306800F05CFB4B
:1012A00000F0F4FBA548006838402C68214600F0A7
:1012B000F1FF002807D1A04800683840214600F01F
:1012C000F4FF0028E9D100F021FD4B20800000F060
:1012D000B9FBA44891490860FF208005009091481F
:1012E0009B4A00210B4600F01FFD8A4C20880028F5
:1012F00000D0E5E0FFF7E8FA0320800700F02CFBC0
:10130000F4E7FFF7CFFD00F001FD642000F09AFB49
:1013100080480088002802D17F48012101707F4861
:10132000002404607E4800907E487F4A2146234680
:1013300000F0FAFC78480078002811D07B4F7C4EF2
:101340007C4D9637306800F007FB2888401C2880C9
:1013500000B2B84200DDBBE06F4800780028F1D150
:1013600003B0F0BD6C480078002815D06F4F704D69
:10137000704C694E286800F0EFFA2088401C2080ED
:1013800000B2B84203DC30780028F3D104E00299BF
:1013900021806D48018031704B20800000F052FBAD
:1013A0006A485E4908605B4C2088002800D187E0CD
:1013B000FFF78AFA00F0D4FDF6E7046056480121F1
:1013C00001705A4E5A4C5B4F534D206800F0C4FADE
:1013D0003888401C388000B2B04203DC28780028EE
:1013E000F3D104E0029939805748018029704B20DD
:1013F0008000019000F026FB7F20C0050090494846
:10140000534A029C2146234600F08EFC4B48046060
:1014100042495048086048480460494804604948C7
:1014200004604D4F3868214600F04CFF002817D16A
:101430004A4E4B4D306800F08FFA00F027FB3F48D2
:10144000006828403C68214600F024FF002807D1AE
:10145000394800682840214600F027FF0028E9D1DC
:1014600000F054FC019800F0EDFA3E482B4908606A
:101470000120840700942B48354A00210B4600F0D8
:1014800053FC244D288800281AD1FFF71DFA204666
:1014900000F062FAF6E7029921802B48018039704A
:1014A0004B20800000F0CEFA28481C490860194CF7
:1014B0002088002804D0FFF707FA00F051FDF7E775
:1014C00000F024FCF4490878441C0C7003B0F0BD13
:1014D00000F01CFC184804601848046018480460B8
:1014E00018480460184804802C80F5480470ED48C2
:1014F0000470ED480470ED480470ED480480E8483D
:101500000460E549E1E7C0466666C640DC0220208B
:101510001403202098002020100320200001202008
:1015200000004040C40020200000E040E02E000009
:10153000F800202012032020080120200401202090
:10154000880020208C002020FC0020200000824306
:101550000000A0400000AF43180020200800202019
:10156000FFFFFF7F00003E431400202004002020E6
:10157000F0B583B0C84D2878052800D989E1C04668
:10158000784400794000874402601F480B82CC48B1
:1015900001210170C64800220280297003B0F0BD0D
:1015A000BF4800210160CE480090C748C74A029159
:1015B0000B4600F0B9FBBE4D2888002800D182E020
:1015C000BF480121017082E0B9480088002802D09C
:1015D000BB4801210170C2480090BB48BB4A0024AF
:1015E0002146234600F0A0FBAD4802940460B44EAF
:1015F0003078002800D1FEE0B54CB94DB54F2846F3
:1016000000F0AAF93888401C388000B2A04200DD02
:10161000ECE030780028F2D1EDE0642000F012FA1E
:10162000AF480090A848A94A00242146234600F06C
:101630007BFB9F4800880028029499486CD0046086
:101640009F48007800286BD180E0A5480090F148C1
:101650009E4A00242146234600F066FBF34802948C
:101660000460974F3878002800D1D8E0984E9F4DFD
:10167000984C284600F070F92088401C208000B269
:10168000B04200DDC6E038780028F2D1C7E064201F
:1016900000F0D8F9814C2178481C2070002972D0C4
:1016A000C0B203287CD900F031FBE0480021016082
:1016B00021702970D94801707B4801707B48017006
:1016C0007B480180E2E07E480078002815D0804CFD
:1016D000804F7B4E0320800700F03EF93888401C85
:1016E000388000B2A04203DC30780028F2D104E058
:1016F00002993980784801803170C82000F0A2F941
:101700007848CA4908602888002800D19FE0FFF780
:10171000DBF800F095FBF6E70460694801210170F1
:101720006B4F664C6B4D664E206800F015F92888AB
:10173000401C288000B2B84203DC30780028F3D186
:1017400004E002992980644801803170C82000F0CB
:1017500079F97F20C0050090AE48634A00210B460E
:1017600000F0E2FAB1485D490160514D2888002837
:101770006DD1524CFFF7A8F8206800F0EDF82888EA
:101780000028F7D063E04B4D28684B4C214600F011
:10179000A5FD2860494D2868214600F09FFD28607E
:1017A00043480088002802D14548012101709F4824
:1017B00000210160434800909648444A02910B463C
:1017C00000F0B2FA3E4F3878002859D0404D394CDD
:1017D000404E206800F0C0F83088401C308000B2D5
:1017E000A8423EDC38780028F3D149E002993980DC
:1017F000394801803170C82000F024F939488B49FC
:1018000008602B4C2088002821D0FFF75DF800F0FD
:1018100017FBF7E7029921802F48018039702F4884
:1018200082490860324800907A48324A00210B46CB
:1018300000F07AFA1E4C2088002808D11D4DFFF7D1
:1018400043F8286800F088F820880028F7D0FFF7D0
:1018500029FB00F05BFA72490878401C087003B05D
:10186000F0BD00F053FA9848029901609448016075
:1018700092480160934801601748018031803970B7
:1018800016486A490860012065490870962000F0F2
:10189000D9F803B0F0BDC04614032020B9002020C1
:1018A00000012020B80020200D012020D50220209A
:1018B000980020200C002020000080BF1000202075
:1018C0001003202000002040C40020200000E04041
:1018D000E02E000012032020FC0020200000C34363
:1018E0000000404000008F430000A040000010C2F4
:1018F0009A99993F6666A64080B507480068C0B2CD
:101900000B2807D105480068C0B200F017F9044859
:101910000121017080BDC0462030104024311040AC
:10192000D4022020B0B5094C207800280DD0084DF5
:101930002888401C288080B20C2806D3FEF70CFEB5
:10194000FFF79EF8002020702880B0BDB500202051
:10195000B60020207047000070B52E4C2060B748BC
:101960000068FEF7DFFC2C490860E64A1278022A7C
:1019700004D178280EDDB322D24310E0D21E012A12
:101980000FD8274A1278531E012B38D87D28F2DC55
:101990007C2200E07722D243904202DAB42210186F
:1019A0000860FEF721FD6060204600F0C4F9E56A9A
:1019B0001C4E2846314600F062FC002800D12E461D
:1019C000002805D11849304600F064FC002808D1F1
:1019D000154D3046294600F068FC002800D13546F8
:1019E000E562124E3068294600F06AFDFFF762F8A2
:1019F0003068E16A00F072FCFFF77AF870BDD21E21
:101A0000012ACED84628B6DC4622D2439042C5DD14
:101A1000C7E7C046C4002020C0002020B800202016
:101A2000140320200000C8430000C8C30001202088
:101A300080B5FFF7EFF901208003F9490860F94903
:101A4000086080BDB0B57D21090241430E4803689E
:101A5000262206E0E41A051F2D686419A2188A429E
:101A600010D21C460368A34208D10368A34205D1E3
:101A70000368A34202D10368A342F3D09C42E9D990
:101A8000E41AEBE7B0BDC04618E000E010B50A4824
:101A900004680A480168204600F0BAFC084908605A
:101AA0000120C007074909684140204600F0B0FC0A
:101AB0000549086010BDC046000020208800202095
:101AC000040120208C00202008012020DA48022177
:101AD00001600160D948016001607047F0B581B0D4
:101AE000FEF7D4FF32242046FFF7ACFFFEF7C8FF15
:101AF000FEF7DAFF514F3D682046FFF7A3FF3E682F
:101B00002046FFF79FFF804801210170284631469B
:101B100000F0E4FB396800F0E1FB0649FEF752FBF8
:101B200005490860FEF7B8FF2046FFF78BFF01B0BC
:101B3000F0BDC04600004040F8002020F0B583B062
:101B4000384E317800290BD03178012914D153282F
:101B500066D135480078354953220A54022707E0F8
:101B600055285DD130480078304955220A54012764
:101B70002D480770377053E03178022950D12A4A36
:101B800013782A49C854581C1070C0B20B2847D18A
:101B900008784A7810188D782818CC782218087997
:101BA00083184A79D3188F790297FB18CF79019758
:101BB000FB180F7AFB184F7AFB18DBB2897A0027E3
:101BC0008B42D5D11102081800B2FEF70DFC072197
:101BD000C906009100F01CFC154900F019FC1549DC
:101BE00008602002401900B2FEF7FEFB009C21466F
:101BF00000F00EFC0E4D294600F00AFC0E4908606C
:101C0000019800020299401800B2FEF7EDFB214650
:101C100000F0FEFB294600F0FBFB08490860A7E73F
:101C200003B0F0BDB4002020B3002020A800202085
:101C3000000034439C002020A4002020BC00202071
:101C400082B0FFF7F5FEFFF741FF00F0E1F800F08A
:101C5000EBF8FF20800500902548264A00210191DD
:101C60000B4600F061F8244D244E254F254CFEF71D
:101C7000CDFE2870FEF7E6FE30703978002908D0D6
:101C8000012818D1FEF710FF01203870012815D067
:101C9000EDE72878012805D1FEF7F8FE2078401CF2
:101CA000207000E02078C0B2052801D30198207090
:101CB00030780128E6D038780128D8D11248007849
:101CC0000128D4D12078401E0328D0D87844007948
:101CD00040008744040A0107FFF73CFAC7E7FFF713
:101CE00011F9C4E7FFF744FCC1E7FFF759F9BEE774
:101CF000DC0220209A999940900020209100202019
:101D0000D5022020B80020200D01202001208104D0
:101D1000044A1160C10411600105116000061060E1
:101D20007047C04690320A4010B5029C4261836100
:101D3000C461016310BDF0B583B0044600686168FA
:101D400000F0BEFB0546A060206B00282DD00128C6
:101D50004BD1A169284600F05BFB0290A062E668C7
:101D60002846314600F0ACFB0146606900F050FBAC
:101D7000019020623046314600F0B0FA0146284614
:101D800000F09EFB216900F0A9FA0146E06900F02D
:101D90003FFB074660620198029900F09FFA3946BE
:101DA00000F09CFA0146E06A1BE06169284600F0F9
:101DB0002FFB02902062A169284600F029FB0190C8
:101DC000A062E6682846314600F07AFB0146E069E9
:101DD00000F01EFB074660620298019900F07EFA4F
:101DE000394600F07BFAE06200E0E668E5602661D3
:101DF00003B0F0BD80B50448C06AFEF75BFE03483F
:101E0000C06AFEF775FE80BD6C022020A002202073
:101E10000120800408490860084908607047C046EE
:101E200080E200E000E100E00120000402490860D7
:101E3000024908607047C04680E200E000E100E02F
:101E4000F0B581B08B480078012801D1394C2BE0E6
:101E500087480078012801D1374C25E08348007875
:101E6000012801D1354C1FE07F480078012801D1BD
:101E7000334C19E07A480078012802D17F20C4054C
:101E800012E076480078012801D12E4C0CE072480F
:101E90000078012801D12C4C06E06E48007801281A
:101EA00001D0002400E0294C294801680460204644
:101EB00000F006FB01462748006800F0A9FA054635
:101EC00025480068214600F0A3FA294600F006FAEA
:101ED00001466C4807683846009100F0F1FA054663
:101EE0000026314600F0EEF90028344600D12C4699
:101EF0001A4D2046294600F0CDF90028284600D189
:101F00002046FEF7D7FD3846009900F0E7F9044671
:101F1000314600F0D7F9002800D126463046294640
:101F200000F0B8F9002800D135462846FEF7E0FD5C
:101F300001B0F0BD333383C0CDCC4CC0333313C0BC
:101F4000000080BF33331340CDCC4C40333383404B
:101F5000D8022020200020202400202000007A44E5
:101F6000F0B583B000203949085EFEF73DFA3849E4
:101F700008603848017802911A204843364A11789F
:101F8000019116234B431818344B197800911425EE
:101F90004D434019324D2D7812266E438719314C2E
:101FA00020460830304E367870433918A01D2F4F28
:101FB0003F7878430818211D2D4A12785143401864
:101FC0002C4909784C43001900B2029C019B1C1952
:101FD000009BE3185B199B19DB191D4F9A185118C8
:101FE00009B200F073F82449087040B2FEF7FCF91A
:101FF00078603846FFF79FFEFD6A204E284631463E
:1020000000F03DF9002800D12E46002805D11C49DA
:10201000304600F03FF9002808D1194D30462946D6
:1020200000F043F9002800D13546FD62154C2068C8
:10203000294600F045FAFEF73DFD2068F96A00F0F8
:102040004DF9FEF755FD03B0F0BDC046D602202085
:10205000DC022020950020209400202093002020E6
:1020600092002020E6FF0000A0002020A1002020F8
:10207000A2002020A30020200C01202000004844C2
:10208000000048C40001202043088B421AD30022DC
:1020900003098B4279D3030A8B425ED3030B8B4235
:1020A00042D3030C8B4227D30902FF2212BA030C3E
:1020B0008B4202D31212090203D0030B8B4233D39B
:1020C0001AE0D3E0411A8041401C704703460B439D
:1020D00071D443088B42F5D3002203098B4254D3B9
:1020E000030A8B4239D3030B8B421DD3030C8B4263
:1020F00002D394466EE0090AC30B8B4201D3CB0393
:10210000C01A5241830B8B4201D38B03C01A524138
:10211000430B8B4201D34B03C01A5241030B8B423A
:1021200001D30B03C01A5241C30A8B4201D3CB0225
:10213000C01A5241830A8B4201D38B02C01A52410A
:10214000430A8B4201D34B02C01A5241030A8B420D
:1021500001D30B02C01A5241CDD2C3098B4201D325
:10216000CB01C01A524183098B4201D38B01C01AA3
:10217000524143098B4201D34B01C01A524103091A
:102180008B4201D30B01C01A5241C3088B4201D3C9
:10219000CB00C01A524183088B4201D38B00C01A76
:1021A000524143088B4201D34B00C01A5241411A9D
:1021B000524110007047CA0F00D04942031000D3AB
:1021C0004042534000229C4603098B422DD3030A10
:1021D0008B4212D38901FC2212BA030A8B420CD320
:1021E000890192118B4208D3890192118B4204D349
:1021F000890137D0921100E08909C3098B4201D3CC
:10220000CB01C01A524183098B4201D38B01C01A02
:10221000524143098B4201D34B01C01A5241030979
:102220008B4201D30B01C01A5241C3088B4201D328
:10223000CB00C01A524183088B4201D38B00C01AD5
:102240005241D9D243088B4201D34B00C01A5241AC
:10225000411A00D201465241104663465B1000D33A
:102260004042704763465B1000D3404201B50021F5
:10227000004201D0C9430846C046C04602BD10B561
:1022800000F072F8EFF30080800001D5012010BD4E
:10229000002010BD10B500F067F8EFF3008040009B
:1022A000800F012800D0002010BD10B500F086F886
:1022B000EFF300804000800F012801D0012010BD05
:1022C000002010BD10B500F079F8EFF30080800019
:1022D00001D4012010BD002010BD000070B5012503
:1022E000ED0704004C4020D4441A01D2001B091908
:1022F000C60D4B00F2B2FF2A29D01B0E2CD00002D3
:102300000C0228432C43D31ADC40051910D2280AAA
:1023100002D3401C6D0611D0761EF6058019FF2AE7
:1023200000DA70BDC00DC00570BD694000F0CEF888
:1023300001200543C541521C761CE8E764089C4017
:10234000C90161408900E7D10124A043E4E71B0EE5
:10235000440200D0034870BD002AFCD1C00FC00762
:1023600070BD00BF0000C07F0123DB0502000A43EF
:102370000DD4DA4203D49A4207D488427047D84237
:1023800014D4D94212D48842704780427047DA424E
:1023900003D59A42F9D5814270475B004200DA4288
:1023A00004D24A00DA4201D28142704710B5024A93
:1023B000FEF726F810BD00BF090013040123DB055A
:1023C00002000A430DD4DA4203D49A4207D4884269
:1023D0007047D84214D4D94212D488427047804200
:1023E0007047DA4203D59A42F9D5814270475B00C3
:1023F0004200DA4204D24A00DA4201D281427047F6
:1024000010B5024AFDF7FCFF10BD00BF090016041D
:1024100070B5420064414B005C41120E39D01B0E76
:1024200038D0FF2A3CD0FF2B3AD0D2187F3A400256
:102430004902400A490A4518ED0106004E43000AC8
:10244000090A48430104731A4019190C4318990FDB
:1024500004D05B08012149075B1A521CD80904D338
:10246000401CF50301D19D0607D0FF2A08D2D505EF
:1024700006D0E4072043401970BD0125A843F4E7C6
:10248000002A01DCE00770BD2402FF202043C005C4
:1024900070BD1B0EFF2A03D0FF2B01D0E00770BDDB
:1024A000FF2636064500B54206D84D00B54203D892
:1024B000D218FF2A00D0E7E7004870BD0000C07FB7
:1024C00070B50125ED0704004C4022D4441A02D215
:1024D0006C40001B0919C60D4B00F2B2FF2A4BD00D
:1024E0001B0E50D000020C02A8432C43D31ADC4030
:1024F000051B05D5AD0019D36D08761E521E37D0C9
:10250000F605280A01D2801970BD70416D0603D00E
:1025100070BD6940FFF7E8FE9C4009026140490038
:1025200001D0401E70BD0124A04370BD6D081DD0B8
:1025300001202B0C01D12D0410302B0E01D12D02C6
:1025400008302B0F01D12D01001DAB0F01D1AD00C3
:10255000801CEB0F01D16D00401C361A121A6D0061
:10256000680AF5054019012A02DB70BD002070BD24
:10257000C036300AC00770BD1B0E440201D1FF2BCC
:1025800000D1024870BD002AF0D070BD0000C07FAD
:102590008182838485868788898B8C8D8E8F9192AA
:1025A00093959697999A9C9D9FA0A2A3A5A7A8AA48
:1025B000ACAEB0B2B3B5B7B9BCBEC0C2C5C7C9CC6A
:1025C000CED1D4D7D9DCDFE2E6E9ECF0F3F7FAFEBE
:1025D00008070300E803000020000100080763006B
:1025E00002000000170100000100000000000000D0
:1025F000000000000807630002000000170100004F
:1026000001000000000000000000000008000000C1
:1026100018000000003000003826000000002020D4
:102620002800000020010000602600002800202073
:10263000F016000048010000840D8F3E000024C207
:1026400000003442000010C20000244200409944BF
:1026500000E0934401010000B81E853E00004042A6
:04000005000000C136
:00000001FF
