:020000040000FA
:10000000001720208D0100009101000093010000E5
:1000100000000000000000000000000000000000E0
:10002000000000000000000000000000950100003A
:10003000000000000000000097010000990100008E
:100040009B010000010800009B0100009B010000D3
:100050009B0100009B0100009B0100009B01000030
:10006000000000009B0100009B0100000000000058
:10007000000000009B010000811900009B010000AE
:100080009D0E00009B010000850E00009B010000FA
:100090009B0100009B010000000000000000000028
:1000A0009B0100009B010000000000000000000018
:1000B0009B010000000000009B0100009B0100006C
:1000C00000F002F800F052F812A030C808382418E6
:1000D0002D18AC4201D100F049F80FCCA246AB4636
:1000E0000CA730CF2D1B083F3F197C427F1E544484
:1000F0002D090426F441641EAC4201D300F036F809
:100100000126334200D0FB1A3343984754465D46DC
:10011000DFE70000642400008424000000000000E9
:10012000103A02D378C878C1FAD8520701D330C840
:1001300030C101D504680C60704700000000000069
:100140007047000000000000002300240025002666
:10015000103A01D378C1FBD8520700D330C100D583
:100160000B6070471FB51FBD10B510BD00F07AF9C8
:100170001146FFF7F7FF01F0ADFD00F092F903B46F
:10018000FFF7F2FF03BC01F029FC0000064800471E
:10019000FEE7FEE7FEE7FEE7FEE7FEE70348044969
:1001A000044A054B70470000C100000000032020F6
:1001B00000172020001320200013202070477047D4
:1001C00070470000F0B5FF252D04C609C209FF27BE
:1001D00004462E400137CB093E4348402A402B407D
:1001E0000746002A6BD0002B69D0AA4267D0AB42E9
:1001F00065D0002800DA32460125ED0529432C435D
:1002000009022002090AD21A4B0C7F24E31A434C3C
:10021000000A7C44E35C7D242404121914145B005E
:10022000A218884201D3521C00E0400049420C460B
:100230005C4324115C43DB016415E318040A5C434E
:10024000C502200D0C4644436419250A5D4323036F
:10025000EC0C0D46654300030019EB184C42A34219
:1002600001D35B18401CD4052018002B07D05B007D
:10027000C91804D3401C002901D1400840003F2187
:1002800089048A4209D3002A08DC1106090F04D028
:10029000032149074018C00FC007F0BD01224100EB
:1002A000120689187F2252069142F6D2052149078B
:1002B000C84201D59010F0BDFF20C005F0BD002F51
:1002C00000DA32461648AA4207D2AB4205D21902DA
:1002D000090E17D0F80FC007F0BDFF2563002D06EB
:1002E000AB42F9D84900A942F6D8AB4201D1A942A4
:1002F000F2D0A94201D1002101E061004908D005F6
:100300000843F0BD1102090EFBD0FF200243D005C7
:10031000F0BD0A460146104654E70000D622000010
:100320000000C07F10B501469E240002CA15A30735
:10033000002A02D01843002A04DBA21A002A0CDD8E
:10034000D04010BD1206120E01D140004008A21A82
:1003500003D4D04040420028F3DDFF2248001206BB
:10036000904201D9002010BDC817C043584010BDAD
:100370000102C21504D00123DB071943002A0ADB5E
:100380009E239A1A02D40846D0407047FF224100AB
:100390001206914201D900207047C017C043704730
:1003A0001F22030C02D10F2200041CD0030E01D126
:1003B0000002083A030F01D10001121F830F01D17F
:1003C0008000921E002801DB4000521ED205511809
:1003D000021251181922904004D3491C002801D15F
:1003E0004908490008467047C10FC90700D040427C
:1003F000012292071143D3E701218907D0E70000CA
:1004000010B5FF231B0644009C421DD84C009C42A3
:100410001AD80346124A0B4307D4401A02D3EFF30B
:10042000008010BDEFF3008010BD081A03D3EFF376
:100430000080904305E0EFF3008001219043C9075D
:10044000084380F3008810BD0D231B041A4204D01A
:100450001146002000F02DF810BD00F041F810BD4D
:1004600000000090754600F043F8AE46050069466E
:100470005346C008C000854618B020B5FFF78EFE71
:1004800060BCB64600260027C0C5C0C5C0C5C0C5F3
:10049000C0C5C0C5C0C5C0C5403D490849008D465E
:1004A000704710B50446C046C0462046FFF767FEB9
:1004B00010BDC80212D54803400F002804D0C8035D
:1004C000C043012188407047EFF30080000100091C
:1004D00003210907084380F3008870470020704714
:1004E00010B5024800F008F810BD00000000C07F01
:1004F000004870471000202010B50C461107090F66
:10050000092904D00A290AD008290CD104E011468F
:100510000820FFF7CEFF06E0510606D501E05106A0
:1005200001D50120C007214610BDD10607D5010124
:100530000909CC084907000E0006044309E0410FF1
:1005400020024907000A0143200E00061D22D14166
:1005500001430846E7E700000120C00501490860A3
:100560007047C04690120A400120C005014908604A
:100570007047C046A0120A40811E091F00BFFCD26E
:1005800070470000F0B584B06B4A82180292734B3A
:10059000C618784BC21800922A4BC4180A790191E8
:1005A0000D68294F202A03920AD0254BC018002A33
:1005B00017D16B1E029A536023683B40882517E0D1
:1005C000681E029A506020683840204B1843206013
:1005D0006068384018436060012045071C4F104692
:1005E00008E06B08029A536023683B400525ED0143
:1005F0002B432360009903683B402B430360306822
:100600004F4B1840306070681840706000200860E0
:1006100048608F20C043236903402361636903401E
:1006200063610198807903990843BD2101401068F6
:10063000084B0340C818801C106004B0F0BDC046D1
:10064000741800007018000024F93FF00104000045
:10065000FFFFFFCF4000FFCF70B5374A82184B68CD
:1006600053603E4BC3180878222857D8840001A550
:100670002C59A746130700001D07000013070000B0
:100680001D0700001D0700001D0700001D070000DA
:100690001D0700001D0700001D0700001D070000CA
:1006A0001D0700001D0700001D0700001D070000BA
:1006B0001D070000010700001D07000001070000E2
:1006C0001D0700001D0700001D0700001D0700009A
:1006D0001D0700001D0700001D0700001D0700008A
:1006E0001D0700001D0700001D0700001D0700007A
:1006F0001D070000010700001D07000001070000A2
:10070000032424071568A543012464072C191460E9
:1007100004E0032424071568A54315600C69D46020
:10072000CC68064D25401C68054E264074191C6097
:10073000097A0143116070BD041800007777020048
:100740008888FDFF10B507239B041940920080188C
:10075000024A84589C436118815010BD3018000033
:1007600010B5029CA400001911431943014A81509D
:1007700010BDC0465018000092008018014A8150F8
:100780007047C0461018000010B5012212038318EC
:100790000C789C604B7883508978014A815010BD59
:1007A0000C110000B0B51122120283580124A3439A
:1007B00083508B780C881C438B882343094C1C4046
:1007C0008358094D1D402B1983508B79CC791C43DC
:1007D000097A21437E231940801842689A435118B0
:1007E0004160B0BD18670000E798FDFF10B5012219
:1007F000120383180C789C604978815010BD00006A
:10080000F0B581B0032001022A4D28461038006857
:100810000840410A01246702274A103A1668002955
:1008200007D100281ED08648006838420ED02349E0
:100830000EE083480068C00502D57F20C10500E0B6
:100840001E491F48006801F0F7FC06E07F20C10543
:100850001B48006801F0F0FC27021949086028686D
:1008600038432860300607D4700620D55648006803
:1008700000060FD511490FE053480068400602D525
:100880007F20C10500E00D490E48006801F0D4FC4E
:10089000802106E07F20C1050A48006801F0CCFCF9
:1008A0004021084A1060044A10680843106001B0F3
:1008B000F0BDC04648100A4048300A40000080BFE2
:1008C000700020207400202010B522480188491CA7
:1008D0000180384A1278521E53425341344A1278EA
:1008E000521E544254411C43334A1278521E534202
:1008F00053412343314A1278521E544254411C43FF
:100900002F4A1278521E5342534123432D4A1278E4
:10091000521E544254411C432C4A1278521E5342D8
:1009200053412343DA070BD00B4A13885B1C138017
:100930001BB2062B04DB094801210180054905E0B3
:1009400009B2074A914204DB0449024600201080A4
:10095000088010BDE40020207E00202080002020A0
:100960003011000036480168C904C90F104A1170DF
:1009700001688904C90F0F4A117001680904C90F81
:100980000D4A11700168C903C90F0C4A1170016842
:100990008903C90F0A4A117000684003C00F094952
:1009A000087009480068C005C00F08490870704702
:1009B0008A0020208900202088002020820020201A
:1009C0007A0020207B00202080330A407C002020F9
:1009D00010B51B4C2068400713D4282001F076F88E
:1009E0002068400708D42068400705D420684007E5
:1009F00002D420684007F3D5282001F067F80120D1
:100A000010BD002010BDC04610B50D4C2068002858
:100A100013D4282001F05AF82068002808D4206850
:100A2000002805D42068002802D420680028F3D5C7
:100A3000282001F04BF8012010BD002010BDC04659
:100A400080130A4001208006074908607047C046AD
:100A5000012080065C4908607047C0460120C0063E
:100A6000014908607047C046A0120A400120C00634
:100A7000554908607047C04670B50D490B781C4950
:100A80000A461032012B154600D00D460124A6045B
:100A90002E60012B00D01146E2040A60FFF768FCCB
:100AA000014620316B480022FFF766FE70BDC0464C
:100AB0000C00202070B50D490B780D490A46103204
:100AC000012B154600D00D46012426052E60012B72
:100AD00000D0114622060A60FFF74AFC0146203189
:100AE0005C482246FFF748FE70BDC0460D0020203E
:100AF00090320A40B0B52D4987224A622C4804231F
:100B000003608A62082202602A4A822313622A4B07
:100B100053628124D463294BCB64294D5565946578
:100B2000284D4D600D609461D461946294638B6331
:100B30004B638B644B640B674B67CB6713605360ED
:100B4000936003229106204B19610121C9051960A8
:100B50001921C905196405210B041C4C25681D4386
:100B600025601B4B1C68302525431D6094075D687C
:100B700025435D601202174B1C6A14431C621C68FB
:100B800014431C600246403A47239B0413600360F1
:100B9000080311490A6802430A601048016AC0222A
:100BA00011430162016811430160B0BD18804240E9
:100BB000D0320A40988042408200040081000C003C
:100BC0008100010081000E0090120A4090130A403B
:100BD00008150A4028100A4090330A4028300A407D
:100BE00070B582B01B4C1C492046FFF7CDFD1B4958
:100BF0002046FFF7C7FC1A4801681A4A0A400260FB
:100C000000250095204629462A462B46FFF7A8FDD9
:100C1000204629462A46FFF795FD204629462A46C2
:100C2000FFF7AAFD01260096204629462A462B46B4
:100C3000FFF796FD204629463246FFF783FD204602
:100C400029463246FFF798FD074886600321016078
:100C500002B070BD008086402C25000030250000C9
:100C6000049886407F00FFFF009186400F480021D6
:100C700001600320C1430E480246083A13680B4046
:100C800013600168012291430160110203688B43E4
:100C900003601103001F02680A430260FF20000284
:100CA00004490A6882430A607047C04608030B4043
:100CB00008010B4000E400E00548042101601F2109
:100CC000416000218160016805220A43026070478B
:100CD00010E000E010B50B4C0B492046FFF754FD27
:100CE0000A492046FFF7B8FC094801680122114370
:100CF0000160FF20000419490B6883430B6005481D
:100D0000026010BD00008640382500003C25000030
:100D1000281086400811864010B50C4C0C4920461E
:100D2000FFF732FD0B492046FFF796FC0A480168A1
:100D300002220A4302600948016840220A43BF2197
:100D40008A43026006480121016010BD004008404E
:100D500050250000542500002850084010E400E011
:100D60000851084010B5154C15492046FFF73EFDC7
:100D700014492046FFF716FD0320C10312480268FC
:100D80008A4302600169114A0A40113202614169D5
:100D900017220A4328218A434261416801221140F7
:100DA00043689343591841609102094B1C680C43F6
:100DB0001C6001681143016010BDC0460020104056
:100DC000682500006A250000003110400000FFFF88
:100DD0002830104080B500F01BF8FFF78BFEFFF7BE
:100DE00045FFFFF7FDFEFFF775FFFFF795FFFFF7E4
:100DF000B9FFFFF761FFB820034900220A549C2085
:100E000002490A5480BDC04698012020F8002020E5
:100E100070B50C480C4941600C4A51600C4B59604C
:100E20000C4C61600C4D69600C4E71600C490160A6
:100E3000116019602160296031601020FFF79CFB70
:100E400070BDC04600080A40030000B100280A40F7
:100E5000008886400008864000480840002810406E
:100E60000100002610B5064C2078002800D010BDE7
:100E7000FFF77AFBFFF7ECFD0120207010BDC046A4
:100E80009D00202080B504480068000603D0FFF7CD
:100E900069FD01F007F880BD2010864080B5084844
:100EA000006800060BD098480078012805D19548C5
:100EB0000078002801D100F059FE00F077FD80BDD8
:100EC0002050084070B582B0824C2078022828D08B
:100ED000012808D000283ED1012020707E48002142
:100EE000018002B070BD8A480090412002067E4811
:100EF00000210B4600F070FF794818490160764DDB
:100F00002888002808D17A4EFFF7DEFC306800F010
:100F100067FD28880028F7D02078401C207002B098
:100F200070BDFFF79FFF00F049FF642000F0CEFD89
:100F30006948018800290ED0724900220A70704960
:100F40000A7071490A700280654802602270192097
:100F5000000100F0BBFD02B070BDC046000096432A
:100F6000F0B581B05B480078052800D99BE0C04609
:100F70007844007940008744024C192C0769564890
:100F8000002101800124A1E0FFF76CFF7D2080009B
:100F900000F09CFD52485D4901604F4C20880028BC
:100FA00050D0FFF791FC00F09FFFF7E7FFF75AFFE3
:100FB0007D208000643800F089FD49485349016074
:100FC000454C208800283DD0FFF77EFC00F08CFFC8
:100FD000F7E7FFF747FF4E480090412002064248DE
:100FE00000210B4600F0F8FE7D20800000F06EFD31
:100FF0003B4848490160384C2088002822D13C4DAC
:10100000FFF762FC286800F0EBFC20880028F7D08E
:1010100018E03F48009041200206334800210B466B
:1010200000F0DAFE2E483C4901602B4C2088002855
:1010300008D12F4DFFF748FC286800F0D1FC20882C
:101040000028F7D023490878441C40E0FFF70AFF46
:1010500000F0B4FE642000F039FD1F48008800282D
:1010600002D11E48012101701D48002404601D4862
:1010700000901D481D4A2146234600F0ADFE17484A
:10108000007800280FD01A4D1A4F1B4E286800F028
:10109000A7FC3888401C388000B2B04205DA0F48FF
:1010A00000780028F2D101B0F0BD00F087FE3C804E
:1010B00012480480094804701148047011480470F3
:1010C000114804700448048005480460FE490C700F
:1010D00001B0F0BDF802202080002020F402202082
:1010E000E800202000002040AC0020200000E0406C
:1010F000E0002020F6022020C12B0000E400202088
:10110000A0002020F5002020BD02202000009143F7
:1011100000000C420000A04300009B43F0B583B0E8
:10112000E9480078052800D9F9E0C04678440079FC
:10113000400087440270225207C5E4480021018024
:101140000124BDE1FFF78EFE00F038FE642000F0C0
:10115000BDFCE04800210160ED480090DF48E04A16
:1011600002910B4600F038FED8480088002800D1D4
:10117000D7E0D74801210170D7E0FFF773FE00F0F8
:101180001DFE642000F0A2FCD0480088002802D098
:10119000CF4801210170DE480090D048D04A002499
:1011A0002146234600F018FECA4802940460C84F46
:1011B0003878002800D15AE1CA4ECB4DCB4C286874
:1011C00000F00EFC2088401C208000B2B04200DD00
:1011D00048E138780028F2D149E1FFF743FE00F0FA
:1011E000EDFD642000F072FCC9480090BB48BC4A89
:1011F00000242146234600F0EFFDB4480088002873
:101200000294B44800D1B6E00460B14800780028E8
:1012100000D0B4E0C9E07F20C0050090AF48BE4ACE
:1012200000242146234600F0D7FDB2480460A949B6
:10123000BA480860AE480460AF480460AF48046034
:10124000BB4F3868214600F0EBFF002817D1B94C9E
:10125000B54E204600F0C4FB00F05CFCA5480068D9
:1012600030403D68294600F0C3FF002807D1A04860
:1012700000683040294600F0C6FF0028E9D100F0A0
:101280009DFD4B20800000F021FCA848914908609A
:10129000FF208005009091489F4A00210B4600F0F6
:1012A0009BFD8A4C2088002800D0D5E08E4DFFF7AA
:1012B0000BFB286800F094FB20880028F7D0CBE0D7
:1012C000FFF7D0FD00F07AFD642000F0FFFB7F48BF
:1012D0000088002802D17E48012101707D48002449
:1012E00004607D4800907D487D4A2146234600F0F9
:1012F00073FD77480078002811D07A4E7A4F7B4DE5
:101300009636386800F06CFB2888401C288000B2B4
:10131000B04200DDBBE06E4800780028F1D103B098
:10132000F0BD6B480078002815D06E4E6E4D6F4CA6
:10133000674F286800F054FB2088401C208000B2D2
:10134000B04203DC38780028F3D104E00299218010
:101350006B48018039704B20800000F0B7FB6D486E
:101360005C490860594C2088002875D0FFF7ACFA1A
:1013700000F0BAFDF7E70460554801210170594EAD
:10138000594C5A4F524D206800F02AFB3888401CB7
:10139000388000B2B04203DC28780028F3D104E0A2
:1013A000029939805648018029704B2080000190B5
:1013B00000F08CFB7F20C00500904848564A029CF4
:1013C0002146234600F008FD4A480460414953483D
:1013D0000860474804604848046048480460504D2D
:1013E0002868214600F01CFF002817D14D4C4E4FB5
:1013F000204600F0F5FA00F08DFB3E4800683840CA
:101400002E68314600F0F4FE002807D13848006805
:101410003840314600F0F7FE0028E9D100F0CEFC5C
:10142000019800F053FB41482A49086001208007D9
:1014300000902A48384A00210B4600F0CDFC234D8D
:101440002888002808D1284CFFF73EFA206800F0D1
:10145000C7FA28880028F7D000F0B0FC1A490878AD
:10146000441C2EE0029921802548018039704B20D0
:10147000800000F02BFB274816490860134C208899
:101480000028E9D0FFF720FA00F02EFDF7E700F082
:1014900095FC174804601748046017480460174813
:1014A0000460174804802C800948047015480470B3
:1014B0001548047015480470044804800548046009
:1014C00001490C7003B0F0BDF802202080002020FC
:1014D000F4022020E800202000002040AC00202062
:1014E0000000E040F82A0000E0002020F602202062
:1014F000F0002020EC00202070002020740020202C
:10150000E4002020A0002020F5002020BD022020A3
:101510000000404000008C430000A0400000A043B9
:101520000800202000004842FFFFFF7F00003E43EC
:1015300004002020000038C2F0B583B0F54A1078CE
:10154000052800D9E3E1C04678440079400087448B
:101550000272245409C701201070EF480021018055
:1015600003B0F0BDFFF77EFC00F028FC642000F023
:10157000ADFAEB4800210160F8480090EA48EB4AD8
:1015800002910B4600F028FCE3480088002800D1B7
:10159000D7E0E24801210170D7E0FFF763FC00F0DB
:1015A0000DFC642000F092FADB480088002802D08D
:1015B000DA4801210170E9480090DB48DB4A002449
:1015C0002146234600F008FCD54802940460D34F1E
:1015D0003878002800D15CE1D54ED64DD64C28682D
:1015E00000F0FEF92088401C208000B2B04200DDEF
:1015F0004AE138780028F2D14BE1FFF733FC00F0E4
:10160000DDFB642000F062FAD4480090C648C74A67
:1016100000242146234600F0DFFBBF480088002855
:101620000294BF4800D1B6E00460BC4800780028AE
:1016300000D0B4E0C9E07F20C0050090BA48C94A94
:1016400000242146234600F0C7FBBD480460B4498E
:10165000C0480860B9480460BA480460BA480460E9
:10166000C54F3868214600F0DBFD002817D1C34C78
:10167000BF4E204600F0B4F900F04CFAB0480068C4
:1016800030403D68294600F0B3FD002807D1AB4843
:1016900000683040294600F0B6FD0028E9D100F08E
:1016A0008DFB4B20800000F011FAB2489C49086085
:1016B000FF2080050090F948AA4A00210B4600F05F
:1016C0008BFB954C2088002800D0D5E0994DFFF782
:1016D000FBF8286800F084F920880028F7D0CBE0D8
:1016E000FFF7C0FB00F06AFB642000F0EFF98A48C6
:1016F0000088002802D1894801210170ED480024AA
:10170000046088480090E548884A2146234600F056
:1017100063FB82480078002800D1D9E0844D854FD2
:10172000854E9635386800F05BF93088401C308073
:1017300000B2A84200DDBCE0784800780028F1D172
:10174000C6E076480078002815D0794E794D7A4C5D
:10175000724F286800F044F92088401C208000B2B5
:10176000B04203DC38780028F3D104E002992180EC
:101770007648018039704B20800000F0A7F9784846
:10178000CC490860644C2088002875D0FFF79CF88D
:1017900000F0AAFBF7E70460604801210170644E85
:1017A000644C654F5D4D206800F01AF93888401C84
:1017B000388000B2B04203DC28780028F3D104E07E
:1017C000029939806148018029704B208000019086
:1017D00000F07CF97F20C0050090B048614A029C6F
:1017E0002146234600F0F8FAD7480460B149594829
:1017F0000860D7480460D3480460D44804605A4D58
:101800002868214600F00CFD002817D1574C584F8E
:10181000204600F0E5F800F07DF9CB48006838403C
:101820002E68314600F0E4FC002807D1C848006863
:101830003840314600F0E7FC0028E9D100F0BEFA5C
:10184000019800F043F94B489A490860012080074D
:1018500000909248434A00210B4600F0BDFA2E4DFD
:101860002888002808D1D94CFFF72EF8206800F00E
:10187000B7F828880028F7D000F0A0FA8A4908783D
:10188000401C087003B0F0BD029921802F480180F0
:1018900039704B20800000F019F931488549086003
:1018A0001D4C20880028E7D0FFF70EF800F01CFB45
:1018B000F7E700F083FAA6480460A3480460A14853
:1018C0000460A248046021480480348013480470F6
:1018D0001F4D2878401C2870C0B2042802D21D4831
:1018E00001240BE000F06AFA6E4804702C70B548D1
:1018F0000470194804700848048020466A496D4AFB
:1019000010600C704B208000643000F0DFF803B0F2
:10191000F0BDC046F802202080002020F4022020E4
:10192000E800202000002040AC0020200000E04023
:10193000F82A0000E0002020F6022020F0002020FD
:10194000EC0020207000202074002020E4002020E3
:10195000A10020200000A043BD0220200000404044
:1019600000008C430000A0400800202000004842F6
:10197000FFFFFF7F00003E4304002020000038C22C
:1019800080B507480068C0B20B2807D10548006839
:10199000C0B200F01DF904480121017080BDC046AD
:1019A0002030104024311040BC022020B0B5094C3A
:1019B000207801280DD1084D2888401C288080B24D
:1019C0000A2806D3FEF7C8FDFFF73CF80020288060
:1019D0002070B0BD9D0020209E0020207047000098
:1019E00070B5ED4C2060BA480068FEF79BFC2C49AE
:1019F0000860F04A1278022A04D178280EDDB3225A
:101A0000D24310E0D21E012A0FD8274A1278531E63
:101A1000012B38D87D28F2DC7C2200E07722D243EB
:101A2000904202DAB42210180860FEF7DDFC606014
:101A3000204600F0D8F9E56A1C4E2846314600F0F1
:101A4000CCFB002800D12E46002805D1184930468D
:101A500000F0CEFB002808D1154D3046294600F095
:101A6000D2FB002800D13546E562124E3068294687
:101A700000F0D4FCFFF700F83068E16A00F0DCFB0E
:101A8000FFF718F870BDD21E012ACED84628B6DC62
:101A90004622D2439042C5DDC7E7C046AC002020B5
:101AA000A8002020A0002020F80220200000C84329
:101AB0000000C8C3E800202080B5FFF78BF90120A3
:101AC0008003284908602849086080BDB0B57D21A1
:101AD000090241430E480368262206E0E41A051F66
:101AE0002D686419A2188A4210D21C460368A342CA
:101AF00008D10368A34205D10368A34202D1036859
:101B0000A342F3D09C42E9D9E41AEBE7B0BDC0464A
:101B100018E000E010B50A4804680A480168204649
:101B200000F024FC084908600120C0070749096843
:101B30004140204600F01AFC0549086010BDC0462F
:101B40000000202070002020EC00202074002020C5
:101B5000F0002020E248022101600160E1480160BC
:101B60000160704780E200E000E100E0F0B581B084
:101B7000FEF76EFF7D20C000FFF7A8FFFEF762FFB3
:101B8000FEF774FF524F3D68C8242046FFF79EFFC2
:101B90003E682046FFF79AFF8748012101702846DA
:101BA000314600F049FB396800F046FB0649FEF774
:101BB00009FB06490860FEF751FF2046FFF786FF44
:101BC00001B0F0BDF500202000004040E0002020E2
:101BD000F0B583B0384E317800290BD03178012927
:101BE00014D1532866D135480078354953220A5418
:101BF000022707E055285DD130480078304955224A
:101C00000A5401272D480770377053E031780229B4
:101C100050D12A4A13782A49C854581C1070C0B2AF
:101C20000B2847D108784A7810188D782818CC7876
:101C30002218087983184A79D3188F790297FB18EC
:101C4000CF790197FB180F7AFB184F7AFB18DBB29C
:101C5000897A00278B42D5D11102081800B2FEF70D
:101C6000C3FB0721C906009100F080FB154900F075
:101C70007DFB154908602002401900B2FEF7B4FB55
:101C8000009C214600F072FB0E4D294600F06EFBD1
:101C90000E490860019800020299401800B2FEF750
:101CA000A3FB214600F062FB294600F05FFB0849D8
:101CB0000860A7E703B0F0BD9C0020209B00202017
:101CC0009000202000003443840020208C0020203D
:101CD000A400202082B0FFF7EFFEFFF73BFF00F0EB
:101CE000EFF800F0F5F82B4800902B482B4A002421
:101CF0002146234600F070F829480090AD48294A53
:101D000021460194234600F067F8274D274E284FBF
:101D1000284CFEF75DFE2870FEF776FE30703978AD
:101D2000002908D0012818D1FEF7A0FE0120387044
:101D3000012815D0EDE72878012805D1FEF788FEA7
:101D40002078401C207000E02078C0B2052801D324
:101D50000198207030780128E6D038780128D8D151
:101D6000154800780128D4D12078401E0328D0D807
:101D70007844007940008744040A0107FFF7CEF950
:101D8000C7E7FFF79FF8C4E7FFF7D6FBC1E7FFF708
:101D9000E7F8BEE73333B33FAC0020206666A640C9
:101DA0009A99D93F666696407800202079002020D5
:101DB000BD022020A0002020F50020200120810469
:101DC000044A1160C1041160010511600006106031
:101DD0007047C046A0320A4010B5029C4261836140
:101DE000C461016310BDF0B583B00446006861684A
:101DF00000F014FB0546A060206B00282DD00128C0
:101E00004BD1A169284600F0B1FA0290A062E668C1
:101E10002846314600F002FB0146606900F0A6FA50
:101E2000019020623046314600F006FA014628460D
:101E300000F0F4FA216900F0FFF90146E06900F0D2
:101E400095FA074660620198029900F0F5F9394663
:101E500000F0F2F90146E06A1BE06169284600F0F3
:101E600085FA02902062A169284600F07FFA01906D
:101E7000A062E6682846314600F0D0FA0146E069E3
:101E800000F074FA074660620298019900F0D4F9F4
:101E9000394600F0D1F9E06200E0E668E5602661CD
:101EA00003B0F0BD80B50448C06AFEF7E5FD034805
:101EB000C06AFEF7FFFD80BD54022020880220206A
:101EC0000120800406490860064908607047C04642
:101ED0000120000402490860024908607047C046BA
:101EE00080E200E000E100E0F0B583B00026304879
:101EF000855F2846FEF778FA2E4908602E488057FD
:101F0000029045432D48815701912D488357581A17
:101F10001527474378192B4DAD572B4FBF577C1BC7
:101F200017216143401829498957294CA457661A3B
:101F30001A22724380183A191E4FD218029BD218E7
:101F4000019BD2185219511800F06EF821490870FF
:101F500040B2FEF749FA78603846FFF744FFFD6A61
:101F60001D4E2846314600F038F9002800D12E4693
:101F7000002805D11949304600F03AF9002808D167
:101F8000164D3046294600F03EF9002800D135466E
:101F9000FD62134C2068294600F040FAFEF76CFD04
:101FA0002068F96A00F048F9FEF784FD03B0F0BD3F
:101FB000BE022020C0022020820020207A002020A3
:101FC000880020207B002020890020207C00202009
:101FD0008A002020F400202000004844000048C46B
:101FE000E800202043088B421AD3002203098B42C9
:101FF00079D3030A8B425ED3030B8B4242D3030C8B
:102000008B4227D30902FF2212BA030C8B4202D360
:102010001212090203D0030B8B4233D31AE0D3E030
:10202000411A8041401C704703460B4371D443085A
:102030008B42F5D3002203098B4254D3030A8B420F
:1020400039D3030B8B421DD3030C8B4202D394462E
:102050006EE0090AC30B8B4201D3CB03C01A524175
:10206000830B8B4201D38B03C01A5241430B8B422B
:1020700001D34B03C01A5241030B8B4201D30B0314
:10208000C01A5241C30A8B4201D3CB02C01A52413B
:10209000830A8B4201D38B02C01A5241430A8B42FE
:1020A00001D34B02C01A5241030A8B4201D30B02E7
:1020B000C01A5241CDD2C3098B4201D3CB01C01A01
:1020C000524183098B4201D38B01C01A524143090B
:1020D0008B4201D34B01C01A524103098B4201D3F9
:1020E0000B01C01A5241C3088B4201D3CB00C01A66
:1020F000524183088B4201D38B00C01A52414308DE
:102100008B4201D34B00C01A5241411A5241100078
:102110007047CA0F00D04942031000D340425340D9
:1021200000229C4603098B422DD3030A8B4212D313
:102130008901FC2212BA030A8B420CD38901921145
:102140008B4208D3890192118B4204D3890137D085
:10215000921100E08909C3098B4201D3CB01C01A57
:10216000524183098B4201D38B01C01A524143096A
:102170008B4201D34B01C01A524103098B4201D358
:102180000B01C01A5241C3088B4201D3CB00C01AC5
:10219000524183088B4201D38B00C01A5241D9D2DD
:1021A00043088B4201D34B00C01A5241411A00D25E
:1021B00001465241104663465B1000D340427047CF
:1021C00063465B1000D3404201B50021004201D0BC
:1021D000C9430846C046C04602BD10B500F072F8BB
:1021E000EFF30080800001D5012010BD002010BD5C
:1021F00010B500F067F8EFF300804000800F012871
:1022000000D0002010BD10B500F086F8EFF300807C
:102210004000800F012801D0012010BD002010BD1A
:1022200010B500F079F8EFF30080800001D40120B0
:1022300010BD002010BD000070B50125ED070400A1
:102240004C4020D4441A01D2001B0919C60D4B0082
:10225000F2B2FF2A29D01B0E2CD000020C02284318
:102260002C43D31ADC40051910D2280A02D3401C93
:102270006D0611D0761EF6058019FF2A00DA70BDB2
:10228000C00DC00570BD694000F0CEF801200543C7
:10229000C541521C761CE8E764089C40C9016140B6
:1022A0008900E7D10124A043E4E71B0E440200D0DB
:1022B000034870BD002AFCD1C00FC00770BD00BF2D
:1022C0000000C07F0123DB0502000A430DD4DA427F
:1022D00003D49A4207D488427047D84214D4D942D2
:1022E00012D48842704780427047DA4203D59A423E
:1022F000F9D5814270475B004200DA4204D24A00BD
:10230000DA4201D28142704710B5024AFEF778F8EE
:1023100010BD00BF090013040123DB0502000A43BE
:102320000DD4DA4203D49A4207D488427047D84287
:1023300014D4D94212D48842704780427047DA429E
:1023400003D59A42F9D5814270475B004200DA42D8
:1023500004D24A00DA4201D28142704710B5024AE3
:10236000FEF74EF810BD00BF0900160470B542001C
:1023700064414B005C41120E39D01B0E38D0FF2A4D
:102380003CD0FF2B3AD0D2187F3A40024902400A93
:10239000490A4518ED0106004E43000A090A484360
:1023A0000104731A4019190C4318990F04D05B08E3
:1023B000012149075B1A521CD80904D3401CF503BC
:1023C00001D19D0607D0FF2A08D2D50506D0E40723
:1023D0002043401970BD0125A843F4E7002A01DC21
:1023E000E00770BD2402FF202043C00570BD1B0E16
:1023F000FF2A03D0FF2B01D0E00770BDFF26360671
:102400004500B54206D84D00B54203D8D218FF2A80
:1024100000D0E7E7004870BD0000C07F70B501251F
:10242000ED0704004C4022D4441A02D26C40001B39
:102430000919C60D4B00F2B2FF2A4BD01B0E50D02B
:1024400000020C02A8432C43D31ADC40051B05D51F
:10245000AD0019D36D08761E521E37D0F605280A36
:1024600001D2801970BD70416D0603D070BD694006
:10247000FFF7E8FE9C4009026140490001D0401E80
:1024800070BD0124A04370BD6D081DD001202B0C30
:1024900001D12D0410302B0E01D12D0208302B0F4D
:1024A00001D12D01001DAB0F01D1AD00801CEB0F40
:1024B00001D16D00401C361A121A6D00680AF5052C
:1024C0004019012A02DB70BD002070BDC036300A01
:1024D000C00770BD1B0E440201D1FF2B00D1024882
:1024E00070BD002AF0D070BD0000C07F818283845F
:1024F00085868788898B8C8D8E8F91929395969700
:10250000999A9C9D9FA0A2A3A5A7A8AAACAEB0B281
:10251000B3B5B7B9BCBEC0C2C5C7C9CCCED1D4D77C
:10252000D9DCDFE2E6E9ECF0F3F7FAFE0807030096
:10253000E80300002000010008076300020000001B
:102540001701000001000000000000000000000072
:1025500008076300020000001701000001000000EE
:10256000000000000000000008000000180000004B
:10257000003000000000000098250000000020202E
:102580001000000020010000A825000010002020FD
:10259000F016000048010000840D8F3E004090447A
:0825A00000C08E44010100009F
:04000005000000C136
:00000001FF
