:020000040000FA
:10000000604B2020C9010000CD010000CF0100009D
:1000100000000000000000000000000000000000E0
:10002000000000000000000000000000D1010000FE
:100030000000000000000000D3010000D501000016
:10004000D701000035280000D7010000D7010000CB
:10005000D7010000D7010000D7010000D701000040
:1000600000000000D7010000D701000000000000E0
:1000700000000000D70100004545000009440000D1
:10008000B1430000D7010000714300009543000018
:10009000E1430000D7010000000000000000000064
:1000A000D7010000D70100000000000000000000A0
:1000B000D701000000000000D7010000D7010000B8
:1000C00000F002F800F071F812A030C808382418C7
:1000D0002D18AC4201D100F068F80FCCA246AB4617
:1000E0000CA730CF2D1B083F3F197C427F1E544484
:1000F0002D090426F441641EAC4201D300F055F8EA
:100100000126334200D0FB1A3343984754465D46DC
:10011000DFE70000B46D0000D46D000000000000B7
:10012000103A02D378C878C1FAD8520701D330C840
:1001300030C101D504680C60704700000000000069
:100140007047000000000000002300240025002666
:10015000103A01D378C1FBD8520700D330C100D583
:100160000B60704710B5662902D106F0DFFC10BDA8
:10017000642902D100F09EF810BD782902D100F068
:10018000CFF810BD732902D101F0CDFB10BD0020C6
:1001900010BD1FB501F024FC04000020002106F072
:1001A000F9FAE0601FBD10B510BD02F0F1F811467C
:1001B000FFF7EFFF05F092F802F009F903B4FFF73B
:1001C000F2FF03BC04F0E6F906480047FEE7FEE74D
:1001D000FEE7FEE7FEE7FEE703480449044A054B55
:1001E00070470000C100000060272020604B2020E5
:1001F00060472020604720200FB4054910B503AAAE
:10020000029801F095FB10BC08BC04B01847000030
:100210009421202070B5044685690068C10601D587
:10022000302600E02026C00707D070BD6268304647
:10023000A1689047206A401C20626D1EF6D570BDF3
:1002400070B5044685690078C00707D170BD626843
:10025000A16820209047206A401C20626D1EF6D5C0
:1002600070BD70B50C460546012A05D02878800679
:1002700000D5EA69002302E0012305E05B1C9342FC
:1002800002D2E05C0028F9D1A869E618C01AA8617A
:10029000286AC01828622846FFF7BCFF04E06A6895
:1002A0002078A968641C9047B442F8D32846FFF729
:1002B000C7FF70BDF7B5002575291068009914A611
:1002C00011D0C046C046002802DA404211A608E01C
:1002D000009909688A0701D50FA602E0490704D5ED
:1002E0000EA6012501E0C046C046009F0024243729
:1002F00004E001F031FB30313955641C0028F8D19D
:100300002B4632462146009801F098F8FEBD0000C9
:10031000000000002D0000002B0000002000000065
:1003200070B504460D4621461068C046C046218877
:10033000090502D50F4A7A4402E00E4A7A440E3289
:1003400023460021243305E006070009360F965D99
:100350005E54491C0028F7D120780023000705D5FA
:10036000702D03D0002901D002231132204601F064
:1003700065F870BD02680000F3B50446002081B046
:1003800020622046E168884700287DD0252802D0D9
:100390006268A16883E0454F00257F442046E168FC
:1003A00088472028064608DB312E06D2B8192038A7
:1003B0000078002801D00543F0E7A80701D5042004
:1003C00085430020E0610746A0612A2E0AD030460E
:1003D00005F09EFE002827D0B8000019303E00909E
:1003E000866119E00298BA00121902C89161029060
:1003F0002046E1688847012F064617D1E0690028AA
:100400001FDA202085431CE000980A2180694843B8
:1004100000998019303888612046E168884706468F
:1004200005F076FE0028EFD1012F0AD02E2E08D13C
:100430002046E16888470646202005437F1C022F9E
:10044000C3DBA069002803DA4042A0610120054314
:10045000E80701D010208543002E24D030464138D3
:10046000192803D80120C002054320362046256004
:100470003146029A1546FFF775FE00280CD0012878
:1004800007D0ED1DE80800E00DE0C0000830029044
:1004900077E72D1D029574E762683046A1689047A2
:1004A000206A401C6CE7206AFEBD0000C6670000A1
:1004B00010B5044603E004F093FB401C08D02078FC
:1004C0000549641C0028F6D10A2004F089FB10BD00
:1004D0000020C04310BD0000942120200022030909
:1004E0008B4273D3030A8B4258D3030B8B423CD30A
:1004F000030C8B4221D312E003460B437FD400222E
:1005000043088B4274D303098B425FD3030A8B42A7
:1005100044D3030B8B4228D3030C8B420DD3090227
:10052000FF2212BA030C8B4202D31212090265D0C9
:10053000030B8B4219D300E0090AC30B8B4201D392
:10054000CB03C01A5241830B8B4201D38B03C01AD9
:100550005241430B8B4201D34B03C01A5241030B50
:100560008B4201D30B03C01A5241C30A8B4201D301
:10057000CB02C01A5241830A8B4201D38B02C01AAC
:100580005241430A8B4201D34B02C01A5241030A23
:100590008B4201D30B02C01A5241CDD2C3098B4208
:1005A00001D3CB01C01A524183098B4201D38B0185
:1005B000C01A524143098B4201D34B01C01A524128
:1005C00003098B4201D30B01C01A5241C3088B426D
:1005D00001D3CB00C01A524183088B4201D38B0058
:1005E000C01A524143088B4201D34B00C01A5241FA
:1005F000411A00D201465241104670475DE0CA0FD1
:1006000000D04942031000D3404253409C46002290
:1006100003098B422DD3030A8B4212D38901FC229A
:1006200012BA030A8B420CD3890192118B4208D370
:10063000890192118B4204D389013AD0921100E0D2
:100640008909C3098B4201D3CB01C01A52418309E6
:100650008B4201D38B01C01A524143098B4201D313
:100660004B01C01A524103098B4201D30B01C01A3E
:100670005241C3088B4201D3CB00C01A52418308B8
:100680008B4201D38B00C01A5241D9D243088B420E
:1006900001D34B00C01A5241411A00D201465241C7
:1006A000104663465B1001D34042002B00D54942FF
:1006B000704763465B1000D3404201B504490028EF
:1006C00002DC491C084000E00846C046C04602BDA6
:1006D000FFFFFF7F70477047704700000246C80F5A
:1006E000C00781434B0030B54B405B009B0D20D0D1
:1006F0001923DB06C91801231B05994220DB0324BB
:10070000A40704251346AB400BD3002B04D1EB0602
:1007100013409B00E34204D4012464070023121910
:100720005941FF231B0599420BD2C9000143500FC9
:1007300009E0CB0204D501430803024305D0054874
:1007400030BDFF21C905084330BD08460721090512
:10075000884330BD0000C07FF0B50C46871A9C412D
:100760000D46861A9D4103D2C01BA141D219634197
:100770000D0D1F0DC94EEC1BAE435CD07F057F0DE8
:100780000026002F51D02D05AC46A943DD020123E0
:10079000ED0A1B051D4320231B1B24D41746E740ED
:1007A000381871412F46E740CC199D402818314632
:1007B00061410C0D27D161449A4013D50023401CA0
:1007C000594152000ED14008400001224B00520511
:1007D000D34207D305204007C14201D5B04900E00C
:1007E000B0493046F0BD6B00002A00D001229A18B3
:1007F0001F23203C1B1B01D5002302E0E5402818E5
:1008000071410C0DD7D0012424050919C407CD0767
:1008100040084908E40F28436144002CD5D0002447
:10082000401C61419A40D0D1CDE76A05520DD9D123
:10083000C90FC907D5E79C4D4E00002801D00124FF
:1008400000E0002434195F00002A01D0012600E0F6
:100850000026BE19954FAC420CD8AE420AD8B4421D
:1008600006D001256D05EC42BCD010461946F0BDFE
:100870009942FCD000203946F0BDF0B51FB40C46BB
:100880000F46811A9F412546861A9D4106D20125B1
:10089000ED076F40401ABC4152187B41210D1E0DDF
:1008A0008D1BAC467D4D8D437ED075056D0D7CD086
:1008B0000D05AE46AC431B031B0B794D52429D41C7
:1008C000202366469B1B14D31746F7403818002692
:1008D0000090744160462F460741E41900989D40FE
:1008E0002818664116D4714671189A4025D50123FF
:1008F00020E093182A466A415200002B00D0521C77
:100900001E23203E9B1B002B61DD3541EE1728186E
:100910006641E8D5001876415B1C9A4000D3401C24
:100920004B05F3181524E34010D3002B52D0714629
:100930007118D30FC01802D3491C05B0F0BD0123B4
:10094000DB079A42F9D140084000F6E70122520540
:10095000B21801D1002853D00123CC0ADB029943FD
:10096000891E002A08D1020C03D0020C00041039A1
:1009700002E00246002020390023550B05D1120267
:100980000823550B01D152010D23550C01D1120141
:100990001B1DD50C01D192009B1C150D01D15200DD
:1009A0005B1C2025EE1A01E02CE022E00546F54014
:1009B00015439840CA1AE10769181305C918002A97
:1009C000BBDA032040070818C10FC9070FE07146C2
:1009D0006118B2E7F10740080843711071444A00FA
:1009E0000CD001235B059A42A7D2C90FC90700208A
:1009F000A3E74905490D26D1002001E00028F4D1E4
:100A000000219AE7284D6600002801D0012100E06E
:100A1000002171185F00002A01D0012600E00026A5
:100A2000BE19224FA94210D8AE420ED8B14208D00A
:100A300001256D05E94206D01946A802414010463D
:100A40007BE79C4201D0214677E70020394674E7D6
:100A500010B50C465C4005D50124E4076340FFF760
:100A60000CFF10BDFFF778FE10BD30B40C465C40A3
:100A700004D50124E407634030BC6DE630BCFCE6DD
:100A800070B50124E40761400D465D4002D4FFF7D4
:100A900063FE70BD6340FFF7F0FE70BDFF0700000E
:100AA0000000F0FF0000F07F0000E0FF0000F87F92
:100AB000F0B5F94D0C091E092C402E402F468BB085
:100AC000A7437DD0B543FCD0002E7AD0002CFCD0BB
:100AD0000D465D40ED0F2543AC1BFF25AD046419A9
:100AE0000894C502440DC9022143500DDC020443A1
:100AF0000120C00701430443D2020191200C110CD4
:100B000000958C46010423468B430A9161460904F3
:100B1000E24D8A430991010A7D44491980390978D7
:100B200005464D4301266D18F605751B6943C90C32
:100B3000640B891C4C436418B5012C1B250C2E0436
:100B4000B4434C434D43210C691889090591009D1C
:100B5000E90701D00121C90704912C4601996708D2
:100B6000CD072F434C08059DE10B4D432D0C294625
:100B70006646754302950D4645432E46029D7D1BF4
:100B8000B44100950D465D4301942C0C2F040D4695
:100B90005543AE462D0C3D43029503947546049C87
:100BA0002D04641B049406D2029C039D641C002641
:100BB00075410395029401AC70CC009F7D1B01E050
:100BC0003EE162E1B4410904009507910194059961
:100BD000A4086143090C0C464443650BE7040C462A
:100BE00066467443A646640B3C43039502947446E0
:100BF000049DE4042C1B049406D2029C039D641CF7
:100C0000002675410395029401AC70CC009F7D1BBA
:100C1000B44101940C465C430095650FE7000C4617
:100C20005443A646640F3C43039502947446049DC6
:100C3000E4002C1B049406D2029C039D641C002635
:100C400075410395029401AC70CC009F7D1BB441AB
:100C5000AE09AF06049DC900AD092F43049DA4064B
:100C6000AD060495079D344369180791059DE10B76
:100C70004D432D0C29466646754302950D46454366
:100C80002E46029D7D1BB44100950D465D430194A7
:100C90002C0C2F040D465543AE462D0C3D430295BA
:100CA00003947546049C2D04641B049406D2029C94
:100CB000039D641C002675410395029401AC70CC21
:100CC000009F7D1BB44101948C050694079C890A02
:100CD000611800950791019C0599A4086143090CCE
:100CE0000D464543680BEF040D46644665436C0BA7
:100CF0003C43049FED047D1BAC4602D20025641CDE
:100D00006841009E019D371B854108465843019567
:100D10000C46460FC5005443600F28436546E40067
:100D20002C1B02D20025401C6E41019D3F1AB5418B
:100D30002846BD09800628438446A009BF064E0206
:100D40000699A40676180743079D002068410A9972
:100D5000079019430020099B00906046FF19134338
:100D60004041E20F64003A43A4460446D71A8C413E
:100D7000A04203D90120009020463A46C70F94189C
:100D800040416246D20F2243644664000494009CB2
:100D9000BE466400D71AA446044602978C417746A3
:100DA000002F01D1A04204D96046401C8446029A1B
:100DB0002046C40FA64694184041049A0546D20F17
:100DC000224364466400D31A8D417146002901D143
:100DD000A84202D928461A46641C10430122002862
:100DE00000D0164361020020079B891904465C412C
:100DF0000223002C02DB491813466441089DCE0AE9
:100E00002D145D194B056705E10A2C050D1908998C
:100E10003E43C9076940002B08D0934006D3002207
:100E2000761C5141002B01D1760876001C4A002D1A
:100E300043DB154241D0AA433FD030460BB0F0BD52
:100E400006180D464D41174C7642AC411AD3951801
:100E50001C465C41134A6D42A24113D30122520544
:100E60004C00D4420AD15C00D4420BD04B4002D596
:100E700092021143E2E749004908DFE75940C90FF0
:100E8000C90718E000200849D8E7054801420DD1FC
:100E90000342F7D0F2E700000000FF0759600000AE
:100EA0000000F07F0000E0FF0000F87F114859408B
:100EB0000143C01241400020C0E70123089A9B066D
:100EC0009A4205DC032252078918C90FC907B5E702
:100ED000052252078918074A1143D2125140ADE743
:100EE00070B515461C4602460B4628462146FFF7BC
:100EF000DFFD70BDFFFFFF7F1F22030C02D10F2219
:100F0000000402D0030E03D004E000200146704725
:100F10000002083A030F01D10001121F830F01D113
:100F20008000921E002801DB4000521E120551185D
:100F30004205C012411810467047C10FC90700D0C2
:100F40004042012292071143D6E701218907D3E7E6
:100F5000F0B58B4C0F09254689B0BD437BD01D09E8
:100F60002646AE43FAD00E465E402740F60F3E437B
:100F7000254071D024012142FBD0FF24AD19A404E7
:100F80002D1B039501252D05DB02DB0AC9022B432E
:100F9000C90A29431E010901040F130F050121434A
:100FA0001701880B820391432D098C46A90B1E4320
:100FB0008A039543B30B9A0396433F09BA0B9403F4
:100FC000A74302962E467E430497B6464E19D7197C
:100FD0000C460196544305977E43371B7646BF1B4C
:100FE0003601B646BE0B361900967646BC04371954
:100FF000009C01D3641C00946400002F01D00126E2
:101000003443029E049F754366467E4304967600F1
:1010100034196E0034190094029C019E1C19664319
:10102000751BAE46069465464519059C05956C43AF
:10103000594375460891691A0191049E014651432E
:10104000A41B0491611A009C0791E10605D0610977
:101050000122114302E072E06EE06109089D002761
:101060002C0A2D066918049D7C412A0A2D06691850
:10107000019D6241AC0DAD026D185441079A910D6E
:10108000920255196141029A644658435443069BA3
:10109000059A5A43121A131B9A0E9B015B187A4148
:1010A000010B0005C3185141220A200644195A4178
:1010B0009A4200D2491C01204002814203D31523E9
:1010C0000226F64302E014230326F6432020C51A25
:1010D000A9401746AF40DA400A4320460399D8405A
:1010E0000914731819055118039A3843D20751404F
:1010F000AC4009D00122944006D30022401C51414B
:10110000002C01D1400840001E4A934212D3012214
:1011100003989206904207DB0520400709181A48F9
:101120000143C012414004E0032040070818C10FEA
:10113000C907002009B0F0BD0020F107FAE7051843
:101140000C464C4111486D42A04115D394181A46E3
:101150005A410E48644290410ED301204A00400596
:10116000824209D35A00824206D35940C90F084A25
:10117000C90700201143DDE700200649DAE7000037
:101180000000FF07FE070000FFFFFF7F0000E0FFF9
:101190000000F07F0000F87F0121C90501234118FC
:1011A00042001B06D3185B0E0AD0C1100722D206DC
:1011B000891840075242D14201D552008918704720
:1011C000090208D50146002A03D0C10FC907002033
:1011D000704710467047420202D000200249704713
:1011E000072109050143F4E70000F87FF0B5FF256A
:1011F0002D04C609C209FF2704462E400137CB093A
:101200003E4348402A402B400746002A6BD0002B23
:1012100069D0AA4267D0AB4265D0002800DA3246D6
:101220000125ED0529432C4309022002090AD21A9F
:101230004B0C7F24E31A434C000A7C44E35C7D247E
:101240002404121914145B00A218884201D3521C02
:1012500000E0400049420C465C4324115C43DB0142
:101260006415E318040A5C43C502200D0C46444390
:101270006419250A5D432303EC0C0D466543000306
:101280000019EB184C42A34201D35B18401CD40553
:101290002018002B07D05B00C91804D3401C00297C
:1012A00001D1400840003F2189048A4209D3002A25
:1012B00008DC1106090F04D0032149074018C00FAC
:1012C000C007F0BD01224100120689187F22520694
:1012D0009142F6D205214907C84201D59010F0BDD0
:1012E000FF20C005F0BD002F00DA32461648AA42A2
:1012F00007D2AB4205D21902090E17D0F80FC0076A
:10130000F0BDFF2563002D06AB42F9D84900A94284
:10131000F6D8AB4201D1A942F2D0A94201D10021B5
:1013200001E061004908D0050843F0BD1102090E33
:10133000FBD0FF200243D005F0BD0A46014610460F
:1013400054E70000B75900000000C07F10B5014607
:101350009E240002CA15A307002A02D01843002ABF
:1013600004DBA21A002A0CDDD04010BD1206120EBA
:1013700001D140004008A21A03D4D04040420028C6
:10138000F3DDFF2248001206904201D9002010BD73
:10139000C817C043584010BD0102C21504D0012334
:1013A000DB071943002A0ADB9E239A1A02D4084657
:1013B000D0407047FF2241001206914201D900201F
:1013C0007047C017C04370471F22030C02D10F2281
:1013D00000041CD0030E01D10002083A030F01D112
:1013E0000001121F830F01D18000921E002801DB33
:1013F0004000521ED2055118021251181922904075
:1014000004D3491C002801D1490849000846704707
:10141000C10FC90700D04042012292071143D3E710
:1014200001218907D0E710B500F0DEFA006810BD91
:1014300010B5044600F0D8FA046010BDFFB50446AC
:101440000D4681B0243000902168880604D5102212
:10145000E0699143216000E00120A84201DD471BC3
:1014600000E000270498A1697A191018081AA061F1
:101470002078C00602D42046FEF7CCFE002608E005
:1014800003986268A168805D9047206A401C761CC2
:10149000206204988642F3DB2078C0060AD52046F5
:1014A000FEF7B8FE06E06268A16830209047206A27
:1014B000401C206238467F1E0028F4DC07E00098BC
:1014C0006268A168405D9047206A401C20622846FF
:1014D0006D1E0028F3DC2046FEF7B2FE20780006E1
:1014E00002D5022005B0F0BD0120FBE7FFB50C4698
:1014F0001E468FB003CA089009914F007D0D00D1A0
:101500006D1E002108460020C0460321099A890566
:101510000840002A03DA8200801840080840800D45
:1015200001280A9002DD0020C0430A900898074372
:101530000DD0F048F049281848430714189800289F
:101540001DD07542291E1DDD0A9842421BE01898E5
:10155000012802D00020302104E00020F24305E001
:101560002154401CB042FBDB30460022189B002176
:1015700021540F998B600A60486013B0F0BDBD1B09
:101580006D1CDFE70A9A002900DA69420BA800F017
:10159000C9FA0BAB07CB03AB07C30899099800F056
:1015A0002DFB6B4607C30146D4480918002D009156
:1015B0000BDDD24903980A9A49424018002303A937
:1015C0000390684600F08AFD08E003990A9A002318
:1015D000081803A90390684600F02AFD6B4607C36C
:1015E0000004000C03D00020C043410800E0104676
:1015F000189A002A03D00022009215461EE0751E9C
:1016000005D400F0F5F9303262556D1EF9D501228E
:101610000843079602D000227F1C04E0207830287F
:1016200001D100227F1E002A069787D01EE0112DCF
:1016300007DA00F0DDF9303262556D1C02460A43CC
:10164000F5D1084303D00098002819D00EE00021FE
:10165000681E05E0235C625C63542254401E491CF2
:101660008142F7DBA81B401E07950690079A189940
:101670000020A0540F98079B069A81600CC07CE75D
:1016800011260020189059E7D21DF0B50D460446EA
:10169000D10893B0C90003C90C900D9104F082FCED
:1016A00002460D98C00F01D02D2007E02068810769
:1016B00001D52B2002E04007C00F4001032A0F9004
:1016C00001D0072A05DB03462946204600F0E6F94B
:1016D0000EE12078800601D5E76900E0062728465C
:1016E000652D04D0662814D0672D69D12DE0002027
:1016F000112F009001DB112300E07B1C0CAA03A931
:1017000010A8FFF7F3FE1199002610987D1C0E918A
:1017100042E001203B460CAAC0070B90012000903C
:1017200003A910A8FFF7E2FE119D12981099002658
:1017300000280E9501D1781C0D18781B02D4464262
:101740007D1C761EE81B00903AE0012F00DA01278D
:101750000020112F009001DD112300E03B460CAA70
:1017600003A910A8FFF7C2FE11993D461098002664
:101770000E91217809070BD40E99A94200DA0D4683
:1017800003A9012D04DD4A19203AD27F302A06D060
:10179000B84201DA011D04DA012100910FE06D1E4B
:1017A000EFE7002802DC86192D1A03E0411CA9424C
:1017B00000DD0D46801B401C00900120C0070B90EF
:1017C0002078000705D40098A84202DB0020C0431F
:1017D000009069460020C8720B98012102AF0337C0
:1017E000C907884225D0022010902B2011900B9819
:1017F00000280BDA40420B902D20119006E00B9848
:1018000000F0AAF830317F1E0B9039701099481EF5
:1018100000291090F3DC0B980028F0D111987F1E5E
:1018200038702088000501D5452000E065207F1E26
:10183000387001A8C01BC01D0B900F98002800D065
:10184000012041190098C01709180B980818A169C0
:10185000081A401EA0612078C00602D42046FEF778
:10186000D9FC0F98002805D06268A1689047206ACB
:10187000401C20622078C00625D52046FEF7CAFC11
:1018800021E0002E07DB0E98B04204DD03A8626859
:10189000805DA16802E06268A16830209047206AFC
:1018A000761C401C20620098401E002800900AD13F
:1018B00000F096F8C06862680168405CA1689047D3
:1018C000206A401C206228466D1E0028D9DC07E0F3
:1018D00062683878A1687F1C9047206A401C2062AB
:1018E0000B99481E00290B90F2DC2046FEF7A8FC5D
:1018F000032042E601FCFFFF104D0000E1DFFFFF87
:1019000010B54369002B02D0C046C04601E0FEF787
:10191000A8FC012010BD1278014624310A70002273
:101920004A700122ECE711680022D243E8E7000088
:10193000084B70B50D467B4400F09DF804462846E0
:1019400000F01CFC002802D00020C04370BD2046DF
:1019500070BD0000A732000001468008081A020985
:101960001018020A1018020C1018C0088200121871
:101970005200891A01E0401C0A390A29FBD270473B
:1019800070B505464800440D124B0020002C0AD0CB
:10199000634008D09A4206DA6642B24203DD12057D
:1019A0004019514170BD002C08D0002B09D0C90F3F
:1019B000C907002AF6DB084A114370BDC90FC907E1
:1019C00070BD28460A03104302D00020034970BDB1
:1019D000284670BDFF0700000000F07F0000F87F80
:1019E0000048704730002020004870471000202039
:1019F0000B4670B5024689078008084319469D08C2
:101A0000141AA94125090807054308092C1948415A
:101A1000250A01060D43010A2C194141200C0D0431
:101A200028430D0C00194D41002140194D41C008BB
:101A300069070843E908840F8D00254384002418B2
:101A40004D4124196D41121BAB4107E00925ED43BF
:101A50002C11521963410024401C61411C460A2587
:101A60000026551BB441F1D270BD000001694A1C2B
:101A700002610878704700B58FB00291002105918E
:101A80000549019379440391114604906846FEF795
:101A900073FC0FB000BD0000E5FFFFFFF8B51F4667
:101AA000044601230068DB02032601461840072A8A
:101AB00005DB002801D017A506E017A504E00028E3
:101AC00001D016A500E016A5102081432160A06971
:101AD000C01E002FA06101D0401EA0612046FEF76D
:101AE00099FB002F09D038466268A1689047206AA8
:101AF000401C2062C01C206206E0206AFAE762688F
:101B00002878A1686D1C9047761EF8D22046FEF713
:101B100097FBF8BD4E414E006E616E00494E460087
:101B2000696E6600F7B516468AB0334878446C464D
:101B300003467C33C06F5A689B680DC42E487844B6
:101B4000763003AC0DC80DC43720C001081837210A
:101B50001B30FEF7D1FC05460C46803D1B3C02D5F0
:101B60006442012000E000200027099010E0E00717
:101B70000CD00C2020497843794432464C39411826
:101B80006846012300F054FA6B4607C364107F1CBB
:101B9000002CECD1184F7F442E3F16E0E80712D0FE
:101BA0002001C0190EC80691089307920068F04200
:101BB00001D1981908903246012306A903A800F024
:101BC00037FA03AB07C36D10641C002DE6D10998EA
:101BD000002806D032466946012303A800F07EFAA9
:101BE00005E001233246694603A800F021FA0A9B6A
:101BF00007C30DB0F0BD0000F851000003464000DF
:101C00000A4610B5400D0BD00121C9070F24A402CC
:101C100000191C0364082143540D2143D20207E03C
:101C200000210120F2E7D40F490021435200401E59
:101C30000029F8DADB0FDB07184310BDFFB50D46AE
:101C4000144685B04868516804F094F900910190F9
:101C5000A868A16804F08EF902910390A8686168F1
:101C600004F088F9029A12188242029201D20120ED
:101C700000E00020019A0B18D2180028019202D02F
:101C80008A4202D903E08A4201D2012000E000200A
:101C90000099081800906868A16804F06BF9029A2E
:101CA00012188242029201D2012000E00020019A23
:101CB0000B18D2180028019202D08A4202D903E000
:101CC0008A4201D2012000E000200099081800900B
:101CD0002868216840004900400849084018FA492E
:101CE000471814E001994000C90F0843009001987B
:101CF00002994000C90F08430190029803994000DF
:101D0000C90F08430290039840007F1E039000987B
:101D10000028E7DA0898002801D0EC4E00E0002601
:101D2000B74201DA012000E00020002804902AD008
:101D3000F71BF806C00E15D0029B2021091A039A42
:101D40008B401A430392029A019BC2408B401A4374
:101D50000292019A009BC2408B4000991A43019263
:101D6000C14000917B110DD06F460320C11A03D5ED
:101D700000218200B95003E08A008100BA587A50ED
:101D8000401EF3D5374603980299002800D0012061
:101D9000014308980291002808460CD0002800D082
:101DA00001200199019A490508430121D20AC9027B
:101DB000D202019200E001210E9B0122D207012BE9
:101DC00002D0002B03D013E0002807D120E090427E
:101DD00004D890420CD1019B0B4209D0019B5918A9
:101DE000019105D10099491C009101D17F1C0092FD
:101DF00000280DD0102108460020C0460498002875
:101E000006D00F98002803D0082108460020C046BD
:101E100028682168019B009A4840C10F0598C907AE
:101E200039430EC009B0F0BDFFB587B0099A0898D4
:101E3000089953689268406889689646002203931F
:101E400017469446089A12685300099A5B0812686C
:101E5000520052089A1A9E4BD4180A9A002A01D0AE
:101E6000352200E04022069200220123154604920A
:101E7000DB07059324E0002D05D175460346039E3C
:101E80004D1BB34109D375466646039B491B049D10
:101E90009841059B7519AC465F4163463B4308D0AA
:101EA000059B049EDD0776082E435B080496059388
:101EB00001E0521E641EC50FED0749184041521C37
:101EC000069B9A42D7DB002D04D17546039A6B1A04
:101ED000824101D203200CE0039A0B466B40424042
:101EE000134303D0014303D0012002E0022000E0AD
:101EF0000020614601910021009702910A99002972
:101F000005D0614640020143704B019102E0800719
:101F1000002302909C4201DA012000E0002007002B
:101F20003AD01A1BD006C00E15D0029D2021019C6C
:101F3000091AC5408C402543029C8C4000D00124E6
:101F40002543019C0295009DC4408D4000992C437F
:101F50000194C140009154111DD06D460221002210
:101F600002290CD10320001B07E0002804DB8600B7
:101F7000AE59002E00D00122401C0328F5DB081BBF
:101F800002D588002A5004E08000285810438A00B7
:101F9000A850491EE3D51C460A98002802980CD088
:101FA000002800D001200199019A49050843012128
:101FB000D20AC902D202019200E00121109B012243
:101FC000D207012B02D0002B03D013E0002807D149
:101FD0001FE0904204D890420CD1019B0B4209D0E3
:101FE000019B5918019105D10099491C009101D11B
:101FF000641C009200280CD0102108460020C04626
:10200000002F06D01198002803D008210846002090
:10201000C04608980999019A009B006809684840E1
:10202000C10F0798C907214382600AC00BB0F0BDF9
:1020300000B585B0019300920A460146002302A82C
:10204000FFF7FCFD02A807C805B000BDFFB50A46B2
:102050001F4685B00799019301230091014602A80C
:10206000FFF7ECFD02990398049ECA0F4900D207BE
:1020700000920F22490892028C1A0021002800DBEE
:102080000C46450013486D08844214D3079A002A71
:1020900004DA441E0026104DF64302E004460D46C5
:1020A0000E46102108460020C046002F03D0042110
:1020B00008460020C0462005E90A08430099084365
:1020C0006905F20A1143ADE602C0FFFF013C0000C2
:1020D000FF3F0000FF070000FFFFFF7F00B585B056
:1020E000019300920A460146002302A8FFF79CFED6
:1020F00002A807C8A8E7FFB50A461F4685B007999A
:10210000019301230091014602A8FFF78DFE029979
:102110000398049ECA0F4900D20700920F22490873
:1021200092028C1A0021002800DB0C464500114861
:102130006D08844214D3079A002A04DA441E00264C
:102140000D4DF64302E004460D460E4610210846AA
:102150000020C046002F03D0042108460020C046BE
:102160002005E90A0843009908436905F20A11436A
:1021700058E60000FF070000FFFFFF7FC0688021D6
:1021800008407047F8B5264C4E00069DA6420AD876
:10219000A64201D1002806D15E00A64203D8A6427D
:1021A0000AD1002A08D00D242404254233D0294620
:1021B000002000F06DF9F8BD0C461C4311D4994283
:1021C00007D0C81A02D3EFF30080F8BDEFF3008008
:1021D000F8BD801A02D3EFF30080F8BDEFF3008062
:1021E000F8BD09242407E5008B4207D0581A02D312
:1021F000EFF3008006E0EFF3008007E0101A03D34E
:10220000EFF30080A04303E0EFF30080A0432843F6
:1022100080F30088F8BD009500F052F9F8BD000089
:102220000000E0FFF0B53D4B02460C461C4000208C
:10223000002C63D03A4D8B4366D000296BDB0B0D2D
:102240001D05A94301252D0529430124FD33E34044
:1022500001D392184941FF3381339C468B02940D80
:102260000121234389074C42920200271B198C103D
:102270005D1A04D42D1B02D42B466500491992180F
:102280005B416408F4D15C1A08D40125ED07EE1710
:102290005519744102D42A462346491C94185B41BF
:1022A000012292071D46E61B8D4106D4B61A8541D0
:1022B00003D42B46550034467F1924195B4152083C
:1022C000802AEFD1234300D0022338460A22D0408F
:1022D00001D3012213438A0510436246890A12057D
:1022E0008918002B09D00122D34002D30022401CC0
:1022F0005141002B01D140084000F0BD0B031343B6
:1023000007D0C90FC907F0BD0803104303D1002946
:1023100001DB1046F0BD00202946F0BD0000F07F33
:102320000000F87F10B5FF231B0644009C421DD817
:102330004C009C421AD80346124A0B4307D4401A59
:1023400002D3EFF3008010BDEFF3008010BD081A38
:1023500003D3EFF30080904305E0EFF30080012109
:102360009043C907084380F3008810BD0D231B0468
:102370001A4204D01146002000F08AF810BD00F087
:10238000A9F810BD00000090004870471000202000
:102390007546FFF7F9FFAE46050069465346C0088B
:1023A000C000854618B020B5FDF716FF60BCB646E4
:1023B00000260027C0C5C0C5C0C5C0C5C0C5C0C5B2
:1023C000C0C5C0C5403D490849008D46704710B59D
:1023D0000446C046C0462046FDF7F0FE10BD000092
:1023E00082078B079A423FD170B5920F0AD003241F
:1023F00002780B78401C491C002A33D09A4231D114
:102400002042F5D1214EF40104C808C9951B95431B
:10241000254018D19A420FD104C808C9951B95438D
:10242000254010D19A4207D104C808C9951B95438D
:10243000254008D19A42E7D012BA1BBA01209A422D
:1024400000D2404270BD12BA1BBA2DBA1824100037
:10245000E0401900E140401A05D12E00E64002D1CB
:10246000083CF4D1D01A70BD02780B78401C491C8E
:10247000002A09D09A4207D102780B78401C491CE7
:10248000002A01D09A42EFD0D01A70470101010111
:10249000C80212D54803400F002804D0C803C04327
:1024A000012188407047EFF30080000100090321FB
:1024B0000907084380F30088704700207047000038
:1024C00010B500200249029A00F00CF810BD00007F
:1024D0000000F87F10B5024800F004F810BD0000BD
:1024E0000000C07F10B50C461107090F092904D060
:1024F0000A290AD008290CD104E011460820FFF768
:10250000C7FF06E0510606D501E0510601D50120BE
:10251000C007214610BDD10607D501010909CC0825
:102520004907000E0006044309E0410F2002490755
:10253000000A0143200E00061D22D1410143084636
:10254000E7E700000120C005014908607047C04668
:1025500090120A40811E091F00BFFCD27047000084
:10256000B0B51122120283580C4C1C400B894D88C7
:102570001D438B792B430A4D1D4063198350CB7942
:102580008C881C43097821435D239B0019408018E7
:1025900042689A4351184160B0BDC04680CCFFFFED
:1025A0007F33000010B50122120383180C785C60A1
:1025B0004978815010BD0000F0B584B06B4A821894
:1025C0000292734BC618784BC21800922A4BC4185B
:1025D0000A7901910D68294F202A03920AD0254BD0
:1025E000C018002A17D16B1E029A536023683B4023
:1025F000882517E0681E029A506020683840204BFA
:102600001843206060683840184360600120450727
:102610001C4F104608E06B08029A536023683B4049
:102620000525ED012B432360009903683B402B43B4
:10263000036030684F4B184030607068184070601D
:102640000020086048608F20C04323690340236155
:102650006369034063610198807903990843BD2150
:1026600001401068084B0340C818801C106004B07B
:10267000F0BDC046741800007018000024F93FF047
:1026800001040000FFFFFFCF4000FFCF70B5374AC5
:1026900082184B6853603E4BC3180878222857D8DD
:1026A000840001A52C59A7464727000051270000A8
:1026B0004727000051270000512700005127000044
:1026C000512700005127000051270000512700002A
:1026D000512700005127000051270000512700001A
:1026E0005127000051270000352700005127000026
:1026F0003527000051270000512700005127000016
:1027000051270000512700005127000051270000E9
:1027100051270000512700005127000051270000D9
:1027200051270000512700003527000051270000E5
:1027300035270000032424071568A54301246407F6
:102740002C19146004E0032424071568A5431560C0
:102750000C69D460CC68064D25401C68054E2640A7
:1027600074191C60097A0143116070BD04180000DF
:10277000777702008888FDFF10B507239B04194076
:1027800092008018024A84589C436118815010BD01
:102790003018000010B5029CA40000191143194321
:1027A000014A815010BDC0465018000092008018A8
:1027B000014A81507047C0461018000010B5012230
:1027C000120383180C789C604B7883508978014AF7
:1027D000815010BD0C110000B0B5112212028358B7
:1027E0000124A34383508B780C881C438B8823439C
:1027F000094C1C408358094D1D402B1983508B797F
:10280000CC791C43097A21437E2319408018426801
:102810009A4351184160B0BD18670000E798FDFF6A
:1028200010B50122120383180C789C6049788150FE
:1028300010BD0000F0B503200002244A11461039F3
:102840000E680640770A01256C020020C14320482B
:102850000346103B1B68002F0DD1002E19D03D4DB3
:102860002D6801262542344600D00C46194D2D68AE
:102870006519340208E0374E3668F6050E4600D575
:102880002E46144D2D687519124E35601568254376
:1028900015601A060BD45A0617D5304A126812066C
:1028A00000D401210C4A12688A18402108E02B4A02
:1028B0001268520600D50121074A12688A18802141
:1028C000054B1A6002680A430260F0BD48100A40D6
:1028D00048300A4074002020780020200120820324
:1028E0001C490B6813405A425A411B4B1A70020292
:1028F0001A4B1B6813405A425A41194B1A708204F2
:102900000B6813405A425A41164B1A7042040B6826
:1029100013405A425A41144B1A70C2030B681340B9
:102920005A425A41114B1A7042030B6813405A42E3
:102930005A410F4B1A7002030B6813405A425A4116
:102940000C4B1A70000409680140484248410A498A
:102950000870704780130A404321202080330A40CA
:10296000422120204121202040212020BC1C202069
:10297000BD1C2020BE1C2020BF1C20200120C00325
:1029800002490860024908607047C04680E200E0E2
:1029900000E100E0F0B599B00793179216911890F6
:1029A000F049086812900868119008681390EE4A80
:1029B00010680D9008681490EC4B18680A9008682D
:1029C000EB4F38681068049010680390106818681E
:1029D000106809903868089018680290186801908B
:1029E00018680C9038680B90386806903868059025
:1029F000E0480068E049086008680F90DF48026816
:102A00000E920A68109202681592096801603C688B
:102A10003E681868196803F0C9FF0546204631462C
:102A200003F0C4FF294603F0FDFE014603F0FAFE61
:102A300001467F20C005009004F010F8D0490860DE
:102A4000C84805683E68C8480068C84C216803F05B
:102A5000ADFF07462846314603F0A8FF0146384639
:102A600003F0FCFF014603F0DDFEC5494860BD48A8
:102A700005682668BC480168BD4C206803F096FFD5
:102A800007462846314603F091FF394603F0E6FF3A
:102A9000014603F0C7FEBA498860B2480568266857
:102AA000B1480068B149096803F080FF074628462D
:102AB000314603F07BFF394603F0B4FE014603F0D4
:102AC000B1FEB04908600C46A94805680668A649E9
:102AD0000868096803F06AFF07462846314603F094
:102AE00065FF394603F09EFE014603F09BFE01465A
:102AF000009803F0B3FF274660609A4804689A483C
:102B000005689A4800689A49096803F04FFF06462D
:102B10002046294603F04AFF0146304603F09EFF57
:102B2000014603F07FFEB8601298119903F03EFF52
:102B300000900498039903F039FF049002980199DA
:102B400003F034FF03900698059903F02FFF0590DA
:102B50001E980690014603F029FF0446079F384659
:102B6000394603F023FF214603F05CFE05461F9C17
:102B70002046214603F01AFF294603F053FE451074
:102B8000BF210906129103F011FFEE494E1B314699
:102B900003F00CFF314603F009FFFF218905119175
:102BA00003F040FE314603F001FF0646394603F0CC
:102BB000FDFE054602900098049903F04FFF03992B
:102BC00003F04CFF059903F02DFE0790294603F012
:102BD000EDFE059014980A9903F0E8FE0546099861
:102BE000089903F0E3FE07463046214603F0DEFE77
:102BF00004463846294603F031FF014603F012FE31
:102C000005462046294603F0D1FE059903F026FF2C
:102C100014903046069903F0C9FE06462846314610
:102C200003F0C4FE054613980D9903F0BFFE074656
:102C30000C980B9903F0BAFE0146384603F0F2FDFA
:102C4000014603F0EFFD07460298394603F0AEFE59
:102C5000294603F003FF13903846214603F0A6FEF1
:102C600004463046079903F0A1FE214603F0F6FE24
:102C70000646002103F01EFA04460F980E9988427A
:102C800001D3109802E0B048109908181599401A1D
:102C9000FEF7C6FBAD49FEF7A9FA002C189F159068
:102CA00072D105460021149803F004FA00286BD174
:102CB0000021139C204603F0FDF9002864D127462B
:102CC000A34C3046214603F071FE294603F06EFE08
:102CD000A04A11681096164603F0A4FD30601498BF
:102CE0002146264603F062FE294603F05FFEF64CBD
:102CF000216803F097FD20603846314603F056FE08
:102D0000294603F053FEF24C216803F08BFD20604E
:102D10002746914804682046109903F047FE189909
:102D200003F080FDE749096803F07CFD0646204674
:102D3000149903F03BFE169903F074FDE24909680B
:102D400003F070FD05462046139903F02FFE1799F6
:102D500003F068FD3968374603F064FD2A460446EF
:102D600014E0C046BC252020C0252020C4252020FA
:102D7000C8252020B4252020B0252020782520201B
:102D8000A425202040272020179C169A16929B48A5
:102D9000006814909A4806689A480168104603F043
:102DA00005FE05460120C00770403946189703F01C
:102DB000FDFD294603F052FE05469348006826466D
:102DC0002146179403F0F2FD0146284603F046FE23
:102DD000159C214603F0EAFD0146149803F022FDFC
:102DE00014908748006813908448056885480168F6
:102DF000304603F0DBFD06462846394603F0D6FD93
:102E0000314603F00FFD05467F480068169F39469E
:102E100003F0CCFD0146284603F020FE214603F0D6
:102E2000C5FD0146139803F0FDFC1390014603F025
:102E3000BDFD04461498014603F0B8FD214603F099
:102E4000F1FC0F906F48006810906C4806686C4861
:102E50000168179803F0AAFD0546304639463C46FE
:102E600003F0A4FD294603F0F9FD0546664E3068DF
:102E7000189903F09BFD294603F0D4FC159F3946B1
:102E800003F094FD0146109803F0CCFC109001462D
:102E900003F08CFD0F9903F0C5FC0F9030680E9085
:102EA00056480568564E3168204603F07FFD0446BB
:102EB0002846179903F07AFD214603F0B3FC044637
:102EC000504D2868189903F071FD0146204603F023
:102ED000C5FD394603F06AFD01460E9803F0A2FCD9
:102EE0000746014603F062FD0F9903F09BFC441076
:102EF000129903F05BFD13490C1B214603F056FDAC
:102F0000214603F053FD119903F08CFC214603F098
:102F10004DFD04461498214603F048FDE34908603E
:102F20001398214603F042FD30601098214603F0CB
:102F30003DFD28603846214603F038FDDE49086033
:102F400019B0F0BDDF59375FFFFF000000409C461D
:102F50006F12833A3022202000002020F0B589B083
:102F60000446224D284600F051F86868204E31464C
:102F7000FEF73CF90890A8683146FEF737F907904C
:102F8000E8681C4E314603F011FD1B4F3946FEF731
:102F90002DF906902869314603F008FD3946FEF701
:102FA00025F906466869134903F000FD3946FEF726
:102FB0001DF9074628680E49FEF718F903460898D8
:102FC000009007980190069831463A46FFF7E2FCD8
:102FD000B64800682060B64800686060B548006880
:102FE000A060B5480068E06009B0F0BD80252020F1
:102FF00000007A44DB0F494000003443BC25202008
:10300000C0252020C4252020C8252020F0B58FB061
:10301000019008A801460C310246183201F014FB59
:10302000254808AFEECF0E9CEEC0046018380C3077
:10303000642105AA02AB01F08DFB2049059803F03D
:1030400044F81F4E376800281BD1079D06981B497E
:1030500003F03BF8002814D11849284603F035F84E
:1030600000280ED1632F0CDB94490020086094499E
:103070000860164902AC1CCC1CC192490860019C36
:1030800003E0632F019C01DC781C306008AA07CAAA
:1030900007C40E4D29680B980C3C03F0DFFCE06080
:1030A00069680C9803F0DAFC2061A9680D9803F0B8
:1030B000D5FC60610FB0F0BD542120200AD7A33C9D
:1030C00070002020302220203422202020252020A3
:1030D00038222020F0B591B00590002004900C908B
:1030E0000B900A900DA8FFF739FF0E980990014642
:1030F00003F098FB05460D98014603F093FB0890FA
:1031000010990C4603F052FC06460F9928460D46CE
:1031100003F04CFC314603F085FBFEF73DF80190CF
:10312000009103200790870728460395394603F04E
:103130003DFC064606942046394603F037FC01461E
:10314000204603F033FC04463046294603F02EFCAB
:10315000214603F067FB7F21C905029103F062FB62
:10316000FEF71AF802460B460198009903F020FA80
:10317000354B049D2A46FDF7EBFE079A520707924E
:10318000324BFDF795FCFDF7A9FA059E30600998D2
:10319000394603F00BFC074601900398089903F0A9
:1031A00005FC04463846069903F000FC214603F06E
:1031B00039FBFDF7F1FF02F0B3FF2A46224BFDF782
:1031C000C7FE079A214BFDF773FCFDF787FA706085
:1031D000039E3046314603F025FB0546099F3846DD
:1031E000089903F0E3FB04462846069903F0DEFB4A
:1031F000214603F017FBFDF7CFFF04460891304648
:10320000294603F0D3FB05460198394603F0CEFB6F
:10321000294603F023FC029903F004FBFDF7BCFFF1
:1032200002460B462046089903F0C2F9084B049A5F
:10323000FDF78EFE079A054BFDF73AFCFDF74EFAB7
:103240000599886011B0F0BD008066C0FB2109407F
:103250000080664080B501200146024602F00CF96C
:10326000002803D00DA0FDF723F980BD7F20C00505
:103270000E4908600E48002101600E4801600E48AA
:1032800001600E4801600E4801600E4801600E4862
:1032900000680E4908600E49086080BD494D552000
:1032A0004552524F5221210D00000000BC25202024
:1032B000C0252020C4252020C82520203022202001
:1032C0003422202038222020B425202078252020D8
:1032D000B025202010B512480178491C0170C9B2F0
:1032E00003291CD3002202700E4801780E4B1C6883
:1032F000640701D4012111E01B68002B01D40221D5
:103300000CE001235C02094B1B68234000D103221F
:103310000270002B03D0002901D00548017010BDB8
:10332000BA1C2020BB1C202080130A4080330A4096
:10333000B91C202001208006074908607047C0465C
:1033400001208006084908607047C0460120C00679
:10335000014908607047C046A0120A400120C0061B
:10336000014908607047C04690120A4070B50D4987
:103370000B781C4A11461031012B154600D00D4622
:103380000124A6042E60012B00D01146E2040A603D
:10339000FEF702F801461E3113480022FFF706FA35
:1033A00070BDC0460C00202070B50D490B780D4A49
:1033B00011461031012B154600D00D46012426057B
:1033C0002E60012B00D0114622060A60FDF7E4FFB3
:1033D00001461E3104482246FFF7E8F970BDC04699
:1033E0000D00202090320A4000808640F0B581B068
:1033F000AE200024214600F015FC2046214600F0B6
:1034000011FC1020214600F00DFC402738462146D3
:1034100000F008FC8120214600F004FCCF2021466A
:1034200000F000FCA120214600F0FCFBC820214652
:1034300000F0F8FBA6263046214600F0F3FBA8205A
:10344000214600F0EFFB3F20214600F0EBFBD320AC
:10345000214600F0E7FB2046214600F0E3FBD520A3
:10346000214600F0DFFB80252846214600F0DAFBEC
:10347000D920214600F0D6FBF120214600F0D2FBF6
:10348000DA20214600F0CEFB1220214600F0CAFBD4
:10349000DB20214600F0C6FB3846214600F0C2FB87
:1034A0002020214600F0BEFB0220214600F0BAFB9E
:1034B0008D20214600F0B6FB1420214600F0B2FB1F
:1034C000A420214600F0AEFB3046214600F0AAFBC6
:1034D00001480246F83201E0C01C20201470114659
:1034E00008390C70114610390C70114618390C70DF
:1034F000114620390C70114628390C7011463039AC
:103500000C70114638390C70114640390C70114658
:1035100048390C70114650390C70114658390C70EE
:10352000114660390C70114668390C7011467039BB
:103530000C70114678390C70114680390C701146A8
:1035400088390C70114690390C70114698390C70FE
:103550001146A0390C701146A8390C701146B039CB
:103560000C701146B8390C701146C0390C701146F8
:10357000C8390C701146D0390C701146D8390C700E
:103580001146E0390C701146E8390C701146F039DB
:103590000C701146F8390C70012109025218203DB7
:1035A0009CD10346F93380221C701D46083D2C70C7
:1035B0001D46103D2C701D46183D2C701D46203DAB
:1035C0002C701D46283D2C701D46303D2C701D462C
:1035D000383D2C701D46403D2C701D46483D2C70DA
:1035E0001D46503D2C701D46583D2C701D46603DBB
:1035F0002C701D46683D2C701D46703D2C701D467C
:10360000783D2C701D46803D2C701D46883D2C70E9
:103610001D46903D2C701D46983D2C701D46A03DCA
:103620002C701D46A83D2C701D46B03D2C701D46CB
:10363000B83D2C701D46C03D2C701D46C83D2C70F9
:103640001D46D03D2C701D46D83D2C701D46E03DDA
:103650002C701D46E83D2C701D46F03D2C705D1809
:10366000F83B1C70203A2B469ED10346FA33802249
:103670001C701D46083D2C701D46103D2C701D46CB
:10368000183D2C701D46203D2C701D46283D2C7089
:103690001D46303D2C701D46383D2C701D46403D6A
:1036A0002C701D46483D2C701D46503D2C701D460B
:1036B000583D2C701D46603D2C701D46683D2C7099
:1036C0001D46703D2C701D46783D2C701D46803D7A
:1036D0002C701D46883D2C701D46903D2C701D465B
:1036E000983D2C701D46A03D2C701D46A83D2C70A9
:1036F0001D46B03D2C701D46B83D2C701D46C03D8A
:103700002C701D46C83D2C701D46D03D2C701D46AA
:10371000D83D2C701D46E03D2C701D46E83D2C70B8
:103720001D46F03D2C705D18F83B1C70203A2B466E
:103730009ED10346FB3380221C701D46083D2C7031
:103740001D46103D2C701D46183D2C701D46203D19
:103750002C701D46283D2C701D46303D2C701D469A
:10376000383D2C701D46403D2C701D46483D2C7048
:103770001D46503D2C701D46583D2C701D46603D29
:103780002C701D46683D2C701D46703D2C701D46EA
:10379000783D2C701D46803D2C701D46883D2C7058
:1037A0001D46903D2C701D46983D2C701D46A03D39
:1037B0002C701D46A83D2C701D46B03D2C701D463A
:1037C000B83D2C701D46C03D2C701D46C83D2C7068
:1037D0001D46D03D2C701D46D83D2C701D46E03D49
:1037E0002C701D46E83D2C701D46F03D2C705D1878
:1037F000F83B1C70203A2B469ED10346FC338022B6
:103800001C701D46083D2C701D46103D2C701D4639
:10381000183D2C701D46203D2C701D46283D2C70F7
:103820001D46303D2C701D46383D2C701D46403DD8
:103830002C701D46483D2C701D46503D2C701D4679
:10384000583D2C701D46603D2C701D46683D2C7007
:103850001D46703D2C701D46783D2C701D46803DE8
:103860002C701D46883D2C701D46903D2C701D46C9
:10387000983D2C701D46A03D2C701D46A83D2C7017
:103880001D46B03D2C701D46B83D2C701D46C03DF8
:103890002C701D46C83D2C701D46D03D2C701D4619
:1038A000D83D2C701D46E03D2C701D46E83D2C7027
:1038B0001D46F03D2C705D18F83B1C70203A2B46DD
:1038C0009ED10346FD3380221C701D46083D2C709E
:1038D0001D46103D2C701D46183D2C701D46203D88
:1038E0002C701D46283D2C701D46303D2C701D4609
:1038F000383D2C701D46403D2C701D46483D2C70B7
:103900001D46503D2C701D46583D2C701D46603D97
:103910002C701D46683D2C701D46703D2C701D4658
:10392000783D2C701D46803D2C701D46883D2C70C6
:103930001D46903D2C701D46983D2C701D46A03DA7
:103940002C701D46A83D2C701D46B03D2C701D46A8
:10395000B83D2C701D46C03D2C701D46C83D2C70D6
:103960001D46D03D2C701D46D83D2C701D46E03DB7
:103970002C701D46E83D2C701D46F03D2C705D18E6
:10398000F83B1C70203A2B469ED10346FE33802222
:103990001C701D46083D2C701D46103D2C701D46A8
:1039A000183D2C701D46203D2C701D46283D2C7066
:1039B0001D46303D2C701D46383D2C701D46403D47
:1039C0002C701D46483D2C701D46503D2C701D46E8
:1039D000583D2C701D46603D2C701D46683D2C7076
:1039E0001D46703D2C701D46783D2C701D46803D57
:1039F0002C701D46883D2C701D46903D2C701D4638
:103A0000983D2C701D46A03D2C701D46A83D2C7085
:103A10001D46B03D2C701D46B83D2C701D46C03D66
:103A20002C701D46C83D2C701D46D03D2C701D4687
:103A3000D83D2C701D46E03D2C701D46E83D2C7095
:103A40001D46F03D2C705D18F83B1C70203A2B464B
:103A50009ED1FF30802204700346083B1C70034651
:103A6000103B1C700346183B1C700346203B1C7027
:103A70000346283B1C700346303B1C700346383B12
:103A80001C700346403B1C700346483B1C700346B9
:103A9000503B1C700346583B1C700346603B1C7037
:103AA0000346683B1C700346703B1C700346783B22
:103AB0001C700346803B1C700346883B1C70034609
:103AC000903B1C700346983B1C700346A03B1C7047
:103AD0000346A83B1C700346B03B1C700346B83B32
:103AE0001C700346C03B1C700346C83B1C70034659
:103AF000D03B1C700346D83B1C700346E03B1C7057
:103B00000346E83B1C700346F03B1C704318F83832
:103B10000470203A18469ED100F006F8AF2000212C
:103B200000F080F801B0F0BDF0B585B001200106CD
:103B30000391400604900021394FB02002910843C0
:103B4000C0B20024214600F06DF82046214600F066
:103B500069F81020214600F065F8049EB34806601D
:103B6000039D05600A24204601F029F8AF4806614C
:103B7000204601F024F8AD480561204601F01FF809
:103B8000782000F06FFBA9480660204601F017F886
:103B9000A6480560204601F012F8A44805612046B9
:103BA00001F00DF8402000F05DFBA04806602046C3
:103BB00001F005F89D4805600646204600F0FFFF2D
:103BC0003561204600F0FBFF80260197387800F031
:103BD00049FB0498954908600A24204600F0EFFF4D
:103BE000039D92480560204600F0E9FF8F4805617B
:103BF000204600F0E4FF761E0837002EE6D1049C34
:103C00008A4D2C61039828600A2000F0D8FF2C60B0
:103C1000019F7F1C0299491C08298ED105B0F0BD77
:103C2000C01C2020F0B583B001910290012046060F
:103C30007E4D2E6007062F600A24204600F0BFFF4D
:103C40002E61204600F0BBFF2F61204600F0B7FF39
:103C5000782000F007FB2E60204600F0B0FF2F60B8
:103C6000204600F0ACFF2F61204600F0A8FF01992C
:103C7000481E8141880100F0F5FA2E60204600F0D0
:103C80009EFF2F60204600F09AFF2F61204600F033
:103C900096FF029800F0E6FA2E60204600F08FFFB3
:103CA0002F60204600F08BFF2F61204600F087FF39
:103CB0002E612F60204600F082FF2E6003B0F0BD21
:103CC00010B519480078401E03281BD878440079A5
:103CD000400087440118060F1748006801F08EFD68
:103CE00010BD12480068FDF731FB0146002002F0CC
:103CF000C5F810BD0D480068FDF728FB01460020FF
:103D000002F0B2F810BD0A4C20780028FAD007481B
:103D10000068FDF71BFB01460648006800F088FCC0
:103D20000020207010BDC046B82520202822202069
:103D30009021202024222020E8262020B0B53449DC
:103D400087228A63334804230360CA63082202601F
:103D5000314A82231363314C54630B604C608323DC
:103D60004B655362641C0C6593658123D3642C4CB2
:103D70000C664C66CB602B4D556693662A4D8D6163
:103D80004D619362D36293639364CC648C64CC651D
:103D90008C65146114605460D460546194619460C3
:103DA0004B638C60136553650B2189061F4A1161B3
:103DB0001F4911601F49116405210A041E4B1C682C
:103DC00014431C601D4A136830241C4314600323F1
:103DD0009C075568254355601A02194B1C6A144309
:103DE0001C621C6814431C600246403A47239B0433
:103DF00013600360080313490A6802430A6012480B
:103E0000016AC02211430162016811430160B0BD23
:103E100004804240D0320A40888042408200040040
:103E200081000C008100010081000E0090120A4008
:103E3000800080038000802F90130A4008150A40FC
:103E400028100A4090330A4028300A4070B582B0EA
:103E50001B4C1C492046FEF7B1FC1B492046FEF7CF
:103E6000ABFB1A4801681A4A0A4002600025009517
:103E7000204629462A462B46FEF78CFC204629463A
:103E80002A46FEF779FC204629462A46FEF78EFC94
:103E900001260096204629462A462B46FEF77AFC44
:103EA000204629463246FEF767FC20462946324620
:103EB000FEF77CFC074886600321016002B070BDFC
:103EC00000808640BC6D0000C06D000004988640F4
:103ED0007F00FFFF0091864010B50D4C0D49204634
:103EE000FEF760FB0C492046FEF73AFB0B484168A1
:103EF0000B4A0A40D11D4160816812220A432D21DC
:103F00008A438260016801220A43026010BDC046F4
:103F100000804640C86D0000CA6D00000491464014
:103F200000FCFFFF0F48002101600320C1430E4841
:103F30000246083A13680B4013600168012291435E
:103F40000160110203688B4303601103001F0268C4
:103F50000A430260FF20000204490A6882430A60A3
:103F60007047C04608030B4008010B4000E400E026
:103F70000548042101601F21416000218160016822
:103F800005220A430260704710E000E010B50C4CB7
:103F90000C492046FEF712FC0B492046FEF776FB43
:103FA0000A480168012211430160FF2000042B49E7
:103FB0000B6883439005181808600548026010BD1F
:103FC00000008640D46D0000D86D000028108640A7
:103FD0000811864010B50C4C0C492046FEF7EEFB4C
:103FE0000B492046FEF752FB0A48016802220A43A9
:103FF00002601A48016840220A43BF218A430260D6
:1040000005480121016010BD00400840EC6D000032
:10401000F06D0000285008400851084010B50B4CC6
:104020000B492046FEF7CAFB0A492046FEF72EFB45
:1040300009480168012211430160FF200006074979
:104040000B6883430B600648026010BD0020864069
:10405000046E0000086E00002830864010E400E086
:104060000831864010B5084C08492046FEF7A6FBEB
:1040700007492046FEF70AFB064801680122114362
:1040800001600548026010BD00A086401C6E000063
:10409000206E000028B0864008B1864010B5154C4F
:1040A00015492046FEF7BCFB14492046FEF794FB59
:1040B0000320C103124802688A43026001692C4A46
:1040C0000A4011320261416917220A4328218A43BA
:1040D000426141680122114043689343591841608D
:1040E0009102084B1C680C431C600168114301607D
:1040F00010BDC04600801040346E0000366E0000D7
:10410000009110402890104010B5154C15492046DC
:10411000FEF786FB14492046FEF75EFB0320C10331
:10412000124802688A4302600169114A0A4011324A
:104130000261416917220A4328218A43426141688A
:104140000122114043689343591841609102094B81
:104150001C680C431C6001681143016010BDC0461F
:1041600000201040406E0000426E00000031104000
:104170000000FFFF2830104080B500F02FF8FFF757
:10418000DDFDFFF7CFFEFFF761FEFFF7FFFEFFF754
:1041900021FFFFF743FFFFF765FFFFF7B5FFFFF7CD
:1041A0007DFFFFF799FEFFF7E3FEB82006490022E6
:1041B0000A549C21054B5A54054B1A540548425445
:1041C000242005490A5480BD0823202040222020B5
:1041D000C423202080242020E0222020F0B581B0BC
:1041E0001448154A42601548426015484260154817
:1041F0004260154D6A60154E7260154F7A60154B1E
:104200005A6015494A6015484260154A094C2260B7
:104210000A4C22600A4C22600A4C22602A603260FA
:104220003A601A600A6002601020FEF793F901B04C
:10423000F0BDC04600080A40030000B100280A4053
:1042400000888640000886400048084000288640D4
:1042500000A8864000281040008810400088464092
:1042600001000026F0B583B0029040B23F4E3746C1
:1042700010370028384600DA3046012461060191E3
:1042800001600A25284600F09AFC2406346028467E
:1042900000F095FC346102984006384600D530465F
:1042A00001990160284600F08AFC3460284600F03D
:1042B00086FC346102988006384600D53046019964
:1042C0000160284600F07BFC3460284600F077FC53
:1042D00034610298C006384600D530460199016025
:1042E000284600F06CFC3460284600F068FC34611D
:1042F00002980007384600D53046019901602846EB
:1043000000F05DFC3460284600F059FC34610298EE
:104310004007384600D5304601990160284600F034
:104320004EFC3460284600F04AFC34610298800755
:10433000384600D5304601990160284600F03FFC20
:104340003460284600F03BFC34610298C00700D07E
:10435000374601983860284600F031FC3460284622
:1043600000F02DFC346103B0F0BDC04690120A404D
:1043700080B506480068000606D0FFF7A1FCFEF7EE
:10438000A9FF03480121017080BDC046201086406E
:104390000927202004480068000603D0034801686C
:1043A000491C01607047C046203086407C25202093
:1043B00080B50848006800060BD00848007801283E
:1043C00005D105480078002801D100F0BDFB00F0C0
:1043D000C9F880BD205008403C222020082720201A
:1043E00010B5074C2068C0B2012807D10548016804
:1043F000491C0160FEF7A4FF0120A06210BDC04669
:1044000020B08640B4252020F0B581B04548006832
:10441000C0B20B2820D144480068444C21780025C4
:10442000072900D97AE0C0B27944097949008F445C
:1044300003351519073A5F26AA280DD101256DE02D
:104440003F490A78531C0B70394BD21850700878CA
:104450003849097888424FD201B0F0BD344908701C
:1044600003255BE0334908700878FA2856D83448A9
:1044700000220270087800283ED004254EE00A2869
:104480004CD12B4908782B4A1278032840D00228B7
:104490003BD0012842D1FEF753FF3FE0553841425F
:1044A00041414D003AE022490978224B1D784D40A8
:1044B000E9B21D78002D22D000251D4A56197778C3
:1044C00079401F786A1CBA4219D2B27851401A78E2
:1044D000AF1C974213D2F7784F401978EA1C8A42F2
:1044E0000CD2317979402D1D1A789542E5D306E03A
:1044F0000D2806D1072511E005250FE03946814238
:1045000001D000250AE0062508E0FEF713FF05E0CC
:10451000094801220270487808490860257001B0F6
:10452000F0BDC0462090104024911040CD262020A0
:10453000CC2520202C222020B8252020E826202051
:10454000CC26202080B505480068C0B20B2804D1D5
:1045500003480068C0B200F061FE80BD203010400A
:1045600024311040B0B5094C207800280DD0084DFA
:104570002888401C288080B20C2806D3FDF7E2FF73
:10458000FEF7D8FE002020702880B0BD51212020E9
:10459000522120207047000010B5FCF739FF1D4C58
:1045A00020601D480068FCF7D1FE1C4908801C4AA9
:1045B0001278022A08D11C4A782818DC3C3212B240
:1045C000904216DAB42212E0D21E012A11D8154AFE
:1045D0001278531E012B04D8134A7D2807DC37328A
:1045E000EDE7D21E012A04D80F4A462810DD101824
:1045F000088000B2FCF70CFF6060204600F0BAFEB5
:104600000A49204600F015FFE06AFCF79FFE10BD46
:104610006E32D4E7EC2120208C212020E8212020BC
:10462000702120204C2720204CFF00000000FA437E
:1046300010B50C46FFF7B0FF214601F0E3F910BDBD
:1046400080B5FFF799FD80BDF0B587B015460E46E1
:1046500007463A4803A900F011FB044601F052F85E
:10466000002809D03648374AED210B46FBF7C4FD38
:10467000642000F09DFA5EE00020019603A9085E28
:104680000E468000FCF7C4FEFCF786FD02952E4A1C
:104690002E4D2B46FCF70CFAFCF720F83860022070
:1046A000305E8000FCF7B4FEFCF776FD264A2B4610
:1046B000FCF7FEF9FCF712F878600420305E800009
:1046C000FCF7A6FEFCF768FD1F4A2B46FCF7F0F945
:1046D000FCF704F8B8600620305E009434467D2173
:1046E000CF007843FCF794FE0721CD06294602F05F
:1046F0005DF9019E30600820205E7843FCF788FE5B
:10470000294602F053F970600A20205E7843FCF7D6
:104710007FFE294602F04AF9B0600C20205E009C22
:10472000FCF776FE0F21890602F040F9084902F0F5
:1047300079F802990860204607B0F0BD30252020A6
:104740004C6E00009F6E0000FCA9F1D24D6240400B
:104750000000C841F0B595B012910546EF480468D5
:10476000EF480078012813921493119400D0C6E00A
:10477000E4002868FCF710FD0E900C91E9490A59F5
:104780000D9208510C196868FCF706FD09900A9112
:104790004B267701E1590891E051A868FCF7FCFC31
:1047A00006900591B201A3580493A05065680C9E31
:1047B0006660E019436807930A9B4360A01842684B
:1047C00003924160D94903C90D9C22462B46FCF750
:1047D0004CF90E9F3A463346FCF73AF91090D34A0B
:1047E00010600F9151602046294622462B46FCF767
:1047F000AFFB02460B46CE4903C9FCF736F9054626
:104800000C46384631463A463346FCF7A1FB2A4669
:104810002346FCF71DF90C90C54A10600B915160BE
:10482000C44903C9089E3246079C2346FCF71DF97C
:10483000099D2A460A9F3B46FCF70AF90E90BD4A9D
:1048400010600D9151603046214632462346FCF7F8
:104850007FFB02460B46B84903C9FCF706F904463C
:104860000E46284639462A463B46FCF771FB22464F
:104870003346FCF7EDF80890AF4A1060079151609D
:10488000AE4903C9049C2246039D2B46FCF7EDF874
:10489000069E3246059F3B46FCF7DAF8A84A1368A5
:1048A0000193526802920A90A44A106009915160E3
:1048B0002046294622462B46FCF74AFB02460B4679
:1048C00001980299FCF7D1F804460D463046394666
:1048D00032463B46FCF73CFB22462B46FCF7B8F839
:1048E0000690974A1060059151601198401C8B4AC0
:1048F000106012998842084600DB93E09BE01F4657
:10490000164628680C90FCF747FC10900F91E300C6
:104910008449C8508448306000220A923A60C8181E
:10492000049068680890FCF737FC0E900D913946AA
:104930004B2462010792049FB8507B4870600A982C
:104940004860AD682846FCF727FC09900691A10154
:10495000059178507448B0600F9B7B60734E03CE16
:10496000109A083EFCF774F8109030600F91716057
:104970000C98014602F01AF8FCF70EFC02460B46B2
:104980006B4C03CC083CFCF763F80C9020600B9157
:104990006160079838180D9B4360664C03CC0E9AF3
:1049A000083CFCF755F80E9020600D916160089866
:1049B000014601F0FBFFFCF7EFFB02460B465E4CA5
:1049C00003CC083CFCF744F8089020600791616034
:1049D000059838181499069B43600A988860574CCC
:1049E00003CC099A083CFCF733F80A90206009913F
:1049F00061601198441C494E34602846294601F0F4
:104A0000D5FFFCF7C9FB02460B464D4D03CD083DD3
:104A1000FCF71EF8034603C5129884427CDB32463D
:104A20000591069301213E4B1970002111603F2131
:104A30000A0644490A60FCF780FA02460D46109EB9
:104A400030460F9F394614462B46FCF731F8FBF7EA
:104A500045FE149908603046394632463B46FCF71D
:104A600077FA264622462B46FCF722F802460B46EA
:104A70000C980B99FBF7F9FF22462B46FCF718F828
:104A8000FBF72CFE139908600E9F38460D9C2146BB
:104A900032462B46FCF70CF8FBF720FE14994860D1
:104AA000384621463A462346FCF752FA32462B4610
:104AB000FBF7FEFF02460B4608980799FBF7D5FF68
:104AC00032462B46FBF7F4FFFBF708FE13994860CC
:104AD0000A9C2046099F394632462B46FBF7E8FFE1
:104AE000FBF7FCFD149988602046394622463B4678
:104AF000FCF72EFA32462B46FBF7DAFF02460B464E
:104B000006980599FBF7B1FF32462B46FBF7D0FF1D
:104B1000FBF7E4FD1399886015B0F0BD7C00202000
:104B2000B81C2020800020200000C842A01C2020AB
:104B3000F0262020A81C2020F8262020B01C2020B1
:104B40000027202000002020F0B581B0FEF7F8FB00
:104B50003224204600F02CF8FEF7ECFBFEF7FEFBBB
:104B60000F4F3D68204600F023F83E68204600F0D5
:104B70001FF80C48012101702846314601F052FE11
:104B8000396801F04FFE0849FCF730FB074908601F
:104B9000FEF7DCFB204600F00BF801B0F0BDC0468C
:104BA0008C2120203C222020000040402022202078
:104BB00080B57D2109024843FDF7CCFC80BD80B55E
:104BC0004001FDF7C7FC80BD034802210160016080
:104BD000024801600160704780E200E000E100E00F
:104BE00007490A68D20708D00A68D20705D00A68C0
:104BF000D20702D00A68D207F3D1C2B28A617047E5
:104C000008311040F0B581B014460D4601214E0721
:104C1000194F3E618021084300F0AEFF002C06D002
:104C2000002000F0A9FF28706D1C641EF8D13E60C2
:104C3000002001B0F0BDC046F0B583B0002A18D006
:104C40000D46044601204007019000260092019F76
:104C5000A85D0290084807613019C0B200F08CFFCF
:104C6000029800F089FF009A03480760761CB24260
:104C7000EED1002003B0F0BD90120A4070B50C4692
:104C8000054600210E22234600F03CF8697C0129EC
:104C900013D1218849BA2180618849BA6180A188ED
:104CA00049BAA18022460D3221460C3163895BBA94
:104CB00025896DBAE68876BA06E021460D3122468E
:104CC0000C3263892589E68863812581E680127824
:104CD000097809028918A18170BDB0B50C46054656
:104CE00072210122234600F00DF8A968002907D19E
:104CF000002805D0722101222846234600F002F840
:104D0000B0BD0000F0B587B01C460223DF430B0A9C
:104D10004AD004938BB2344D5E19761CB60A072E26
:104D200049D303909E18751907208002854242D30B
:104D3000751E05959D0A0195082D04D80297059DBD
:104D4000AD0B029F37D1294D5B195B1C834232D3D7
:104D5000731983422FD30598430B01200026042B9F
:104D6000034600D833460293019B212B00D33046E3
:104D7000059B1D0B0A2D1ED8029B18401BD10592C6
:104D800006AE717004983070039DE968042088476E
:104D90006B687C2002223146984700280BD1059988
:104DA0000020002910D107E00368C8B221469847C7
:104DB000002800D10746384607B0F0BD304608430A
:104DC000641C0599491EF7D005910646E968042040
:104DD00088472B687E2001222146984700283946C3
:104DE000ECD10146EAE7C046FFDBFFFFFF7BFFFF98
:104DF000F0B583B00D4604460C49012602AF324699
:104E00003B46FFF77FFF01903878EF210140E8072C
:104E1000C00E081838702046044932463B4600F060
:104E2000E2F90199084303B0F0BDC04658A2000062
:104E3000F0B583B0009104461B25012602AF294638
:104E400032463B46FFF75EFF01900F200099084075
:104E50003978F0220A401018387020462946324628
:104E60003B4600F0C0F90199084303B0F0BDF0B52E
:104E700083B0009104461B25012602AF2946324625
:104E80003B46FFF73FFF019038788F2101400098A3
:104E90004007400E081838702046294632463B46E7
:104EA00000F0A1F90199084303B0F0BDF0B583B05B
:104EB0000D4604460C49012602AF32463B46FFF739
:104EC00021FF0190072028403978F8220A40101865
:104ED00038702046044932463B4600F084F9019977
:104EE000084303B0F0BDC04683A50000F0B585B00F
:104EF000019104467E49012204ABFFF703FF0290B3
:104F0000002803D104988007C00F60741027012582
:104F100003AE204639462A463346FFF7F3FE00909B
:104F20000320019A02403078FC210140881830703B
:104F3000204639462A46334600F055F90099084381
:104F40000299084305B0F0BDB0B582B0002903D086
:104F500001293ED1562100E0162113780124234077
:104F60005578ED07AD0FEB189578ED076D0F5B19D0
:104F70001579ED07ED0E5B195579ED07AD0E5B194F
:104F80009579ED076D0E5B19D579ED015D1901ABD2
:104F90001D70157A2540547AE407A40F6419957A98
:104FA000ED076D0F6419D57AED072D0F6419157B88
:104FB000ED07ED0E6419557BED07AD0E6419927B7C
:104FC000D207520EA2185A70022200F00CF902B059
:104FD000B0BD0A20C04302B0B0BDF0B583B00091AF
:104FE00004461C25012602AF294632463B46FFF700
:104FF00089FE01900F20009908403978F0220A407C
:10500000101838702046294632463B4600F0EBF82F
:105010000199084303B0F0BDF0B583B00191044697
:105020001C25012602AF294632463B46FFF76AFEA1
:10503000009038780F21014001980001081838705D
:105040002046294632463B4600F0CDF800990843F9
:1050500003B0F0BDF0B583B00D4604460C490126FF
:1050600002AF32463B46FFF74DFE01900720284035
:105070003978F8220A401018387020460449324620
:105080003B4600F0B0F80199084303B0F0BDC046BC
:10509000ACA40000F0B585B001910446144901228A
:1050A00004ABFFF72FFE0290002803D1049880077D
:1050B000C00F60741027012603AD204639463246E2
:1050C0002B46FFF71FFE00902878F321014001983E
:1050D0008007000F081828702046394632462B46B4
:1050E00000F081F8009908430299084305B0F0BD2B
:1050F00067A20000F0B583B01446002903D001294F
:1051000024D1582100E01821012602AF0546009164
:1051100032463B46FFF7F6FD019020783040397863
:10512000F8220A4010186178C907890F0818A17879
:10513000C907490F401838702846009932463B4647
:1051400000F051F80199084303B0F0BD0A20C043B4
:1051500003B0F0BDF0B589B005462D21012408ABA0
:105160002246FFF7CFFD0390322107AB28462246A7
:10517000FFF7C8FD049006AB022018707F21284677
:10518000224600F030F80290E968002902D07D2024
:10519000C00088473221012607AB2846324600F07E
:1051A00022F801902D2108AB2846324600F01BF86A
:1051B0000746192105AC284632462346FFF7A2FDD3
:1051C000014600202256002A02D4C04309B0F0BD97
:1051D0000498039A1043029A1043019A10433843EB
:1051E000084309B0F0BD10B50C0A02D000F04EFE25
:1051F00010BD4468C8B21946A047002801D002205B
:10520000C04310BD012080030249086002490860C4
:105210007047C04680E200E000E100E0B0B5294CF4
:10522000217800290BD02178012914D1532848D1A5
:1052300025480078254953220A54022507E05528BD
:105240003FD121480078214955220A5401251E48A2
:105250000570257035E02178022932D11A4A137879
:105260001A49C854581C1070C0B20B2829D10878AC
:105270004A7810188A781018CA7810180A79101805
:105280004A79121888798318CA79D3180D7AEB18DD
:105290004D7AEB18DBB2897A00258B42D7D10C49C5
:1052A00001230B701102081800B2FCF7B1F80721B6
:1052B000C90601F07BFB074901F078FB064908604D
:1052C000C5E7B0BD502120204F21202044212020BF
:1052D00090212020000034438C21202086B0FFF74D
:1052E000AFF9FFF78FFF6420FFF762FCFDF7B2FF15
:1052F00000F072FC1420FFF75BFCFEF777F8FDF777
:105300003DFBFFF761FC00F057FC00F05DFC114D28
:105310002846FDF7DFFE6868FBF73EFF05900E4666
:10532000A868FBF739FF07460C462868FBF734FFEF
:10533000094A0A4BFBF78CFB0246059800ABC1C338
:10534000039407A00B46FAF757FF0A20FFF730FC3B
:10535000DEE7C0465027202048E17A14AEC734C0AB
:10536000252E32662C20252E32662C20252E3266E4
:105370000D0A0000F0B583B004460068616801F0D2
:105380006DFB0546A060206B00282DD001284BD175
:10539000A169284601F00AFB0290A062E66828464F
:1053A000314601F05BFB0146606901F0FFFA0190B4
:1053B00020623046314601F035FA0146284601F0B8
:1053C0004DFB216901F02EFA0146E06901F0EEFA89
:1053D000074660620198029901F024FA394601F00B
:1053E00021FA0146E06A1BE06169284601F0DEFA15
:1053F00002902062A169284601F0D8FA0190A062CB
:10540000E6682846314601F029FB0146E06901F0D3
:10541000CDFA074660620298019901F003FA394615
:1054200001F000FAE06200E0E668E560266103B0A2
:10543000F0BDF0B581B00D460446C76A384600F0AD
:1054400044FE00282E4600D13E460121C9074D40AA
:10545000002807D13046294600F042FE002801D03E
:1054600001B0F0BD3046294600F045FE002800D1CD
:105470003546E56201B0F0BDF0B58BB00492039102
:1054800005460AA800240470824E834801278349F8
:10549000834A32607160B760F0608248FFF78FFB2B
:1054A000B068401E012813D805AB04201870794855
:1054B00032210122FFF797FE064600F023F900286B
:1054C00003D07948794A9A210EE00220FFF777FB52
:1054D00070480AA9FFF701FC064600F013F90028FE
:1054E0000BD07148714AA0210B46FAF785FE642063
:1054F000FFF75EFB30460BB0F0BD0AA80078E92844
:105500000BD16448FFF726FE064600F0FBF80028A2
:1055100014D06548654AA921E6E765A0A221FAF7FB
:105520006BFE0AA802786AA0A321FAF765FE6EA0B6
:10553000A421E922FAF760FEE643DBE709AA9470AA
:105540005470177053482146FFF7D4FD064600F00B
:10555000D9F8002803D05448544AB521C4E705AA15
:105560009473948105949770079406944948214652
:10557000FFF7EAFC064600F0C5F8002803D04A48C9
:105580004A4ABB21B0E7434E032130460191FFF761
:105590006EFC0290022730463946FFF73DFD064675
:1055A00002980643304600F0ADF8002E03D03E4886
:1055B0003E4AC02198E70097364F082638463146C4
:1055C000FFF736FC029038463146FFF706FD0646E7
:1055D00002980643304600F095F8002E03D032487A
:1055E000324AC52180E72B4F012638463146FFF766
:1055F0005DFC029038463146FFF72CFD06460298C6
:105600000643304600F07EF8002E03D02648274A95
:10561000CA2169E71F480121FFF7EAFB064600F0AF
:1056200071F8002803D02048204ACE215CE7002DE5
:105630001FD00398002804D016480321FFF756FC1A
:10564000044604980028019903D01248FFF722FD70
:105650000443204600F056F8002C13D01248134A99
:10566000E3210B46FAF7C8FD6420FFF7A1FA2646AE
:1056700040E70398002807D006480221FFF736FCD0
:10568000044602E0002635E700240498002800992B
:10569000DBD1DEE730252020BF4B0000394C000075
:1056A000054C0000B80B00004C6E00009F6E00001F
:1056B00025642C4572726F6E656F75732057484F65
:1056C000414D492076616C75652E0D0A0000000081
:1056D00025642C20202D20526561642030782530EF
:1056E00032780D0A0000000025642C20202D204572
:1056F00078706563746564203078253032780D0ADF
:105700000000000010B504460B300B280FD8C0462F
:1057100078440079400087440511111111111119C5
:105720001E1114247E20C143743116A017E02046B8
:105730007F3003D17E20C1430BA010E02AA0214678
:105740000DE07E20C1437E31264808E07E20C14323
:105750007B3114A003E07E20C1437C312048FAF75E
:105760004BFD204610BDC04645444D502062756635
:1057700066657220697320656D70747920282564D0
:1057800029000000496E76616C696420617267755A
:105790006D656E742070726F76696465642028256B
:1057A00064290000416374696F6E20646964206E2F
:1057B0006F7420636F6D706C65746520696E207402
:1057C00068652065787065637465642074696D65CB
:1057D0002077696E646F7720282564290000000017
:1057E000616E0000886E0000556E6B6E6F776E20E4
:1057F0006572726F7220282564290000F0B581B0AF
:105800000546CD4800F088F8CC480068FBF79EFDBF
:10581000281AFBF7FDFD0446C948016804602046CC
:1058200001F01CF90646C7480068214601F0BEF8A1
:105830000446C5480068314601F0B8F8214600F03A
:10584000F1FF0146C14F386800F0ECFF04463860B4
:10585000BF4E314600F039FC002806D1BD4E20462F
:10586000314600F03DFC002801D13E603446BA4884
:105870000068FBF76BFD281AFBF7CAFD0546B74821
:1058800001680560284601F0E9F80646B44800685A
:10589000294601F08BF80546B2480068314601F010
:1058A00085F8294600F0BEFF0146AF4F386800F08A
:1058B000B9FF05463860A64E314600F006FC0028C8
:1058C00006D1A44E2846314600F00AFC002801D13A
:1058D0003E6035462846FBF739FD05460126002780
:1058E0000028304600DC3846A04908702046FBF707
:1058F0002DFD002800DC3E469D490E70FBF788FD1B
:105900009C4C2040FDF732FD2846FBF781FD2040EE
:10591000FDF74AFD01B0F0BDF0B585B004462F4853
:1059200001682F4A126802602E48036804932E4BC8
:105930001B6803930360501AFBF76AFD2B49FBF7C2
:1059400055FCFBF729FC2A4A2A4BFBF701FB0122F5
:1059500092070292284BFBF7ABF8FAF7BFFE064618
:105960007F20C0050194214601F078F80090234D76
:10597000296801F01BF807462046314601F016F869
:10598000394600F04FFF28606C490860049803997D
:10599000081AFBF73DFD1549FBF728FCFBF7FCFB5C
:1059A000134A144BFBF7D4FA029A134BFBF780F817
:1059B000FAF794FE0446124E3168009800F0F6FFA4
:1059C00005460198214600F0F1FF294600F02AFF24
:1059D00030606149086005B0F0BDC046D82620207F
:1059E00074002020DC26202078002020008036440F
:1059F000C598CF3C5723CA3FE17A843FE026202058
:105A0000E4262020F0B581B0009106464A48FFF711
:105A100083FFF01731464140081A052800D20026BE
:105A200046480068FBF792FC301AFBF7F1FC05468C
:105A3000434801680560284601F010F807464148D0
:105A40000068294600F0B2FF05463F480068394625
:105A500000F0ACFF294600F0E5FE01463B4C206813
:105A600000F0E0FE05462060394F394600F02DFB7E
:105A7000002806D1374F2846394600F031FB002870
:105A800001D127603D4634480068FBF75FFC301ABF
:105A9000FBF7BEFC0646314801680660304600F060
:105AA000DDFF07462E480068314600F07FFF0646BE
:105AB0002C480068394600F079FF314600F0B2FE0C
:105AC0000146294C206800F0ADFE06462060204FBC
:105AD000394600F0FAFA002806D11E4F3046394602
