:020000040000FA
:10000000081720208D0100009101000093010000DD
:1000100000000000000000000000000000000000E0
:10002000000000000000000000000000950100003A
:10003000000000000000000097010000990100008E
:100040009B010000010800009B0100009B010000D3
:100050009B0100009B0100009B0100009B01000030
:10006000000000009B0100009B0100000000000058
:10007000000000009B0100008D1600009B010000A5
:10008000E10E00009B010000C90E00009B01000072
:100090009B0100009B010000000000000000000028
:1000A0009B0100009B010000000000000000000018
:1000B0009B010000000000009B0100009B0100006C
:1000C00000F002F800F052F812A030C808382418E6
:1000D0002D18AC4201D100F049F80FCCA246AB4636
:1000E0000CA730CF2D1B083F3F197C427F1E544484
:1000F0002D090426F441641EAC4201D300F036F809
:100100000126334200D0FB1A3343984754465D46DC
:10011000DFE700005421000074210000000000000F
:10012000103A02D378C878C1FAD8520701D330C840
:1001300030C101D504680C60704700000000000069
:100140007047000000000000002300240025002666
:10015000103A01D378C1FBD8520700D330C100D583
:100160000B6070471FB51FBD10B510BD00F07AF9C8
:100170001146FFF7F7FF01F02FFC00F092F903B4EE
:10018000FFF7F2FF03BC01F0AFFA0000064800479A
:10019000FEE7FEE7FEE7FEE7FEE7FEE70348044969
:1001A000044A054B70470000C100000008032020EE
:1001B00008172020081320200813202070477047BC
:1001C00070470000F0B5FF252D04C609C209FF27BE
:1001D00004462E400137CB093E4348402A402B407D
:1001E0000746002A6BD0002B69D0AA4267D0AB42E9
:1001F00065D0002800DA32460125ED0529432C435D
:1002000009022002090AD21A4B0C7F24E31A434C3C
:10021000000A7C44E35C7D242404121914145B005E
:10022000A218884201D3521C00E0400049420C460B
:100230005C4324115C43DB016415E318040A5C434E
:10024000C502200D0C4644436419250A5D4323036F
:10025000EC0C0D46654300030019EB184C42A34219
:1002600001D35B18401CD4052018002B07D05B007D
:10027000C91804D3401C002901D1400840003F2187
:1002800089048A4209D3002A08DC1106090F04D028
:10029000032149074018C00FC007F0BD01224100EB
:1002A000120689187F2252069142F6D2052149078B
:1002B000C84201D59010F0BDFF20C005F0BD002F51
:1002C00000DA32461648AA4207D2AB4205D21902DA
:1002D000090E17D0F80FC007F0BDFF2563002D06EB
:1002E000AB42F9D84900A942F6D8AB4201D1A942A4
:1002F000F2D0A94201D1002101E061004908D005F6
:100300000843F0BD1102090EFBD0FF200243D005C7
:10031000F0BD0A460146104654E70000CA1F00001F
:100320000000C07F10B501469E240002CA15A30735
:10033000002A02D01843002A04DBA21A002A0CDD8E
:10034000D04010BD1206120E01D140004008A21A82
:1003500003D4D04040420028F3DDFF2248001206BB
:10036000904201D9002010BDC817C043584010BDAD
:100370000102C21504D00123DB071943002A0ADB5E
:100380009E239A1A02D40846D0407047FF224100AB
:100390001206914201D900207047C017C043704730
:1003A0001F22030C02D10F2200041CD0030E01D126
:1003B0000002083A030F01D10001121F830F01D17F
:1003C0008000921E002801DB4000521ED205511809
:1003D000021251181922904004D3491C002801D15F
:1003E0004908490008467047C10FC90700D040427C
:1003F000012292071143D3E701218907D0E70000CA
:1004000010B5FF231B0644009C421DD84C009C42A3
:100410001AD80346124A0B4307D4401A02D3EFF30B
:10042000008010BDEFF3008010BD081A03D3EFF376
:100430000080904305E0EFF3008001219043C9075D
:10044000084380F3008810BD0D231B041A4204D01A
:100450001146002000F02DF810BD00F041F810BD4D
:1004600000000090754600F043F8AE46050069466E
:100470005346C008C000854618B020B5FFF78EFE71
:1004800060BCB64600260027C0C5C0C5C0C5C0C5F3
:10049000C0C5C0C5C0C5C0C5403D490849008D465E
:1004A000704710B50446C046C0462046FFF767FEB9
:1004B00010BDC80212D54803400F002804D0C8035D
:1004C000C043012188407047EFF30080000100091C
:1004D00003210907084380F3008870470020704714
:1004E00010B5024800F008F810BD00000000C07F01
:1004F000004870471800202010B50C461107090F5E
:10050000092904D00A290AD008290CD104E011468F
:100510000820FFF7CEFF06E0510606D501E05106A0
:1005200001D50120C007214610BDD10607D5010124
:100530000909CC084907000E0006044309E0410FF1
:1005400020024907000A0143200E00061D22D14166
:1005500001430846E7E700000120C00501490860A3
:100560007047C04690120A400120C005014908604A
:100570007047C046A0120A40811E091F00BFFCD26E
:1005800070470000F0B584B06B4A82180292734B3A
:10059000C618784BC21800922A4BC4180A790191E8
:1005A0000D68294F202A03920AD0254BC018002A33
:1005B00017D16B1E029A536023683B40882517E0D1
:1005C000681E029A506020683840204B1843206013
:1005D0006068384018436060012045071C4F104692
:1005E00008E06B08029A536023683B400525ED0143
:1005F0002B432360009903683B402B430360306822
:100600004F4B1840306070681840706000200860E0
:1006100048608F20C043236903402361636903401E
:1006200063610198807903990843BD2101401068F6
:10063000084B0340C818801C106004B0F0BDC046D1
:10064000741800007018000024F93FF00104000045
:10065000FFFFFFCF4000FFCF70B5374A82184B68CD
:1006600053603E4BC3180878222857D8840001A550
:100670002C59A746130700001D07000013070000B0
:100680001D0700001D0700001D0700001D070000DA
:100690001D0700001D0700001D0700001D070000CA
:1006A0001D0700001D0700001D0700001D070000BA
:1006B0001D070000010700001D07000001070000E2
:1006C0001D0700001D0700001D0700001D0700009A
:1006D0001D0700001D0700001D0700001D0700008A
:1006E0001D0700001D0700001D0700001D0700007A
:1006F0001D070000010700001D07000001070000A2
:10070000032424071568A543012464072C191460E9
:1007100004E0032424071568A54315600C69D46020
:10072000CC68064D25401C68054E264074191C6097
:10073000097A0143116070BD041800007777020048
:100740008888FDFF10B507239B041940920080188C
:10075000024A84589C436118815010BD3018000033
:1007600010B5029CA400001911431943014A81509D
:1007700010BDC0465018000092008018014A8150F8
:100780007047C0461018000010B5012212038318EC
:100790000C789C604B7883508978014A815010BD59
:1007A0000C110000B0B51122120283580124A3439A
:1007B00083508B780C881C438B882343094C1C4046
:1007C0008358094D1D402B1983508B79CC791C43DC
:1007D000097A21437E231940801842689A435118B0
:1007E0004160B0BD18670000E798FDFF10B5012219
:1007F000120383180C789C604978815010BD00006A
:10080000F0B581B0032001022A4D28461038006857
:100810000840410A01246702274A103A1668002955
:1008200007D100281ED09548006838420ED02349D1
:100830000EE092480068C00502D57F20C10500E0A7
:100840001E491F48006801F071FB06E07F20C105CA
:100850001B48006801F06AFB2702194908602868F4
:1008600038432860300607D4700620D55F480068FA
:1008700000060FD511490FE05C480068400602D51C
:100880007F20C10500E00D490E48006801F04EFBD5
:10089000802106E07F20C1050A48006801F046FB80
:1008A0004021084A1060044A10680843106001B0F3
:1008B000F0BDC04648100A4048300A40000080BFE2
:1008C000780020207C00202010B525480188491C94
:1008D0000180474A1278521E53425341424A1278CD
:1008E000521E544254411C43424A1278521E5342F3
:1008F00053412343404A1278521E544254411C43F0
:100900003E4A1278521E5342534123433C4A1278C6
:10091000521E544254411C433A4A1278521E5342CA
:1009200053412343384A1278521E544254411C43C7
:10093000E2070BD00D480188491C018009B2032948
:100940000CDB084901220A80054904E009B2064A85
:10095000914203DB0349002202800A8010BDC04699
:10096000EC00202088002020B80B0000860020200A
:100970000120820341490B6813405A425A411A4BE5
:100980001A700202194B1B6813405A425A41184B05
:100990001A7082040B6813405A425A41154B1A7060
:1009A00042040B6813405A425A41134B1A70C20357
:1009B0000B6813405A425A41104B1A7042030B689D
:1009C00013405A425A410E4B1A7002030B681340EF
:1009D0005A425A410B4B1A700004096801404842C0
:1009E00048410949087070479300202080330A402D
:1009F00092002020910020209000202082002020C2
:100A000083002020840020208500202010B51B4C6E
:100A10002068400713D4282000F010FF206840070A
:100A200008D42068400705D42068400702D4206815
:100A30004007F3D5282000F001FF012010BD002061
:100A400010BDC04610B50D4C2068002813D42820D6
:100A500000F0F4FE2068002808D42068002805D49F
:100A60002068002802D420680028F3D5282000F050
:100A7000E5FE012010BD002010BDC04680130A40D5
:100A800001208006074908607047C04601208006A3
:100A90005D4908607047C0460120C00601490860F2
:100AA0007047C046A0120A400120C006564908609F
:100AB0007047C04670B50D490B781C4A114610317D
:100AC000012B154600D00D460124A6042E60012BF3
:100AD00000D01146E2040A60FFF74AFC01461E31CD
:100AE0006C480022FFF748FE70BDC046140020206D
:100AF00070B50D490B780D4A11461031012B154682
:100B000000D00D46012426052E60012B00D0114691
:100B100022060A60FFF72CFC01461E315D48224682
:100B2000FFF72AFE70BDC0461500202090320A4013
:100B3000B0B52E4987224A622D48042303608A6299
:100B4000082202602B4A822313622B4B53628124BA
:100B5000D4632A4BCB642A4D55659465294D4D606D
:100B60000D609461D461946294638B634B638B6476
:100B70004B6413600B674B67CB67536093608B6765
:100B800003229106204B19610121C9051960192121
:100B9000C905196405210B041C4C25681D432560FB
:100BA0001B4B1C68302525431D6094075D68254359
:100BB0005D601202174B1C6A14431C621C681443CC
:100BC0001C600246403A47239B04136003600803FD
:100BD00011490A6802430A601048016AC0221143A1
:100BE0000162016811430160B0BDC04618804240F7
:100BF000D0320A40988042408200040081000C00FC
:100C00008100010081000E0090120A4090130A40FA
:100C100008150A4028100A4090330A4028300A403C
:100C200070B582B01B4C1C492046FFF7ADFD1B4937
:100C30002046FFF7A7FC1A4801681A4A0A400260DA
:100C400000250095204629462A462B46FFF788FDB9
:100C5000204629462A46FFF775FD204629462A46A2
:100C6000FFF78AFD01260096204629462A462B4694
:100C7000FFF776FD204629463246FFF763FD204602
:100C800029463246FFF778FD074886600321016058
:100C900002B070BD008086402022000024220000A7
:100CA000049886407F00FFFF009186400F48002196
:100CB00001600320C1430E480246083A13680B4006
:100CC00013600168012291430160110203688B43A4
:100CD00003601103001F02680A430260FF20000244
:100CE00004490A6882430A607047C04608030B4003
:100CF00008010B4000E400E00548042101601F21C9
:100D0000416000218160016805220A43026070474A
:100D100010E000E010B50C4C0C492046FFF734FD04
:100D20000B492046FFF798FC0A480168012211434D
:100D30000160FF2000041A490B68834390051818CE
:100D400008600548026010BD000086402C220000AB
:100D500030220000281086400811864010B50C4C47
:100D60000C492046FFF710FD0B492046FFF774FCA5
:100D70000A48016802220A430260094801684022C9
:100D80000A43BF218A43026006480121016010BD69
:100D9000004008404422000048220000285008403B
:100DA00010E400E00851084010B5154C15492046E4
:100DB000FFF71CFD14492046FFF7F4FC0320C10394
:100DC000124802688A4302600169114A0A401132DE
:100DD0000261416917220A4328218A43426141681E
:100DE0000122114043689343591841609102094B15
:100DF0001C680C431C6001681143016010BDC046B3
:100E0000002010405C2200005E22000000311040F3
:100E10000000FFFF2830104080B500F01BF8FFF7FE
:100E200087FEFFF743FFFFF7FBFEFFF773FFFFF7B8
:100E300095FFFFF7B9FFFFF75FFFB82003490022D6
:100E40000A549C2002490A5480BDC046A0012020BB
:100E50000001202070B50C480C4941600C4A5160DB
:100E60000C4B59600C4C61600C4D69600C4E71600C
:100E70000C49016011601960216029603160102007
:100E8000FFF77AFB70BDC04600080A40030000B1BE
:100E900000280A4000888640000886400048084034
:100EA000002810400100002610B5064C20780028CC
:100EB00000D010BDFFF758FBFFF7E8FD01202070C0
:100EC00010BDC046A500202080B50448006800067B
:100ED00003D0FFF74DFD00F04BFE80BD2010864093
:100EE00080B50848006800060BD06B4800780128E0
:100EF00005D168480078002801D100F06DFC00F0B1
:100F0000DBFB80BD2050084070B582B05F4C20787C
:100F1000022823D0012806D0002832D15F480021C2
:100F2000018001252CE000210091C12002065E48CD
:100F30000B4600F0B7FD564859490160574D2888C7
:100F4000002808D1574EFFF7BFFC306800F0CEFBF9
:100F500028880028F7D02078451C11E0FFF7A4FF6F
:100F60004B480025056000F08FFDEC480188002902
:100F700007D0E8490D70E6490D70E7490D7005800E
:100F8000257002B070BDC04670B582B0D84D2878CB
:100F9000052800D978E0C0467844007940008744AD
:100FA000024A2937185000240094DF48E84A2146B5
:100FB000234600F077FD0094C1200206E148214657
:100FC000234600F06FFDD64835490160D3480480C0
:100FD00057E0FFF769FFD248D2490160CF4C208823
:100FE000002804D0FFF770FC00F0E4FDF7E7FFF7FE
:100FF0005BFF46E0FFF758FFC948CA490160C74C8C
:10100000208800283DD0FFF75FFC00F0D3FDF7E714
:10101000FFF74AFFC24822490160C04C20880028DF
:101020002FD1204EFFF750FC306800F05FFB208886
:101030000028F7D025E0B94C2088002818D00224D9
:1010400021E0B7480024046000F01EFD642000F099
:10105000F5FBAD480480AB480480AC480470AC4854
:101060000470AC480470AC480470AC4804800AE0DA
:101070000C4EFFF729FC306800F038FB2088002870
:10108000F7D02878441C2C7002B070BD00032020DB
:10109000F0002020FD002020C50220208800202014
:1010A0000000C843E8002020B4002020F0B583B041
:1010B0008F4D2878052800D917E1C046784400797B
:1010C00040008744024C1D33076E94480021018084
:1010D000012009E1FFF7E8FE9148924901600021F3
:1010E00000919148914A0B4600F0DCFC8B4C208823
:1010F000002800D1F6E0FFF7E7FB00F05BFDF6E724
:10110000FFF7D2FE8648874901600021009186489A
:101110008F4A0B4600F0C6FC804C2088002800D186
:10112000E0E0FFF7D1FB00F045FDF6E7FFF7BCFE7E
:10113000764C012020707A490020029008607C4E95
:101140007C4F714D386800F0D1FA2888401C288007
:1011500000B2B04246DC20780028F3D147E06B4D66
:10116000012028706E48002404607A480090754879
:10117000754A2146234600F095FC2878002879D04E
:101180006B4E754D604F286800F0B0FA3888401CEF
:10119000388000B2B04268DC5C4800780028F2D1A8
:1011A00068E0FFF781FE00F06FFC642000F046FB72
:1011B0005049002008605049086050490860504973
:1011C00008605049088050490880504908705049CB
:1011D00008705049087050490870504908805049BB
:1011E000086081E0029929804648018021704148C9
:1011F0000299016040480160404801604048016038
:101200004D48474A10604D4E306800F083FE00287C
:1012100016D14B4C386800F069FA00F033FB3648C1
:10122000006820403568294600F05CFE002807D1A0
:10123000304800682040294600F05FFE0028E9D1D0
:10124000029900913F48404A0B4600F02BFCEB4DC1
:101250002888002845D13D4CFFF736FB204600F09A
:1012600045FA28880028F7D03BE03C80F548048008
:10127000F8480470FA480460FA480460FA480460C8
:10128000FA480460FA48ED490860E14F38682146A1
:1012900000F040FE002817D1D94DF64E286800F026
:1012A00025FA00F0EFFAEF48006830403C6821462C
:1012B00000F018FE002807D1E948006830402146B8
:1012C00000F01BFE0028E9D1CC4D2888002808D169
:1012D000ED4CFFF7F9FA204600F008FA28880028BC
:1012E000F7D0C54D2878401C287003B0F0BDC0462B
:1012F00000032020F8002020F40020207800202087
:101300007C002020EC002020FE022020FC02202077
:10131000A8002020FD002020C502202088002020D9
:10132000F00020200000C343C802202066669640DB
:101330007C2E0000080020200000F0431000202038
:10134000FFFFFF7FB40020200000E0C0000080BF4E
:101350009A999940CDCCCCBD04002020F0B583B043
:10136000A54D2878052800D943E1C0467844007986
:101370004000874402511E380973012028709F489D
:101380000021018003B0F0BDFFF78EFDAB48AE49F0
:10139000016000210091AD48AD4A0B4600F082FB90
:1013A000964C2088002819D0FFF78EFA00F002FC36
:1013B000F7E7FFF779FDA148A349016000210091FB
:1013C000A248AF4A0B4600F06DFB8C4C20880028E9
:1013D00004D0FFF779FA00F0EDFBF7E72878401C1E
:1013E000287003B0F0BDFFF75FFD9A4C012020701C
:1013F000F349002002900860974E834F974D38685C
:1014000000F074F92888401C288000B2B04245DC06
:1014100020780028F3D146E08E4D01202870E8485E
:101420000024046097480090DF48934A21462346F1
:1014300000F038FB2878002878D0874E704D874F11
:10144000286800F053F93888401C388000B2B04258
:1014500067DC804800780028F2D167E0FFF724FDC0
:10146000664800240480664966480860664B674801
:1014700018606748674A0260674A684D1560684DA2
:101480002F787E1C2E70022F00D193E0012F00D107
:1014900089E0002F00D099E0674990E00299298007
:1014A0006848018021706E48029901606D480160B2
:1014B0006D4801606D4801606D48C14A1060564E2C
:1014C000306800F027FD002816D16A4C386800F01B
:1014D0000DF900F0D7F9F848006820403568294632
:1014E00000F000FD002807D1F5480068204029469B
:1014F00000F003FD0028E9D102990091AA485E4A54
:101500000B4600F0CFFA3D4D2888002845D15B4CB2
:10151000FFF7DAF9204600F0E9F828880028F7D02C
:101520003BE03C80474804804A480470E44804603B
:10153000E1480460DF480460E04804604C48A0498A
:101540000860334F3868214600F0E4FC002817D1CA
:101550002B4D484E286800F0C9F800F093F9D648A2
:10156000006830403C68214600F0BCFC002807D1F0
:10157000D34800683040214600F0BFFC0028E9D184
:101580001E4D2888002808D13F4CFFF79DF92046C2
:1015900000F0ACF828880028F7D086490878401C6D
:1015A000087003B0F0BD224B03601F48086021485B
:1015B000106005E01B4A1A601B4A0A601B49016063
:1015C0007C4E34701F48048003B0F0BDF0B2032895
:1015D000784EF6D900F058FA794804602C703470CF
:1015E000734804709248047015480470642000F039
:1015F00025F903B0F0BDC04600032020880020205C
:1016000004002020000030C20800202000004C42CE
:101610000C00202000C07844100020200080794475
:10162000A900202000004842000034C20040784455
:10163000008078440040794400007844F000202085
:10164000C5022020EC0020200000C343C802202057
:1016500066669640FC0220207C2E0000FE022020C0
:10166000F8002020F4002020780020207C0020209A
:101670000000F043FFFFFF7F0000E0C0000080BFDC
:101680009A999940CDCCCCBD0000E04080B5074888
:101690000068C0B20B2807D105480068C0B200F04E
:1016A00019F904480121017080BDC0462030104066
:1016B00024311040C4022020B0B5094C2078002805
:1016C0000DD0084D2888401C288080B20C2806D3F5
:1016D000FEF742FFFFF7D4F9002020702880B0BD4C
:1016E000A5002020A60020207047000070B52E4CD9
:1016F0002060B8480068FEF715FE2C490860E04AF3
:101700001278022A04D178280EDDB322D24310E0E9
:10171000D21E012A0FD8274A1278531E012B38D81F
:101720007D28F2DC7C2200E07722D243904202DA6C
:10173000B42210180860FEF757FE6060204600F0E3
:10174000B8F9E56A1C4E2846314600F0C0FB002877
:1017500000D12E46002805D11849304600F0C2FBC2
:10176000002808D1154D3046294600F0C6FB002858
:1017700000D13546E562124E3068294600F0C8FCBB
:10178000FFF798F93068E16A00F0D0FBFFF7B0F995
:1017900070BDD21E012ACED84628B6DC4622D243DE
:1017A0009042C5DDC7E7C046B4002020B00020202D
:1017B000A8002020000320200000FA430000FAC304
:1017C000F000202080B5FFF727FB01208003F749B8
:1017D0000860F749086080BDF0B581B0FFF756F9A1
:1017E0003224204600F02AF8FFF74AF9FFF75CF9A7
:1017F000784F3D68204600F021F83E68204600F012
:101800001DF8A048012101702846314600F08EFBEA
:10181000396800F08BFB0749FEF7D4FC06490860E5
:10182000FFF73AF9204600F009F801B0F0BDC046D4
:10183000FD00202000004040E8002020B0B57D21C0
:10184000090241430E480368262206E0E41A051FF8
:101850002D686419A2188A4210D21C460368A3425C
:1018600008D10368A34205D10368A34202D10368EB
:10187000A342F3D09C42E9D9E41AEBE7B0BDC046DD
:1018800018E000E010B50A4804680A4801682046DC
:1018900000F0E6FB084908600120C0070749096815
:1018A0004140204600F0DCFB0549086010BDC04601
:1018B0000000202078002020F40020207C00202040
:1018C000F8002020B948022101600160B848016099
:1018D00001607047F0B583B0384E317800290BD0E5
:1018E0003178012914D1532866D13548007835491B
:1018F00053220A54022707E055285DD1304800786A
:10190000304955220A5401272D480770377053E09B
:101910003178022950D12A4A13782A49C854581CD0
:101920001070C0B20B2847D108784A7810188D780B
:101930002818CC782218087983184A79D3188F7917
:101940000297FB18CF790197FB180F7AFB184F7A93
:10195000FB18DBB2897A00278B42D5D11102081817
:1019600000B2FEF741FD0721C906009100F078FBA7
:10197000154900F075FB154908602002401900B2B6
:10198000FEF732FD009C214600F06AFB0E4D294611
:1019900000F066FB0E4908600198000202994018A9
:1019A00000B2FEF721FD214600F05AFB294600F067
:1019B00057FB08490860A7E703B0F0BDA40020204A
:1019C000A300202098002020000034438C00202019
:1019D00094002020AC002020FFF7F4FEFFF772FFF8
:1019E00000F0D4F800F0DAF8224C234D234E244FB7
:1019F000FFF70CF82070FFF725F8287031780029E0
:101A000008D0012818D1FFF741F8012030700128D3
:101A100015D0EDE72078012805D1FFF745F8387893
:101A2000401C387000E03878C0B2052801D300208F
:101A3000387028780128E6D030780128D8D11148AC
:101A400000780128D4D13878401E0328D0D8C04669
:101A50007844007940008744040A0107FFF726FB19
:101A6000C6E7FFF751FAC3E7FFF778FCC0E7FFF7D7
:101A70008BFABDE78000202081002020C5022020B5
:101A8000A8002020FD00202001208104044A1160CC
:101A9000C104116001051160000610607047C04666
:101AA00090320A4010B5029C42618361C4610163B7
:101AB00010BDF0B583B004460068616800F028FBF3
:101AC0000546A060206B00282DD001284BD1A169CC
:101AD000284600F0C5FA0290A062E6682846314622
:101AE00000F016FB0146606900F0BAFA019020622E
:101AF0003046314600F01AFA0146284600F008FB4D
:101B0000216900F013FA0146E06900F0A9FA0746DE
:101B100060620198029900F009FA394600F006FA6D
:101B20000146E06A1BE06169284600F099FA0290DC
:101B30002062A169284600F093FA0190A062E6684D
:101B40002846314600F0E4FA0146E06900F088FAE0
:101B5000074660620298019900F0E8F9394600F002
:101B6000E5F9E06200E0E668E560266103B0F0BDFB
:101B700080B50448C06AFEF79DFF0348C06AFEF7BF
:101B8000B7FF80BD5C02202090022020012080044D
:101B900006490860064908607047C04601200004F5
:101BA00002490860024908607047C04680E200E0D0
:101BB00000E100E0F0B583B000203849085EFEF790
:101BC00013FC3749086037480178029118204843D0
:101BD000354A1178019116234B431818334B197865
:101BE000009115254D434019314D2D7814266E4333
:101BF00087193048041D304E367874433C19C11C97
:101C00002E4F3F7879436118841C2D4A1278544333
:101C100009192C4C24786043081800B20299019BE2
:101C20005918009BC91849198919C9191C4F8918D5
:101C3000091909B200F072F82349087040B2FEF7A2
:101C4000D3FB78603846FFF734FFFD6A1F4E284605
:101C5000314600F03CF9002800D12E46002805D17D
:101C60001B49304600F03EF9002808D1184D304697
:101C7000294600F042F9002800D13546FD62154C96
:101C80002068294600F044FAFEF714FF2068F96A3C
:101C900000F04CF9FEF72CFF03B0F0BDC602202087
:101CA000C8022020850020208400202083002020DE
:101CB00082002020E8FF00009000202091002020DA
:101CC0009200202093002020FC00202000004844A7
:101CD000000048C4F000202043088B421AD30022A1
:101CE00003098B4279D3030A8B425ED3030B8B42E9
:101CF00042D3030C8B4227D30902FF2212BA030CF2
:101D00008B4202D31212090203D0030B8B4233D34E
:101D10001AE0D3E0411A8041401C704703460B4350
:101D200071D443088B42F5D3002203098B4254D36C
:101D3000030A8B4239D3030B8B421DD3030C8B4216
:101D400002D394466EE0090AC30B8B4201D3CB0346
:101D5000C01A5241830B8B4201D38B03C01A5241EC
:101D6000430B8B4201D34B03C01A5241030B8B42EE
:101D700001D30B03C01A5241C30A8B4201D3CB02D9
:101D8000C01A5241830A8B4201D38B02C01A5241BE
:101D9000430A8B4201D34B02C01A5241030A8B42C1
:101DA00001D30B02C01A5241CDD2C3098B4201D3D9
:101DB000CB01C01A524183098B4201D38B01C01A57
:101DC000524143098B4201D34B01C01A52410309CE
:101DD0008B4201D30B01C01A5241C3088B4201D37D
:101DE000CB00C01A524183088B4201D38B00C01A2A
:101DF000524143088B4201D34B00C01A5241411A51
:101E0000524110007047CA0F00D04942031000D35E
:101E10004042534000229C4603098B422DD3030AC3
:101E20008B4212D38901FC2212BA030A8B420CD3D3
:101E3000890192118B4208D3890192118B4204D3FC
:101E4000890137D0921100E08909C3098B4201D37F
:101E5000CB01C01A524183098B4201D38B01C01AB6
:101E6000524143098B4201D34B01C01A524103092D
:101E70008B4201D30B01C01A5241C3088B4201D3DC
:101E8000CB00C01A524183088B4201D38B00C01A89
:101E90005241D9D243088B4201D34B00C01A524160
:101EA000411A00D201465241104663465B1000D3EE
:101EB0004042704763465B1000D3404201B50021A9
:101EC000004201D0C9430846C046C04602BD10B515
:101ED00000F072F8EFF30080800001D5012010BD02
:101EE000002010BD10B500F067F8EFF3008040004F
:101EF000800F012800D0002010BD10B500F086F83A
:101F0000EFF300804000800F012801D0012010BDB8
:101F1000002010BD10B500F079F8EFF300808000CC
:101F200001D4012010BD002010BD000070B50125B6
:101F3000ED0704004C4020D4441A01D2001B0919BB
:101F4000C60D4B00F2B2FF2A29D01B0E2CD0000286
:101F50000C0228432C43D31ADC40051910D2280A5E
:101F600002D3401C6D0611D0761EF6058019FF2A9B
:101F700000DA70BDC00DC00570BD694000F0CEF83C
:101F800001200543C541521C761CE8E764089C40CB
:101F9000C90161408900E7D10124A043E4E71B0E99
:101FA000440200D0034870BD002AFCD1C00FC00716
:101FB00070BD00BF0000C07F0123DB0502000A43A3
:101FC0000DD4DA4203D49A4207D488427047D842EB
:101FD00014D4D94212D48842704780427047DA4202
:101FE00003D59A42F9D5814270475B004200DA423C
:101FF00004D24A00DA4201D28142704710B5024A47
:10200000FEF7FEF910BD00BF090013040123DB0534
:1020100002000A430DD4DA4203D49A4207D488421C
:102020007047D84214D4D94212D4884270478042B3
:102030007047DA4203D59A42F9D5814270475B0076
:102040004200DA4204D24A00DA4201D281427047A9
:1020500010B5024AFEF7D4F910BD00BF09001604FE
:1020600070B5420064414B005C41120E39D01B0E2A
:1020700038D0FF2A3CD0FF2B3AD0D2187F3A40020A
:102080004902400A490A4518ED0106004E43000A7C
:10209000090A48430104731A4019190C4318990F8F
:1020A00004D05B08012149075B1A521CD80904D3EC
:1020B000401CF50301D19D0607D0FF2A08D2D505A3
:1020C00006D0E4072043401970BD0125A843F4E77A
:1020D000002A01DCE00770BD2402FF202043C00578
:1020E00070BD1B0EFF2A03D0FF2B01D0E00770BD8F
:1020F000FF2636064500B54206D84D00B54203D846
:10210000D218FF2A00D0E7E7004870BD0000C07F6A
:1021100070B50125ED0704004C4022D4441A02D2C8
:102120006C40001B0919C60D4B00F2B2FF2A4BD0C0
:102130001B0E50D000020C02A8432C43D31ADC40E3
:10214000051B05D5AD0019D36D08761E521E37D07C
:10215000F605280A01D2801970BD70416D0603D0C2
:1021600070BD6940FFF7E8FE9C40090261404900EC
:1021700001D0401E70BD0124A04370BD6D081DD06C
:1021800001202B0C01D12D0410302B0E01D12D027A
:1021900008302B0F01D12D01001DAB0F01D1AD0077
:1021A000801CEB0F01D16D00401C361A121A6D0015
:1021B000680AF5054019012A02DB70BD002070BDD8
:1021C000C036300AC00770BD1B0E440201D1FF2B80
:1021D00000D1024870BD002AF0D070BD0000C07F61
:1021E0008182838485868788898B8C8D8E8F91925E
:1021F00093959697999A9C9D9FA0A2A3A5A7A8AAFC
:10220000ACAEB0B2B3B5B7B9BCBEC0C2C5C7C9CC1D
:10221000CED1D4D7D9DCDFE2E6E9ECF0F3F7FAFE71
:1022200008070300E803000020000100080763001E
:102230000200000017010000010000000000000083
:102240000000000008076300020000001701000002
:102250000100000000000000000000000800000075
:10226000180000000030000088220000000020203C
:102270001800000020010000A0220000180020200B
:10228000F016000048010000840D8F3E000030C2AF
:1022900000005042004082440000794401010000E7
:04000005000000C136
:00000001FF
